:020000040800F2
:10000000E0070020990200080D4C00082135000887
:10001000094C0008750E0008D1820008000000009D
:100020000000000000000000000000001D6C00083F
:10003000790E000800000000114C0008216C000837
:10004000B3020008B3020008B3020008B3020008BC
:10005000B3020008B3020008B3020008B3020008AC
:10006000B3020008B3020008B3020008B30200089C
:10007000B3020008B3020008B3020008B30200088C
:10008000B302000800000000B3020008B302000839
:10009000B3020008B3020008B3020008B30200086C
:1000A000B3020008B3020008B3020008B30200085C
:1000B000B3020008B3020008B3020008B30200084C
:1000C000B3020008B3020008B3020008B30200083C
:1000D000B3020008C5820008B3020008B30200089A
:1000E000B3020008B3020008B3020008B30200081C
:1000F000B3020008B3020008B302000800000000C9
:1001000000000000B302000800000000B302000875
:10011000B302000800000000B3020008B3020008A8
:10012000B3020008B3020008B3020008B3020008DB
:10013000B30200080000000000000000B302000845
:10014000B3020008B3020008000000000000000035
:10015000000000000000000000000000000000009F
:10016000000000000000000000000000B3020008D2
:10017000B3020008000000000000000000000000C2
:1001800000000000B30200080000000000000000B2
:10019000000000000000000000000000000000005F
:1001A0000000000000000000B3020008B3020008D5
:1001B000B3020008B3020008B30200080000000008
:1001C00000000000B3020008000000000000000072
:1001D000B3020008B302000800F002F800F04CF887
:1001E0000AA090E8000C82448344AAF10107DA4592
:1001F00001D100F041F8AFF2090EBAE80F0013F098
:10020000010F18BFFB1A43F00103184710A50000A7
:1002100030A50000103A24BF78C878C1FAD8520738
:1002200024BF30C830C144BF04680C607047000070
:100230000023002400250026103A28BF78C1FBD8EF
:10024000520728BF30C148BF0B607047662909F0CC
:10025000F480642900F0F480002070471FB509F095
:10026000DAF800F093FC04000020002108F0C2FC42
:10027000E0601FBD10B510BD00F088FD1146FFF70E
:10028000EDFF08F027F800F0A6FD03B4FFF7F2FF3A
:1002900003BC00F0E7FD000009488047094800471B
:1002A000FEE7FEE7FEE7FEE7FEE7FEE7FEE7FEE726
:1002B000FEE7FEE704480549054A064B7047000083
:1002C000456C0008D9010008E0010020E00700208B
:1002D000E0030020E003002053EA020C00F06980F4
:1002E0002DE9F04B4FF00006002B1FBFB3FA83F54A
:1002F00003FA05F424FA05F65E4012BF1643B2FA7B
:1003000082F502FA05F4C5F120051EBF22FA05FCAC
:1003100044EA0C04203556EA044C4FEA144418BF52
:10032000641C4FF000084FF00009904271EB030C81
:1003300039D3002919BFB1FA81F701FA07F6B0FAEB
:1003400080F700FA07F6C7F120071EBF20FA07FC66
:1003500046EA0C062037B6FBF4FCA7EB0507103F76
:1003600007F01F0BCBF120062CFA06F60CFA0BFB5C
:1003700044BFB3460026202FA4BF5E464FF0000BBB
:100380005BEA060C08BF4FF0010B19EB0B0948EBB9
:100390000608ABFB027C06FB02CC0BFB03CCC01BAC
:1003A00071EB0C01C1E70B46024641464846BDE8E9
:1003B000F08B13B5084318BF4FF0FF300146AFF381
:1003C0000080BDE81C4070470FB41CB5074B06AA5F
:1003D0007B4469460090059800F0BFFB0020694609
:1003E00000F0CEFB1CBC5DF814FB0000AD07000064
:1003F00070B5044685690068C10601D5302600E065
:100400002026C00707D070BDD4E9012130469047AF
:10041000206A401C20626D1EF6D570BD70B5044682
:1004200085690078C00707D170BDD4E9012120207B
:100430009047206A401C20626D1EF6D570BD0000FA
:100440002DE9F0410646002410687529314616A5AD
:1004500010D0AFF30080002802DA404213A507E075
:1004600031688A0701D512A502E0490704D511A514
:10047000012401E0AFF3008000210A2206F12407E5
:1004800009E0B0FBF2FCB0FBF2F302FB1C003030E1
:1004900078541846491C0028F3D123462A46304692
:1004A000BDE8F04100F0EDB8000000002D000000B4
:1004B0002B000000200000002DE9F05F8946044673
:1004C0004FF0000ADFF824B1FB44C0F820A020461A
:1004D000E168884700287DD0252806D0D4E901218D
:1004E0009047206A401C2062F1E700255F462046C5
:1004F000E16888472028064607DB312E05D2B81967
:1005000010F8200C08B10543F1E7A80701D525F044
:100510000405C4F81CA00027C4F818A02A2E09D08E
:10052000304608F05FFB38B304EB8708303EC8F86C
:10053000186019E059F8041B204604EB870291610A
:10054000E1688847012F064618D1E069002820DAC3
:1005500025F020051DE0D8F8180000EB800006EB20
:1005600040003038C8F818002046E1688847064641
:1005700008F038FB0028EED1012F0AD02E2E08D12A
:100580002046E16888477F1C0646022F45F020057B
:10059000C4DBA069002803DA404245F00105A061F0
:1005A000E80701D025F01005A6B1A6F141001928F1
:1005B00002D8203645F400654A463146204625607B
:1005C0004D46FFF743FE60B1012807D0ED1D25F031
:1005D000070000E007E000F1080978E705F10409E9
:1005E00075E730467AE7206ABDE8F09F728F000019
:1005F00010B5431C02E010F8011B71B18107FAD15C
:100600004FF0013202C88C1A8C4314EAC211F9D09F
:10061000C01A0A0603D0C01E10BDC01A10BD0A04BD
:1006200001D0801E10BD0902FCD0401E10BD4FF04D
:10063000000200B5134694469646203922BFA0E832
:100640000C50A0E80C50B1F12001BFF4F7AF09073E
:1006500028BFA0E80C5048BF0CC05DF804EB89002F
:1006600028BF40F8042B08BF704748BF20F8022B72
:1006700011F0804F18BF00F8012B7047704770478A
:1006800070472DE9F0470D4699469246044600F121
:1006900024080168880604D5E06921F01001216072
:1006A00000E00120A84201DD471B00E00027A1690E
:1006B0007A1902EB0900081AA0612078C00602D45A
:1006C0002046FFF795FE002608E0D4E901211AF83C
:1006D00006009047206A401C761C20624E45F4DBE1
:1006E0002078C0060AD52046FFF782FE06E0D4E94E
:1006F000012130209047206A401C2062381EA7F15B
:100700000107F4DC07E0D4E9012118F8050090475F
:10071000206A401C2062281EA5F10105F3DC20465A
:10072000FFF77CFE2078000602D50220BDE8F087A6
:100730000120FBE72DE9FF4F0C461E464FF0FF3727
:100740008BB0D2E90001DDF860800A908A46C1F3DF
:100750000A5505B93D46002108464FF00000BAF1A0
:10076000000F00F4400005DA00EB80004FF4400178
:1007700001EA50004FEA9059B9F1010F00DDB94686
:100780000A9850EA4A000ED044F61050A5F2FF3500
:1007900045432F14B8F1000F1ED07542291E1EDDEF
:1007A000C9F100021CE0B8F1010F4FF0000001D0C8
:1007B000302103E0F24305E02154401CB042FBDB52
:1007C00030460022002121540B99C1F80880C1E96C
:1007D00000200FB0BDE8F08FBD1B6D1CDEE74A4660
:1007E00000DA694206A800F05BFA06AB93E807005E
:1007F00003AB83E8070050460A9907F012FE8DE824
:100800000700A0F500501F3800900398002D0ADD66
:1008100042F21F014A460844002303A90390684698
:1008200008F07CF809E0A0F500504A461F38002384
:1008300003A90390684608F086F88DE807000004D5
:10084000000C03D04FF0FF30410800E01046B8F133
:10085000000F03D00022009215461EE0751E05D43D
:1008600000F098F9303262556D1EF9D5B346012279
:10087000084302D000227F1C04E02078302801D1F8
:1008800000227F1E002A099784D01DE0112D07DA6F
:1008900000F080F9303262556D1C50EA0102F5D14A
:1008A000084302D00098C8B10EE00021681E05E0A0
:1008B000235C625C63542254401E491C8142F7DB76
:1008C000AB46A81B401E0990002004F80B000B98B3
:1008D000099AC0F80880C0E9002B7AE711264FF08A
:1008E000000857E72DE9F04F88460446D21D22F054
:1008F000070191B0D1E90001CDE90A0108F05AF9E8
:1009000002460B98C00F01D02D2007E02068810718
:1009100001D52B2002E0202101EAC000032A099022
:1009200001D0072A05DB03464146204600F078F94E
:100930000BE12078800601D5E06900E00620B8F1DF
:10094000650F814606D0B8F1660F18D0B8F1670F71
:1009500070D131E00020B9F1110F009001DB1123BB
:1009600001E009F101030AAA01A90CA8FFF7E2FEC0
:10097000DDE90C70002609F10105834647E00120FE
:100980004B4600904FF000470AAA01A90CA8FFF7B8
:10099000D1FEDDE90DB00C995D46002610B909F1D4
:1009A00001000D18B9EB050003D4C0F1FF3609F1C1
:1009B0000105A5EB09002BE0B9F1010F01DA4FF0B9
:1009C00001090020B9F1110F0090484601DD112303
:1009D00000E003460AAA01A90CA8FFF7ABFEDDE977
:1009E0000C704D4600268346207800070AD4AB459C
:1009F00000DA5D4601A8012D04DD411911F8011C42
:100A0000302907D04F4502DA17F1040F04DA01202C
:100A100082460FE06D1EEEE7002F02DCED1B3E4428
:100A200003E0781CA84200DD7D1CB81B00F1010A20
:100A30004FF000472078000703D4AA4501DB4FF0B0
:100A4000FF3A0021B7F1004F0DF143088DF8431034
:100A500024D002202B23002F01DA7F422D230A21EC
:100A6000021EA0F1010000DC5FB197FBF1FC97FBD7
:100A7000F1F201FB1C7C17460CF1300C08F801CD9B
:100A8000EEE7A8F1010003702188090501D5452191
:100A900000E06521A0F1010800F8011C09980FA9E8
:100AA000A1EB0807FF1D00B10120411901EBEA701D
:100AB000A1693844081A401EA0612078C00602D4FB
:100AC0002046FFF795FC099828B1D4E90121904709
:100AD000206A401C20622078C00622D52046FFF7FD
:100AE00087FC1EE0002E04DBB34502DD01A8805D1B
:100AF00000E03020D4E901219047206A401C2062A8
:100B0000761CAAF101005FEA000A0AD100F03EF863
:100B1000C0680168405CD4E901219047206A401C0C
:100B20002062281EA5F10105DCDC07E0D4E90121E3
:100B300018F8010B9047206A401C2062381EA7F16C
:100B40000107F3DC2046FFF769FC032011B041E602
:100B500001694A1C02610878704700B58FB0CDE981
:100B600001310021059105497944CDE90310114671
:100B70006846FFF7A1FC0FB000BD0000E5FFFFFFD6
:100B80000A6802F8010B0A607047000000487047CD
:100B90005000002030B5B0F10A0271F100034FEAB5
:100BA000900E4EEA817EB0EB0E0061EB91014FEAB0
:100BB000101E4EEA017E10EB0E0041EB11114FEAC0
:100BC000102E4EEA016E10EB0E0041EB11214FEAA0
:100BD000104E4EEA014E10EB0E0041EB1141401851
:100BE00041F100014FEAD00040EA41704FEAD101E3
:100BF0004FEA810444EA907410EB800544EB010451
:100C00006D1944EB0404521BA3414FF0000348BF8D
:100C10000A3200D530BD401C41F1000130BD00005A
:100C20002DE9F0411F46044603260168072A01F416
:100C3000006004DB08B116A505E016A503E008B1C5
:100C400015A500E015A521F010002060A069C01EC8
:100C5000A0610FB1401EA0612046FFF7C9FB4FB154
:100C6000D4E9012138469047206A401C2062C01C0C
:100C7000206206E0206AFAE7D4E9012115F8010BA9
:100C80009047761EF8D22046FFF7C8FBBDE8F081FA
:100C90004E414E006E616E00494E4600696E660020
:100CA0002DE9F047814616468AB0354878440DC88C
:100CB0008DE80D0032487844801C03AC0DC884E8F0
:100CC0000D0041F69B300844372190FBF1F290FB78
:100CD000F1F5A5F1800501FB12041B3C02D564422D
:100CE000012000E00020DFF898A080460027FA44A9
:100CF000AAF1BE0A0EE0E0070AD03246684607EBCA
:100D0000470101230AEB810107F01DFE8DE8070072
:100D100064107F1C002CEED1194F7F44AE3F19E0C8
:100D2000E80715D007EB04100DF1180A90E80E0043
:100D30008AE80E00C068F04201D198190890324646
:100D4000012306A903A807F0FEFD03AB83E8070013
:100D50006D10641C002DE3D14FF00103324669464B
:100D6000B8F1000F03A802D007F0D8FD01E007F0AA
:100D7000EAFDC9E90001C9F808200AB0BDE8F0871A
:100D80001C88000000487047300000207546FFF7BF
:100D9000F9FFAE4605006946534620F00700854638
:100DA00018B020B5FFF786FABDE820404FF00006E6
:100DB0004FF000074FF000084FF0000BAC46ACE8D6
:100DC000C009ACE8C009ACE8C009ACE8C00921F032
:100DD00007018D46704710B50446AFF300802046EA
:100DE000BDE81040FFF751BA30B44FF0013C50F865
:100DF000042B51F8043BCCFA52F4D51A20D1FCB99B
:100E000050F8042B51F8043BCCFA52F4D51A17D100
:100E1000B4B950F8042B51F8043BCCFA52F4D51A6B
:100E20000ED16CB950F8042B51F8043BCCFA52F4B3
:100E3000D51A05D1002CDAD030BC4FF00000704735
:100E400029BAB1FA81F111F01801D1F120008440E2
:100E5000F2D1CA40CB4012F0FF0213F0FF0330BCC6
:100E6000D01A704701491820ABBEFEE726000200E9
:100E700070470000FEE7000070470000000000001F
:100E8000F0B581B02DED028B40F20006C2F20006F3
:100E90003078D0B30020002700F06AF8FF280FD187
:100EA00000200A2100F082F801200A2100F07EF8DB
:100EB00002200A2100F07AF803200A2100F076F8D7
:100EC000002000F055F83073012000F051F8307622
:100ED000022000F04DF808F0D7F89FED230B54ECFA
:100EE000105B2A46234607F075FF07F099FEB060B5
:100EF000032000F03DF808F0C7F82A46234607F023
:100F000069FF07F08DFE7061377040F29004C2F205
:100F10000004607808B3317B0020002500F046F81B
:100F2000317E012000F042F896ED020AB2EE048A0A
:100F300020EE080ABDEEC00A10EE101A022000F0E2
:100F400035F896ED050A032020EE080ABDEEC00A2A
:100F500010EE101A00F02AF86570BDEC028B01B09B
:100F6000F0BD00BF00BF00BF000000000000244033
:100F700010B5044602F0F2FCA02002F0A1FB02F042
:100F800001FE204602F09CFB02F0FCFD02F0E6FCB4
:100F9000A12002F095FB02F0F5FD02F0D7FA04461D
:100FA00002F056FC02F064FD204610BDB0B50C46C0
:100FB000054602F0D3FCA02002F082FB02F0E2FD25
:100FC000284602F07DFB02F0DDFD204602F078FBB2
:100FD00002F0D8FD02F04CFD0120BDE8B04000F069
:100FE0007DB80000EFF3108072B600BFFEE700008E
:100FF00080B5014690F82500022825D10868D1E97E
:1010000010CE8A6C036823F00E030360136823F488
:1010100080731360026822F0010202600EF01F006C
:10102000012202FA00F0CCF80400D1E9132050604C
:10103000486D68B1026822F480720260D1E916023C
:101040004260002005E000BF0420C863012000E0EA
:101050000020012281F82520002281F8242080BD73
:1010600080B590F8251002292ED10168D0E910CE64
:10107000826C0B6823F00E030B600B6823F00103F6
:101080000B60116821F4807111600EF01F020121C4
:1010900001FA02F2CCF80420D0E913325A60426D12
:1010A00032B1136823F480731360D0E916235360C0
:1010B00080F82510826B002180F824100AB1904737
:1010C0000021084680BD00BF0421C1630121002228
:1010D00080F8251080F82420084680BDB0B504466D
:1010E00000F0F2F8054640F21C00C2F20000406831
:1010F000611C18BF044400BF00F0E6F8401BA0428A
:10110000FAD3B0BD2DE9F04F82B00D68002D00F08C
:10111000CB8041F2004400F13847C4F600040622B7
:101120004FEAB726A04208BF0522052E38BF4FEA76
:10113000B722002401274FF0000E0026009209E09C
:101140000D68013635FA06F20EF1040E04F10204C0
:1011500000F0AA8007FA06FB15EA0B08F0D0D1F8D8
:1011600004A003220AF0030CACF10105A240012DFA
:101170006FEA020910D88268CD6802EA0902A54028
:101180002A4382604268CAF3001522EA0B02B54086
:101190002A43426006E000BFBCF1030F02D14FF0CA
:1011A000030C21E0C2688D6802EA0902A5402A43C7
:1011B000BCF1020FC26017D16FF0030202EA5602BF
:1011C00002440EF01C030F25D2F820C005FA03FAE2
:1011D0000D692CEA0A0C05FA03F343EA0C031362C7
:1011E000D1F804A00AF0030C02680CFA04F302EA36
:1011F00009021A431AF4403F0260A1D041F2600391
:10120000C4F202031A6840F2004942F001021A6077
:101210001A68C4F2010902F001020192019A26F053
:1012200003024FF6084A4A44CFF6FF7A52F80AC042
:101230000EF00C050F23009FAB402CEA030307FAC6
:1012400005F52B4342F80A30D9F808C04B684CEA40
:101250000805DA0258BF2CEA080540F20C4CC9F820
:101260000850C4F2010CDCF800209F0242EA080595
:1012700058BF22EA0805CCF80050D9F804209D0395
:1012800042EA080758BF22EA0807C9F80470D9F8EB
:101290000020DB0342EA080758BF22EA0807C9F822
:1012A000007001274CE700BF02B0BDE8F08F0000DE
:1012B0000069084018BF0120704700001823002A69
:1012C00008BF2823C150704740F2DC10C2F2000072
:1012D0000068704740F21C0040F2DC11C2F20000CE
:1012E000C2F2000140680A681044086070470000BC
:1012F00080B5032000F08CF8002000F009F80028E9
:101300001CBF012080BD00F029F8002080BD000036
:1013100070B540F21C06C2F200067168E1B10446E5
:1013200040F22800C2F200004FF47A720068B2FB6B
:10133000F1F1B0FBF1F000F09BFE0F2C4FF0010536
:1013400008D838B94FF0FF3021460022002500F0C0
:1013500033F83460284670BD012070BD82B041F280
:101360005800C4F20200816841F001018160816887
:1013700001F0010101910199016841F08051016082
:10138000006800F080500090009802B000F0E4B8CF
:10139000002848BF7047C1B200F01F00012202FAC6
:1013A00000F04EF20012CEF2000242EAD10121F02A
:1013B000030108607047000010B54EF60C5CCEF2D9
:1013C000000CDCF80030C3F3022E8EF00704042C6E
:1013D00028BF0424BEF103034FF0FF3E0EFA04F4CD
:1013E00038BF0023A14399400EFA03F39A431143F7
:1013F00000F00F0200F160430901043A03F5644371
:101400006244002848BF02F10C03197010BD0000AF
:101410004EF60C51CEF200010A684FF6FF031A4057
:1014200060F30A2242F0806040F0FD70086070476F
:10143000B0F5007F42D0002840F0808047F21400D1
:10144000C4F2000050F8141CC26E01F4C06122F412
:101450008072B1F5806FC2662ED150F8141C012243
:1014600062F34A2140F8141C40F22801C2F2000144
:101470000968322251434DF68362C4F21B32A1FB4C
:101480000212910C0268520511D54A1C0FD0026855
:1014900052050CD559B10268520508D5012906D06C
:1014A0000268520503D50229A1F10401EAD10068BE
:1014B000400544BF032070470020704747F21400E6
:1014C000C4F2000050F8141CC26E01F4C06142F472
:1014D0008072B1F5806FC266EED150F8141C012203
:1014E00062F34A2140F8141C40F22801C2F20001C4
:1014F0000968322251434DF68362C4F21B32A1FBCC
:101500000212910C0268520511D54A1C0FD00268D4
:1015100052050CD559B10268520508D5012906D0EB
:101520000268520503D50229A1F10401EAD100683D
:10153000400544BF03207047BEE700BF47F21400D8
:10154000C4F2000050F8141C022262F34A2140F851
:10155000141C00207047000047F20800C4F200008D
:10156000016841F480410160704700002DE9F041BD
:1015700082B00446807841F288060007C4F2020671
:1015800002D400202FE000BF56F8300C10F0805835
:101590000BD156F8300C40F0805046F8300C56F81D
:1015A000300C00F080500190019847F20007C4F21F
:1015B0000007386840F480703860FFF785FE054604
:1015C0003868C00500F1D680FFF77EFE401B022878
:1015D000F6D90320B8F1000F05D156F8301C21F0E0
:1015E000805146F8301C2168CA0713D18A0719D4E4
:1015F0004A071FD40A0725D48A062BD44A0631D4B9
:101600000A0637D4CA053DD48A0543D44A0549D4CD
:1016100057E000BF3268636822F003021A43326069
:101620008A07E5D53268A36822F00C021A433260BB
:101630004A07DFD53268E36822F030021A4332608D
:101640000A07D9D53268236922F0C0021A433260F2
:101650008A06D3D53268636922F440621A43326045
:101660004A06CDD53268A36922F440521A4332604B
:101670000A06C7D53268E36922F440421A43326051
:10168000CA05C1D53268236A22F440321A43326057
:101690008A05BBD53268636A22F440221A4332605D
:1016A0004A050ED53268A36A22F440121A43B3F5F4
:1016B000801F326005D156F87C2C42F4801246F827
:1016C0007C2C0A050ED53268E36A22F440021A43E4
:1016D000B3F5800F326005D156F87C2C42F48012AD
:1016E00046F87C2CCA040ED53268236B22F0407277
:1016F0001A43B3F1807F326005D156F87C2C42F456
:10170000801246F87C2C8A040ED53268636B22F076
:1017100040621A43B3F1006F326005D156F87C2C59
:1017200042F4801246F87C2C4A040ED53268A36B32
:1017300022F040621A43B3F1006F326005D156F8CF
:101740007C2C42F4801246F87C2C09040ED53168BA
:10175000E26B21F040511143B2F1805F316005D15D
:1017600056F87C1C41F4803146F87C1C02B0BDE880
:10177000F08100BFB06810F4407010D0216C884236
:101780000BD0B068B16820F4407041F48031B16092
:10179000B16821F48031B160B060C0070CD1B0688D
:1017A000216C20F440700843B0600020B8F1000FB5
:1017B0007FF419AF11E700BFFFF786FD054641F240
:1017C000883700BFB0688007E9D4FFF77DFD401B74
:1017D000B842F7D9FDE600002DE9F04700286DD0AA
:1017E00042F2000AC4F2020A0446DAF800000D468A
:1017F00000F00F0088420CD2DAF8000020F00F0051
:101800002843CAF80000DAF8000000F00F00A842F0
:1018100054D1216841F20808C807C4F2020803D174
:10182000880740F1D880BDE0606802283AD00328DC
:1018300040D158F8082C920140D5D8F80420D8F8A7
:10184000043042F20046C3F3031302F00302D8F857
:1018500004700133C0F2F406032A04BF43F20066A9
:10186000C0F26E16B6FBF3F2D8F80430C7F30627C1
:101870007A43C3F34163022707EB4303B2FBF3F25E
:101880004BF20043C0F2C4439A4261D9D8F8002019
:1018900012F0F00F51D089075AD5A168002957D10D
:1018A0004BE000BF58F8081C89035CBF0120BDE86D
:1018B000F08707E058F8081C490503D40120BDE86B
:1018C000F08700BFD8F8001001F00C0104293FD0C8
:1018D000D8F8001001F00C01082939D0D8F8001010
:1018E00001F00C010C2933D1D8F80410D8F80420E9
:1018F00042F20047C2F3031201F00301D8F80430AA
:101900000132C0F2F407032904BF43F20067C0F2BA
:101910006E17B7FBF2F1D8F80420C3F3062359433E
:10192000C2F34162022303EB4202B1FBF2F14BF23C
:101930000042C0F2C44291420AD9D8F800100822ED
:1019400062F307114FF00109C8F8001002E000BF70
:101950004FF00009D8F8001021F003010843C8F83F
:101960000000FFF7B1FC064641F28837D8F80000C6
:10197000616800F00C00B0EB810F07D0FFF7A4FC0A
:10198000801BB842F2D90320BDE8F08721688807A0
:1019900008D4B9F1000F1ED0D8F8000020F0F000F4
:1019A00017E000BF480705D5D8F8000040F4E06014
:1019B000C8F80000080706D5D8F80000072262F32F
:1019C0000D20C8F80000D8F80000A26820F0F00050
:1019D0001043C8F80000DAF8000000F00F00A84239
:1019E0001BD9DAF8000020F00F002843CAF80000E5
:1019F000FFF76AFC064641F2883700BFDAF80000BC
:101A000000F00F00A84207D0FFF75EFC801BB84231
:101A1000F4D90320BDE8F0872168480707D5D8F836
:101A20000000E26820F4E0601043C8F800000807F6
:101A300008D5D8F80000216920F4605040EAC100C0
:101A4000C8F80000D8F8000042F20041C0F2F401EA
:101A500000F00C00042808462DD0D8F8000000F053
:101A60000C00082843F20060C0F26E1023D0D8F8B2
:101A7000002002F00C020C2A1CD1D8F80420D8F85F
:101A8000043002F00302C3F30313D8F804700133E7
:101A9000032A08BF0146B1FBF3F0D8F80410C7F3DE
:101AA0000627C1F341610222784302EB4101B0FBFA
:101AB000F1F000E00020D8F8001049F2E442C1F350
:101AC0000311C0F60002515C40F2280201F01F0130
:101AD00020FA01F140F21C00C2F200000068C2F2DC
:101AE00000021160BDE8F047FFF712BC40F2280089
:101AF00041F20801C2F20000C4F202010068096864
:101B000049F2F442C1F30221C0F60002515C01F037
:101B10001F01C8407047000040F2280041F2080150
:101B2000C2F20000C4F202010068096849F2F442FE
:101B3000C1F3C221C0F60002515C01F01F01C84090
:101B40007047000080B541F20C01C4F2020151F867
:101B5000040C42F20042C0F2F40200F00C0004282F
:101B6000104608BF80BD51F8040C00F00C00082896
:101B700043F20060C0F26E1022D051F8043C03F032
:101B80000C030C2B1CBF002080BDD1F800C00B68DB
:101B90000CF0030CC3F3031E0B680EF1010EBCF135
:101BA000030F08BF02460968B2FBFEF0C3F3062329
:101BB000C1F341610222584302EB4101B0FBF1F055
:101BC00080BD00002DE9F04182B0002800F00681C0
:101BD0000446007841F20006C007C4F2020655D15F
:101BE0002078800774D42078000700F1978020784F
:101BF000400700F1B7802078800600F10781E56991
:101C0000002D00F03082B06800F00C000C2840F08D
:101C10005981012D00F0E280F068216A00F0030292
:101C20008A4240F0DB80626A6FF00F0300F0F0013F
:101C300003EB0212914240F0D180A16A00F4FE420F
:101C4000B2EB012F40F0CA80E16A00F07842B2EBBB
:101C5000C16F40F0C380226B0023CFF6E07303EA2C
:101C6000025200F4C001A2F50012914240F0B68089
:101C7000616B4FF07E4202EA016100F0C06001F149
:101C80007E41884240F0AA80EDE100BFB06800F0DC
:101C90000C01F06808295BD0032281F00C0122EAD4
:101CA00000000844B0FA80F0400951D16068B0F5F6
:101CB000803F07D0B0F5A02F40F0DA80306840F4C4
:101CC00080203060306840F480303060DBE000BF5E
:101CD000B068F16800F00C00042869D001F003013D
:101CE00080F00C0081F002010844B0FA80F0400955
:101CF0005ED1E1683068002900F0D28040F4807045
:101D00003060FFF7E1FA05463068400500F1FC80DD
:101D1000FFF7DAFA401B0228F6D92EE16169D6F8FE
:101D20009400002900F0908040F00100C6F8940073
:101D3000FFF7CAFA054600BFD6F8940080073FF5C2
:101D400056AFFFF7C1FA401B0228F5D915E100BFD5
:101D5000306880037FF544AF606800287FF440AFAF
:101D60003CE000BFB06D10F0805808D1B06D40F07D
:101D70008050B065B06D00F080500190019847F23E
:101D80000007C4F200073868C0052BD4386840F457
:101D900080703860FFF798FA054600BF3868C005C4
:101DA00020D4FFF791FA401B0228F7D9E5E000BFE5
:101DB0003068400501D5E06880B17068216920F085
:101DC000FE4040EA0160706040F21C00C2F2000078
:101DD0000068FFF79DFA00283FF405AF012002B02C
:101DE000BDE8F081A068012808D0052840F0AA804D
:101DF000D6F8900040F00400C6F89000D6F89000A5
:101E000040F00100C6F89000A9E000BFA169D6F833
:101E10009800002900F0808040F00100C6F898008A
:101E2000FFF752FA054600BFD6F8980080073FF545
:101E3000E6AEFFF749FA401B02284FF00300F3D942
:101E400002B0BDE8F08100BF20F00100C6F89400A8
:101E5000FFF73AFA054600BFD6F8940080077FF5F1
:101E6000C6AEFFF731FA401B0228F5D985E000BF66
:101E70003168002821F480313160316821F48021FB
:101E8000316000F07F80FFF71FFA0546306880035D
:101E90003FF5A6AEFFF718FA401B6428F6D96CE0B0
:101EA00020F480703060FFF70FFA05463068400577
:101EB0007FF599AEFFF708FA401B02284FF00300A8
:101EC000F4D9BDE7306820F080703060FFF7FCF98E
:101ED000022D05460CD100BF3068800140F17E80A4
:101EE000FFF7F2F9401B02284FF00300F4D9A7E7EF
:101EF0003068800140F1B080FFF7E6F9401B02280E
:101F00004FF00300F4D99BE77068216920F0FE4090
:101F100040EA0160706066E620F00100C6F89800B3
:101F2000FFF7D2F9054600BFD6F8980080077FF585
:101F300066AEFFF7C9F9401B02284FF00300F3D942
:101F40007EE700BFD6F8901021F00101C6F890108E
:101F5000D6F8901021F00401C6F8901010B3FFF7E6
:101F6000B3F9054641F28837D6F8900080072BD4A4
:101F7000FFF7AAF9401BB842F6D9032002B0BDE82A
:101F8000F08100BFFFF7A0F9054600BF306880036D
:101F90007FF526AEFFF798F9401B64284FF0030049
:101FA000F4D94DE7FFF790F9054641F2883700BFB5
:101FB000D6F89000800707D5FFF786F9401BB84296
:101FC0004FF00300F4D93BE7B8F1000F7FF413AEF4
:101FD000B06D20F08050B0650DE600BFF06848F2AB
:101FE0000C01C0F29F1104F1200700EA010C8ECF12
:101FF0006FF00F00D4E90C5400EB02100022CFF672
:10200000E07241EA0C0102EA05520843A2F500120F
:102010004FF07E4540EA032005EA0465104305F1D0
:102020007E4540EAC7602843F060306840F0807029
:102030003060F06840F08070F060FFF745F90446CA
:10204000306880010FD4FFF73FF9001B02284FF0E2
:102050000300F5D9F4E600BFF0684FF6FC71CFF647
:10206000EE610840F060002002B0BDE8F0810000A1
:10207000411E0020B0EB116F1CBF012070474EF2D3
:102080001002CEF2000251604EF62351CEF2000152
:10209000F0230B70072190601160704770B590F8C5
:1020A0003C20012A4FF0020247D080F83D20026810
:1020B00043F2004C54689368C4F2010C42F6004E9F
:1020C0006245C4F2010E01D0724503D14D6824F47B
:1020D00070042C434FF68F75CFF6FF550E682C40D9
:1020E00042F6FF35C4F201053443AA4254600FDCC6
:1020F000B2F1804F16D040F20046C4F20006B24260
:1021000010D040F60006C4F20006B2420AD00EE03B
:10211000724507D044F20006C4F20106B24201D073
:10212000624504D1896823F080031943916001213D
:10213000002280F83D1080F83C20104670BD000061
:10214000002804BF0120704710B5044690F83D00F8
:1021500028B9002084F83C00204600F023F8022033
:1021600084F83D002068211D04F076FD012084F8EC
:10217000480084F83E0084F83F0084F8400084F86A
:10218000410084F8420084F8430084F8440084F855
:10219000450084F8460084F8470084F83D0000209C
:1021A00010BD000081B00068B0F1804F02D001B0D6
:1021B000704700BF41F25800C4F20200016841F0CC
:1021C00001010160006800F001000090009801B07A
:1021D0007047000080B590F83C20012A4FF00202C1
:1021E00000F0A98080F83D20D0F800C08822DCF8FB
:1021F0000830CFF6CE721A40CCF808200B686F2B4F
:1022000010DD1F22C0F21002934237DCB3F5005FED
:1022100046DA702B00F09280B3F5805F00F0848086
:10222000D6E000BF2F2B35DD4F2B3FDC302B6FD09E
:10223000402B40F0CD80D1F804E0C968DCF82030B4
:10224000DCF8202022F00102CCF82020DCF8182055
:1022500022F0F00242EA011123F00A0242EA0E02E1
:10226000CCF81810CCF82020DCF808104FF6887253
:10227000CFF6CF721140473154E000BF3F21C0F28A
:1022800010018B423ADC2021C0F210018B423FD07A
:10229000302139E0E3B3102B3AD0202B38D097E02F
:1022A00060D0B3F1101F33D092E000BF502B6DD03F
:1022B000602B40F08D80D1F804E0C968DCF8203054
:1022C000DCF8202022F01002CCF82020DCF81820C6
:1022D00022F4704242EA013123F0A00242EA0E12D7
:1022E000CCF81810CCF82020DCF808104FF68872D3
:1022F000CFF6CF721140673114E000BF4021C0F229
:1023000010018B4204D07021C0F210018B425FD1CA
:10231000DCF808104FF68872CFF6CF7211401943DF
:1023200041F00701CCF808100022012180F83D108F
:10233000002180F83C10104680BD00BFD1E901E3C8
:10234000C968DCF8082043EA0E0322F47F4243EA1E
:1023500001211143CCF80810DCF8081041F0770196
:10236000E0E700BFD1E901E3C968DCF8082043EAEF
:102370000E0322F47F4243EA01211143CCF80810F6
:10238000DCF8081041F48041CCE700BFD1F804E04C
:10239000C968DCF82030DCF8202022F00102CCF8FB
:1023A0002020DCF8182022F0F00242EA011123F08C
:1023B0000A0242EA0E02CCF81810CCF82020DCF811
:1023C00008104FF68872CFF6CF7211405731A9E747
:1023D0000122AAE72DE9F04190F83C30012B04BF1F
:1023E0000220BDE8F0814FEAB202052A00F28A819C
:1023F000DFE812F006005000A400F8004C01900144
:1024000003681D6A1A6AA3F1804622F001021A626B
:102410001A465C6852F818CF8F68A6F59636D1F840
:1024200000E025F002054FEAB626072E45EA07052B
:102430000AD80127B74017F0E50F1FBFCF6825F076
:102440000C0527F004073D43072E0BD8012707FA98
:1024500006F616F0E50F1FBF24F44074D1E90567B6
:1024600034433C434FF68C76CFF6FE760CEA0607F3
:1024700047EA0E075C609F614F6809695F631D62F0
:102480009F6947F008079F619F6927F004079F61D4
:102490007DE100BF036843F200461D6A1A6AC4F278
:1024A000010622F010021A621A46D3F804C052F84C
:1024B000188FB3428E68D1F800E025F0200545EA78
:1024C000061505D042F60046C4F20106B34207D114
:1024D000CE686FF0400725F0C00507EA06163543C1
:1024E000A3F18046A6F596364FEAB626072E0CD8FD
:1024F000012707FA06F616F0E50F1FBFD1E90567B9
:102500002CF44064374344EA870C48F6FF44CFF686
:10251000FF6404EA080444EA0E27C3F804C09F617C
:102520004F6809699F631D629F6947F400679F6157
:102530009F6927F480679F6128E100BF036843F229
:1025400000461D6A1A6AC4F2010622F480721A62F9
:102550001A46D3F804C052F81CEFB3428E68D1F883
:10256000008025F4007545EA062505D042F60046B0
:10257000C4F20106B34207D1CE6840F2FF473602EB
:1025800025F44065BE433543A3F18046A6F5963653
:102590004FEAB626072E0CD8012707FA06F616F0E2
:1025A000E50F1FBFD1E905672CF44054374344EAD7
:1025B000071C4FF68C74CFF6FE740EEA040747EA48
:1025C0000807C3F804C0DF614F680969DF631D6253
:1025D000DF6947F00807DF61DF6927F00407DF6183
:1025E000D5E000BF036843F200461D6A1A6AC4F2D0
:1025F000010622F480521A621A46D3F804C052F837
:102600001C8FB3428E68D1F800E025F4005545EAEE
:10261000063505D042F60046C4F20106B34207D1A2
:10262000CE6844F6FF77360325F44045BE43354374
:10263000A3F18046A6F596364FEAB626072E0CD8AB
:10264000012707FA06F616F0E50F1FBFD1E9056767
:102650002CF44044374344EA871C48F6FF44CFF645
:10266000FF6404EA080444EA0E27C3F804C0DF61EB
:102670004F6809691F641D62DF6947F40067DF6105
:10268000DF6927F48067DF6180E000BF0368D3F86B
:1026900020C01A6AA3F1804722F480321A621A46D7
:1026A000A7F596375D6852F8508FD1F800E08E6834
:1026B0004FEAB727072F09D80124BC4014F0E50FD3
:1026C0001EBF4C6925F4803545EA04252CF40037FB
:1026D00047EA06474FF68C76CFF6FE76033606EAD3
:1026E000080646EA0E065D601E654E6809699E642E
:1026F0001F621F6D47F008071F651F6D27F0040755
:102700001F6544E00121002280F83C200846BDE816
:10271000F08100BF0368D3F820C01A6AA3F1804794
:1027200022F480121A621A46A7F596375D6852F8AD
:10273000508FD1F800E08E684FEAB727072F09D8ED
:102740000124BC4014F0E50F1EBF4C6925F4802520
:1027500045EA84252CF4001747EA065748F6FF4659
:10276000CFF6FF6606F5407606EA080646EA0E262C
:102770005D601E654E680969DE641F621F6D47F467
:1027800000671F651F6D27F480671F6509021368C6
:10279000194311600021002280F83C200846BDE862
:1027A000F0810000002804BF0120704710B50446E6
:1027B00090F83D0028B9002084F83C00204600F045
:1027C00023F8022084F83D002068211D04F044FA1B
:1027D000012084F8480084F83E0084F83F0084F823
:1027E000400084F8410084F8420084F8430084F8F3
:1027F000440084F8450084F8460084F8470084F8D3
:102800003D00002010BD00007047000061B10A1FAC
:102810004FEAB202032A11D8DFE802F00214181CB2
:1028200000F13F0318E000BF90F83E20012A1CBFD2
:1028300001207047022280F83E202CE000F1430383
:102840000AE000BF00F1400306E000BF00F14103D1
:1028500002E000BF00F142031B78012B1CBF0120E6
:102860007047032A08D8DFE802F0030B0F1300BFFC
:10287000022280F83F200EE0022280F843200AE086
:10288000022280F8402006E0022280F8412002E087
:10289000022280F84220026801F01F010120136A21
:1028A00000FA01F18B431362136A0B43A2F18041DA
:1028B000A1F596314FEAB1210629136244D8884028
:1028C00010F0650F40D0506C42F6FF31C4F20101A8
:1028D00040F400408A42506410DCB2F1804F1FD0B7
:1028E00040F20040C4F20000824219D040F60000DD
:1028F000C4F20000824213D01FE000BF42F6004045
:10290000C4F2010082420BD044F20000C4F2010084
:10291000824205D043F20040C4F2010082420CD151
:1029200090680721C0F20101014006294FF0000024
:1029300008D0B1F5803F08BF7047106840F0010033
:1029400010600020704700BF42F6FF30C4F2010063
:102950008242C2DD43F6FF70C4F20100824207DC0E
:1029600042F60040C4F201008242D3D1D8E700BF52
:1029700044F20000C4F201008242D1D044F60000CB
:10298000C4F20100824202BF506C40F40040506427
:10299000D3E7000090F88410012904BF022070479B
:1029A0002421C0F8881002681168136823F001031D
:1029B000136021F000530021416613602022C0F80B
:1029C000882080F884100846704700007047000097
:1029D00070470000B0B590F88420012A04BF02209F
:1029E000B0BD2422C0F888200268D0F864E0D2F894
:1029F00000C01368BEF1000F23F001031360936859
:102A000023F0606341EA0301916019D093689168F3
:102A10004AF2F46E490FC0F6000E4AF2FC651EF849
:102A20000140C0F60005695CC3F34263E400B4FBF7
:102A3000F1F11EF80340EB5CE500B5FBF3F301E0B8
:102A400001210123A0F86A102021A0F86830C2F803
:102A500000C0C0F88810002180F884100846B0BD7E
:102A6000B0B590F88420012A04BF0220B0BD242212
:102A7000C0F888200268D0F864E0D2F800C013687B
:102A8000BEF1000F23F001031360936823F060434D
:102A900041EA0301916019D0936891684AF2F46E9B
:102AA000490FC0F6000E4AF2FC651EF80140C0F660
:102AB0000005695CC3F34263E400B4FBF1F11EF866
:102AC0000340EB5CE500B5FBF3F301E001210123DA
:102AD000A0F86A102021A0F86830C2F800C0C0F841
:102AE0008810002180F884100846B0BD70470000AF
:102AF000704700007047000070B5016840F62F0372
:102B0000CA69044608688E681340202B0CD100F077
:102B1000200306F080555B1917D0616F00297BD028
:102B20002046BDE87040084740F60F031A420CD01B
:102B30000123C1F2000306EA030C40F22013C0F2A5
:102B40000043034013EB0C0368D1E36E012B05D166
:102B500012F0100318BF10F010034DD1D3020BD5A3
:102B600016F4800308D04FF4801220460A62BDE8B4
:102B70007040FFF7BDBF00BF110606D500F0800111
:102B800006F40003C91840F03782510640F1108165
:102B900010F0400100F00C81206850E8000F21681F
:102BA00020F0400041E80002DAB1206850E8000F50
:102BB000216820F0400041E8000292B1206850E80E
:102BC000000F216820F0400041E800024AB120686F
:102BD00050E8000F216820F0400041E80002002A80
:102BE000DAD120200021C4F888002046A167BDE882
:102BF000704000F093BC00BF102008628868400657
:102C000018D4B4F85C00B4F85E10B4F85E20002A62
:102C100018BF884240F0128270BD00BFD30718BFB2
:102C200010F4807340F0D080930706F0010E00F19D
:102C3000D780E0E0D4F8800000684268B4F85C30E7
:102C400091B2002900F0DE81994280F0DB81A4F886
:102C50005E200068800600F19E80206850E8000F2A
:102C6000216820F4807041E80002DAB1206850E861
:102C7000000F216820F4807041E8000292B12068C2
:102C800050E8000F216820F4807041E800024AB14A
:102C9000206850E8000F216820F4807041E80002AD
:102CA000002ADAD1206850E8020F216820F00100E4
:102CB00041E80202BAB3206850E8020F216820F010
:102CC000010041E8020272B3206850E8020F216857
:102CD00020F0010041E802022AB3206850E8020F08
:102CE000216820F0010041E80202002ADAD11AE04E
:102CF000206850E8020F216820F0400041E80202FD
:102D0000DAB1206850E8020F216820F0400041E865
:102D1000020292B1206850E8020F216820F04000C2
:102D200041E802024AB1206850E8020F216820F011
:102D3000400041E80202002ADAD12020C4F88C00C9
:102D40000020E066206850E8000F216820F01000A5
:102D500041E80002DAB1206850E8000F216820F055
:102D6000100041E8000292B1206850E8000F21688D
:102D700020F0100041E800024AB1206850E8000F3E
:102D8000216820F0100041E80002002ADAD1D4F8CE
:102D90008000FEF72DF902202067B4F85C00B4F83B
:102DA0005E10401A81B22046BDE87040FFF70EBEAB
:102DB000110240F1318110F0804100F02D81204658
:102DC000BDE87040FFF792BE01230B62D4F890304B
:102DD00043F00103C4F89030930706F0010E0AD5C2
:102DE000BEF1000F07D002230B62D4F8903043F0FD
:102DF0000403C4F8903053070AD5BEF1000F07D082
:102E000004230B62D4F8903043F00203C4F89030EE
:102E100013070CD500F0200353EA0C0307D0082356
:102E20000B62D4F8903043F00803C4F890301305D7
:102E30000BD510F0806308D04FF400630B62D4F818
:102E4000903043F02003C4F89030D4F89030002B39
:102E50003FF4E2AE12F020021EBF00F0200006F0A8
:102E6000805210EB020040F06B81D4F8900089682A
:102E700000F0280001F04001401807D12046FFF77C
:102E800039FE0020C4F8900070BD00BF206850E8F3
:102E9000000F216820F4907041E80002DAB1206848
:102EA00050E8000F216820F4907041E8000292B1D0
:102EB000206850E8000F216820F4907041E800027B
:102EC0004AB1206850E8000F216820F4907041E872
:102ED0000002002ADAD14FF6FE70CEF6FF7000BF76
:102EE000216851E8021F2268014042E80213C3B181
:102EF000216851E8021F2268014042E8021383B1B1
:102F0000216851E8021F2268014042E8021343B1E0
:102F1000216851E8021F2268014042E80213002B99
:102F2000DED1E06E012824D1206850E8000F21682E
:102F300020F0100041E80002DAB1206850E8000FEC
:102F4000216820F0100041E8000292B1206850E8AA
:102F5000000F216820F0100041E800024AB120680B
:102F600050E8000F216820F0100041E80002002A1C
:102F7000DAD12020C4F88C000020E0662168606768
:102F80008868400654D500BF206850E8020F2168C9
:102F900020F0400041E80202DAB1206850E8020F58
:102FA000216820F0400041E8020292B1206850E818
:102FB000020F216820F0400041E802024AB1206877
:102FC00050E8020F216820F0400041E80202002A88
:102FD000DAD1D4F8800058B346F6CD71C0F60001BE
:102FE0008163FEF73DF800283FF416AED4F8800068
:102FF000816BBDE870400847A16F00297FF490AD58
:103000000AE600BF8B427FF407AE006880067FF5BA
:1030100003AE02228DE000BFD1017FF5FDADB0F11E
:10302000FF3FC8BF70BD2046BDE87040FFF7D0BC71
:103030002046BDE87040FFF75DBD00BF401A00BFED
:10304000216851E8001F226821F4907142E80013C2
:10305000DBB1216851E8001F226821F4907142E839
:10306000001393B1216851E8001F226821F4907188
:1030700042E800134BB1216851E8001F226821F497
:10308000907142E80013002BDAD14FF6FE71CEF6B4
:10309000FF7100BF226852E8022F23680A4043E80C
:1030A0000226C6B1226852E8022F23680A4043E88C
:1030B000022686B1226852E8022F23680A4043E8BC
:1030C000022646B1226852E8022F23680A4043E8EC
:1030D0000226002EDED12021C4F88C100021E166EA
:1030E000616700BF216851E8001F226821F01001CC
:1030F00042E80013DBB1216851E8001F226821F08B
:10310000100142E8001393B1216851E8001F2268C2
:1031100021F0100142E800134BB1216851E8001F73
:10312000226821F0100142E80013002BDAD10222BC
:1031300081B220462267BDE87040FFF747BC00BF60
:10314000626F002A3FF491AE2046904721688CE6DA
:1031500010B5D8B10446D0F8880028B9002084F80A
:103160008400204600F026F82420C4F88800206857
:10317000A16A026822F00102026011B1204603F048
:10318000F9FD204604F0E8FB012801D1012010BD23
:103190002168486820F490404860886820F02A0040
:1031A0008860086840F0010220460A60BDE81040CF
:1031B00003F054BE10B596B00446684608303C2172
:1031C000FDF735FA206843F60001C4F20101884298
:1031D00002D016B010BD00BF012000900024684648
:1031E0000194FEF7C3F9002818BFFDF7FBFE41F27A
:1031F0004C00C4F20200416941F4804141614169DF
:1032000001F4804111911199016841F001010160BF
:10321000006811A900F00100119011984FF4C060EE
:1032200011900220CDE91204072015904FF0904034
:103230001494FDF767FF252001210022FEF7BCF85A
:103240002520FEF7A5F816B010BD000080B5D0F817
:103250008C30202B1CBF022080BD00294FF00103C1
:1032600018BF002A02D1184680BD00BF0023C366E4
:10327000D0F800C048F20003C4F200039C4533D0EC
:10328000DCF804301B022FD5036853E800CFD0F8D8
:1032900000E04CF080634EE8003CBCF1000F23D00E
:1032A000036853E800CFD0F800E04CF080634EE8AC
:1032B000003CBCF1000F17D0036853E800CFD0F8F2
:1032C00000E04CF080634EE8003CBCF1000F0BD0F6
:1032D000036853E800CFD0F800E04CF080634EE87C
:1032E000003CBCF1000FCFD104F088FC002318464D
:1032F00080BD000040F23C11C2F20001884218BFBC
:103300007047F0B583B040F29007C2F20007787FB3
:103310003F2825D140F20001C2F2000188684C69C3
:1033200006F008F8054620460E4606F003F841EC84
:10333000100B07F11D0410A120462A4633468DEDDF
:10334000000BFDF741F82046FDF752F982B240F23A
:103350003C10C2F2000021464FF0FF3300F014F899
:1033600040F23C1007F11D01C2F20000012203B03F
:10337000BDE8F040FFF76ABF583A252E31662C5958
:103380003A252E31660D0A002DE9F0410446D0F8A9
:10339000880020281CBF0220BDE8F0810D460029CE
:1033A0004FF0010000F0B8801646002A08BFBDE8C3
:1033B000F0810020C4F8900021209846C4F88800CD
:1033C000FDF782FFA4F85460A4F85660A168064691
:1033D000B1F5805F02D1206900286BD02F4600250F
:1033E000B4F8560000286BD018F101001CD0B8F1D9
:1033F000000F3DD121680BE017F8010B8862B4F88B
:1034000056000138A4F85600B4F85600002858D0E9
:10341000C869000640F17A80002FEDD135F8020B23
:1034200000276FF35F20E9E7216802E0C869000622
:1034300009D4C869000606D4C86900065CBFC8691B
:103440005FEA0060F2D51FB117F8010B05E000BF7D
:1034500035F8020B00276FF35F208862B4F856003E
:103460000138A4F85600B4F856000028E1D128E04D
:10347000216800BFC869000608D4FDF725FF801B3E
:10348000404545D821680868F4E700BF17B117F830
:10349000010B04E035F8020B00276FF35F20886210
:1034A000B4F856000138A4F85600B4F856000028C5
:1034B000E0D106E00027B4F8560000287FF494AF6E
:1034C0002168C86940061FD4B8F1000F1ED018F15A
:1034D00001000FD1C869400616D4C869400613D44C
:1034E000C869400610D4C86940064FF00000F1D505
:1034F0000FE000BFFDF7E8FE801B404508D82068BC
:103500000168C0694006F5D5002002E0FDF7DCFE49
:1035100003202021C4F88810BDE8F0817047000026
:10352000FEE7000080B586B000200590C020019025
:103530000120CDE902000220049040F20040C4F6D0
:10354000000001A9FDF7DEFD06B080BD2DE9F041C8
:1035500086B040F2284600278020C4F60006CDE958
:103560000107012003900220A6F12808049001A978
:1035700040460597FDF7C6FD082400250EE000BF74
:1035800040468021013C6D00FDF792FE0138B0FA03
:1035900080F04009210645EA00055FD0306840F020
:1035A0004000306001970198132817D80198013026
:1035B00001900198132811D80198013001900198C9
:1035C00013280BD80198013001900198132805D8D1
:1035D00001980130019001981428E7D301970198D0
:1035E000132817D80198013001900198132811D899
:1035F000019801300190019813280BD801980130EF
:1036000001900198132805D8019801300190019884
:103610001428E7D356F8100C40F0400046F8100C80
:10362000019701981328ABD80198013001900198B7
:103630001328A5D8019801300190019813289FD82C
:103640000198013001900198132899D80198013010
:10365000019001981428E7D392E700BF306840F04A
:1036600040003060002001900199132918D800BF54
:103670000199013101910199132911D80199013161
:103680000191019913290BD80199013101910199F7
:10369000132905D801990131019101991429E7D322
:1036A0008021019111210590CDE9021002200490A2
:1036B00001A94046FDF726FDE8B206B0BDE8F0815D
:1036C00080B581B040F2284EC4F6000E08224FF0BB
:1036D000000C05E0013A11064FEA400000F092802C
:1036E000DEF8003043F04003CEF80030CDF800C0E3
:1036F000009B132B18D800BF009B01330093009B45
:10370000132B11D8009B01330093009B132B0BD874
:10371000009B01330093009B132B05D8009B0133C2
:103720000093009B142BE7D343B2B3F1FF3F7346E2
:10373000D8BF103B196841F080011960CDF800C076
:103740000099132918D800BF009901310091009900
:10375000132911D8009901310091009913290BD830
:103760000099013100910099132905D80099013180
:10377000009100991429E7D3CDF800C000991329CE
:1037800018D800BF0099013100910099132911D870
:10379000009901310091009913290BD8009901314A
:1037A00000910099132905D80099013100910099E1
:1037B0001429E7D35EF8101C41F040014EF8101CAC
:1037C000CDF800C0009913293FF684AF009901316C
:1037D0000091009913293FF67DAF009901310091C6
:1037E000009913293FF676AF0099013100910099B5
:1037F00013293FF66FAF0099013100910099142908
:10380000E4D367E7DEF8000040F04000CEF80000A7
:10381000002000900098132818D800BF00980130AD
:1038200000900098132811D800980130009000985B
:1038300013280BD80098013000900098132805D861
:1038400000980130009000981428E7D301B080BDA3
:1038500081B040F21840C4F60000016841F08001D8
:10386000016000210091009A132A17D8009A0132B2
:103870000092009A132A11D8009A01320092009AFD
:10388000132A0BD8009A01320092009A132A05D805
:10389000009A01320092009A142AE7D3009100990D
:1038A000132917D80099013100910099132911D8D3
:1038B000009901310091009913290BD80099013129
:1038C00000910099132905D80099013100910099C0
:1038D0001429E7D3016841F0400101600021009103
:1038E000009A132A18D800BF009A01320092009A59
:1038F000132A11D8009A01320092009A132A0BD889
:10390000009A01320092009A132A05D8009A0132D7
:103910000092009A142AE7D3026942F04002026141
:1039200000910098132817D8009801300090009853
:10393000132811D8009801300090009813280BD854
:103940000098013000900098132805D800980130A5
:10395000009000981428E7D301B0704781B040F27E
:103960001840C4F60000016841F0800101600021A8
:103970000091009A132A17D8009A01320092009AF7
:10398000132A11D8009A01320092009A132A0BD8F8
:10399000009A01320092009A132A05D8009A013247
:1039A0000092009A142AE7D3026842F040020260B3
:1039B00000910099132917D80099013100910099BD
:1039C000132911D8009901310091009913290BD8BE
:1039D0000099013100910099132905D8009901310E
:1039E000009100991429E7D3016941F08001016138
:1039F00000210091009A132A18D800BF009A0132C2
:103A00000092009A132A11D8009A01320092009A6B
:103A1000132A0BD8009A01320092009A132A05D873
:103A2000009A01320092009A142AE7D3026942F008
:103A30004002026100910098132817D800980130C5
:103A400000900098132811D8009801300090009839
:103A500013280BD80098013000900098132805D83F
:103A600000980130009000981428E7D301B0704707
:103A700081B040F21840C4F60000016941F04001F5
:103A8000016100210091009A132A17D8009A01328F
:103A90000092009A132A11D8009A01320092009ADB
:103AA000132A0BD8009A01320092009A132A05D8E3
:103AB000009A01320092009A142AE7D3026942F078
:103AC0008002026100910099132917D800990131F1
:103AD00000910099132911D80099013100910099A2
:103AE00013290BD80099013100910099132905D8A9
:103AF00000990131009100991429E7D3016841F040
:103B00004001016000210091009A132A18D800BFDB
:103B1000009A01320092009A132A11D8009A0132B9
:103B20000092009A132A0BD8009A01320092009A50
:103B3000132A05D8009A01320092009A142AE7D37A
:103B4000026842F08002026000910098132817D8A2
:103B50000098013000900098132811D80098013087
:103B60000090009813280BD800980130009000981E
:103B7000132805D800980130009000981428E7D346
:103B800001B0704770B586B00025802040F2004437
:103B9000CDE901050120C4F6000403900220049041
:103BA00001A920460595FDF7ADFA01950198132866
:103BB00018D800BF0198013001900198132811D83E
:103BC000019801300190019813280BD80198013019
:103BD00001900198132805D80198013001900198AF
:103BE0001428E7D3A06940F04000A0610195019836
:103BF000132817D80198013001900198132811D883
:103C0000019801300190019813280BD801980130D8
:103C100001900198132805D801980130019001986E
:103C20001428E7D3204680218025FDF741FB012899
:103C300040F0BE80002001900198132818D800BFE2
:103C40000198013001900198132811D80198013092
:103C50000190019813280BD8019801300190019828
:103C6000132805D801980130019001981428E7D352
:103C700020468021FDF71CFB012840F099800020A0
:103C800001900198132817D80198013001900198EC
:103C9000132811D8019801300190019813280BD8EE
:103CA0000198013001900198132805D8019801303E
:103CB000019001981428E7D320468021FDF7F8FAF7
:103CC000012875D1002001900198132818D800BF51
:103CD0000198013001900198132811D80198013002
:103CE0000190019813280BD8019801300190019898
:103CF000132805D801980130019001981428E7D3C2
:103D000020468021FDF7D4FA012851D100200190EE
:103D10000198132818D800BF01980130019001982C
:103D2000132811D8019801300190019813280BD85D
:103D30000198013001900198132805D801980130AD
:103D4000019001981428E7D320468021FDF7B0FAAE
:103D500001282DD1002001900199132917D801992C
:103D6000013101910199132911D801990131019172
:103D7000019913290BD80199013101910199132956
:103D800005D801990131019101991429E7D38021C6
:103D9000019111210590CDE902100220049001A9A2
:103DA0002046FDF7AFF9FFF763FE012006B070BDB6
:103DB000A06A002640F04000A0621120CDE9020672
:103DC0000220049001A9204605960195FDF79AF975
:103DD00001960198132817D8019801300190019895
:103DE000132811D8019801300190019813280BD89D
:103DF0000198013001900198132805D801980130ED
:103E0000019001981428E7D3002006B070BD00008F
:103E100040F2D011C2F200018A784270CB780022C1
:103E20008A7083700B79CA70C3704B790A71037101
:103E30004A717047000000002DE9F04182B000F0A7
:103E40000DF940F29007C2F20007381DFFF7E0FFBE
:103E50007879002800F08A80002000F03BF938785B
:103E6000411CC8B2033818BF08463870C0B20128D8
:103E700000F08180002840F09F80B87960B140F266
:103E80000000C2F200000179027B0131CBB20132A5
:103E9000D21A18BF0A460271F87960B140F20000E8
:103EA000C2F20000017C027E0131CBB20132D21A93
:103EB00018BF0A460274387A002800F0908040F259
:103EC0000004C2F2000494F80480257C94ED020AF8
:103ED00001EE108A94ED052A03EE105AB8EE411A4D
:103EE000B8EE433A22EE032A20EE010A30EE020A2F
:103EF00010EE100A05F01EFA41EC100B07F109064E
:103F000051A1304642462B468DED000BFCF75CFA82
:103F10003046FCF76DFB82B240F23C10C2F200006A
:103F200031464FF0FF33FFF72FFA012078702079E8
:103F3000217B227C237E081A40F2F001C2F20001AC
:103F40002073981A096820760020192220712074A5
:103F50008A6340F2D811C2F200010A78788042F0F8
:103F600001020A7002B0BDE8F08100BF3878C0B22B
:103F700001287FF47FAFB879C0B340F20004C2F2E9
:103F8000000494ED020AB0EE001AB4EE410A0120DA
:103F9000F1EE10FA787025DA10EE100A05F0CAF981
:103FA0009FED270B53EC102B04F06CFE04F038FE51
:103FB00000EE100A18E000BFB879002840F20000B7
:103FC000C2F2000004D0027B01217970511C017300
:103FD000F97921B1027E01217970511C017602B07C
:103FE000BDE8F081B7EE000A84ED020AF8790028F6
:103FF000F5D040F20004C2F2000494ED050AB0EEE0
:10400000001AB4EE410A0120F1EE10FA78700FDACE
:1040100010EE100A05F08EF99FED090B53EC102BF2
:1040200004F030FE04F0FCFD606102B0BDE8F081F8
:104030004FF07E50606102B0BDE8F08100BF00BF6C
:104040009A9999999999B93F583A25642C593A25E2
:10405000642C5A3A252E31660D0A000070B540F2E4
:104060000044C4F60004204601210126FDF720F992
:1040700040F2D015C2F20005E8B120460221022626
:10408000FDF716F9B8B120460421FDF711F988B102
:104090004FF090400121FDF70BF988B168780026B8
:1040A0002E7058B1E9880B2908D328440121002635
:1040B000417003E0032668782E7030B16E7070BDD9
:1040C000042668782E700028F8D10020E8806E70F1
:1040D00070BD000040F21841C4F600010A6942F4C4
:1040E00000720A610A6942F480720A610A6842F049
:1040F00020020A602022C1F8FC230A6942F0200253
:104100000A6100BF00BF00BF0A6842F020020A60D7
:104110000A6842F480720A600022C1F8FC230B692D
:1041200043F020030B6100BF00BF00BF0B6843F0EA
:1041300020030B600B6843F480730B600B6943F43E
:1041400000730B610B6943F480730B610B6843F0E0
:1041500020030B602123C1F8FC330B6943F02003DB
:104160000B6100BF00BF00BF0B6843F020030B6072
:104170000B6843F480730B60C1F8FC230A6942F0BA
:1041800020020A6100BF00BF00BF0A6842F020029F
:104190000A600A6842F480720A600A6942F4007296
:1041A0000A610A6942F480720A610A6842F02002D8
:1041B0000A602222C1F8FC230A6942F020020A6147
:1041C00000BF00BF00BF0A6842F020020A600A6810
:1041D00042F480720A6000BF00BF00BF0A6842F468
:1041E00000720A604FF496320B69053A43F400738B
:1041F0000B610B6843F480730B600B6843F0200382
:104200000B60C1F8FC030B6943F020030B6100BF96
:1042100000BF00BF0B6843F020030B600B6843F442
:1042200080730B6000BF00BF00BF0B6843F40073D6
:104230000B600B6943F400730B610B6843F48073EC
:104240000B600B6843F020030B60C1F8FC030B69A3
:1042500043F020030B6100BF00BF00BF0B6843F0B9
:1042600020030B600B6843F480730B6000BF00BF3A
:1042700000BF0B6843F400730B600B6943F40073D9
:104280000B610B6843F480730B600B6843F02003F1
:104290000B60C1F8FC030B6943F020030B6100BF06
:1042A00000BF00BF0B6843F020030B600B6843F4B2
:1042B00080730B6000BF00BF00BF0B6843F4007346
:1042C0000B600B6943F400730B610B6843F480735C
:1042D0000B600B6843F020030B60C1F8FC030B6913
:1042E00043F020030B6100BF00BF00BF0B6843F029
:1042F00020030B600B6843F480730B6000BF00BFAA
:1043000000BF0B6843F400730B600B6943F4007348
:104310000B610B6843F480730B600B6843F0200360
:104320000B60C1F8FC030B6943F020030B6100BF75
:1043300000BF00BF0B6843F020030B600B6843F421
:1043400080730B6000BF00BF00BF0B6843F40073B5
:104350000B607FF449AF70472DE9F0410A78FAB15C
:1043600049F2FC4804464D1C002740F23F16C0F6B7
:10437000000800BFA2F12000C1B2490051FA80F04C
:1043800008EB0012B1B2204600F00CF8EA5D002AFA
:1043900008BFBDE8F081103E132F07F10107E9D3F4
:1043A000BDE8F0812DE9F04740F21843C4F6000360
:1043B0001F694FF0200C47F400771F611F694FF011
:1043C000210E47F480771F611F6840F2240947F0EF
:1043D00020071F60C3F8FCC31F6940F2EA0A47F0D8
:1043E00020071F6100BF00BF00BF1F684FF02208F9
:1043F00047F020071F601F68C2F2000947F480776A
:104400001F60C3F8FC031F69C2F2000A47F02007CF
:104410001F6100BF00BF00BF1F6847F020071F607B
:104420001F6847F480771F601F6947F400771F619A
:104430001F6947F480771F611F6847F020071F60DE
:10444000C3F8FCE31C6944F020041C6100BF00BFFA
:1044500000BF1C6844F020041C601C6844F4807495
:104460001C60C3F8FC131C6944F020041C6100BFED
:1044700000BF00BF1C6844F020041C601C6844F4AA
:1044800080741C60002400BF1D6945F400751D6127
:104490001D6945F480751D611D6845F020051D608E
:1044A000C3F8FC831D6945F020051D6100BF00BFF6
:1044B00000BF1D6845F020051D601D6845F480752E
:1044C0001D6000BF00BF00BF1D6845F400751D6082
:1044D000002500BF32F81460EE40F607564608BFCC
:1044E0004E4636881F6947F400771F611F6847F4FE
:1044F00080771F601F6847F020071F60C3F8FC63C8
:104500001E6946F020061E6100BF00BF00BF1E6886
:1045100046F020061E601E6846F480761E6000BFCE
:1045200000BF00BF1E6846F400761E6032F81460BB
:10453000EE40B607564658BF4E4636881F6947F4C8
:1045400000771F611F6847F480771F601F6847F07E
:1045500020071F60C3F8FC631E6946F020061E6139
:1045600000BF00BF00BF1E6846F020061E601E6828
:1045700046F480761E6000BF00BF00BF1E6846F490
:1045800000761E6032F81460EE407607564658BF3B
:104590004E4636881F6947F400771F611F6847F44D
:1045A00080771F601F6847F020071F60C3F8FC6317
:1045B0001E6946F020061E6100BF00BF00BF1E68D6
:1045C00046F020061E601E6846F480761E6000BF1E
:1045D00000BF00BF1E6846F400761E6032F814600B
:1045E000EE403607564658BF4E4636881F6904359A
:1045F00047F400771F611F68102D47F480771F6014
:104600001F6847F020071F60C3F8FC631E6946F06F
:1046100020061E6100BF00BF00BF1E6846F02006D6
:104620001E601E6846F480761E6000BF00BF00BF9B
:104630001E6846F400761E607FF44CAF1D690130A1
:1046400045F400751D611D69013445F480751D61D7
:104650001D68182C45F020051D60C3F8FCC31D69BA
:1046600045F020051D6100BF00BF00BF1D6845F07B
:1046700020051D601D6845F480751D60C5B2C3F836
:10468000FC531D6945F020051D6100BF00BF00BF40
:104690001D6845F020051D601D6845F480751D608E
:1046A0001D6945F400751D611D6945F480751D6126
:1046B0001D6845F020051D60C3F8FCE31D6945F049
:1046C00020051D6100BF00BF00BF1D6845F020052B
:1046D0001D601D6845F480751D60C3F8FC131D69DD
:1046E00045F020051D6100BF00BF00BF1D6845F0FB
:1046F00020051D601D6845F480751D6008BFBDE87C
:10470000F087C1E62DE9F04F8BB0002641F24C0056
:104710000596C4F20200016840F2184541F0040118
:1047200001600168C4F6000501F0040106910699D4
:10473000016801AC41F001010160016840F6140913
:1047400001F001010691069901684FF0030841F05C
:10475000020101600068214600F002000690069800
:104760004FF44870019001200290A5F11800C4F6A2
:1047700000090127CDE90368FCF7C4FC4FF4807001
:10478000CDE901074FF090402146CDE90368FCF7E1
:10479000B9FC4FF6FF7005F57A74069006A920461D
:1047A0000A964FF6FF7BCDF82480CDE90776FCF71B
:1047B000A9FC4FF6004ACFF6FF7A55F80A0006A981
:1047C00040F4807045F80A0028684FF6FF7740F4FF
:1047D00008702860286940F400702861286940F456
:1047E00080702861286840F020002860C9F80060C7
:1047F000286940F02000286100BF00BF00BF286882
:1048000040F020002860286840F48070286020462E
:104810000A96CDF818B0CDF82480CDE90766FCF7EC
:1048200071FC4FF6104BCFF6FF7B55F80B0007A934
:1048300040F4807045F80B0000BF00BF00BFD5F802
:10484000F89355F80A0040F4807045F80A000120FA
:1048500081E8410106A920460A960697FCF752FC1A
:10486000286848F2302140F40070286040F2EC00E3
:10487000C2F20000A0F800900088884202D100F047
:10488000C9F901E000F03AFF2869002740F4007000
:10489000286128694FF6FF7840F480702861286805
:1048A0004FF0030940F02000286040F61400C4F6E1
:1048B00000000760286906A940F02000286100BFB9
:1048C00000BF00BF286840F020002860286840F43E
:1048D0008070286020460A97CDE90687CDE90879DF
:1048E000FCF710FC55F80B0007A940F4807045F860
:1048F0000B0000BF00BF00BFD5F8F86355F80A00F1
:1049000040F4807045F80A00012081E8810206A980
:1049100020460A97CDF81880FCF7F4FB286840F48D
:104920000070286040F2EC00C2F2000006800BB07C
:10493000BDE8F08F81B0ADF80200BDF8020040F292
:104940002401C2F20001088001B0704781B0ADF8C7
:104950000200BDF8020040F2EA01C2F20001088044
:1049600001B0704710B540F2D810C2F200000078D4
:104970004FF6144140F600446FEA0020CFF6FF7175
:10498000C4F600046050204604210122FCF796FC86
:10499000204604210022BDE81040FCF78FBC000037
:1049A0002DE9F04387B0002741F24C000697C4F28E
:1049B0000200016840F6000541F004010160016851
:1049C000C4F6000501F0040101910199016801227A
:1049D00041F02001016001684FF47F4601F02001A1
:1049E0000191019901684FF0010841F00101016056
:1049F000016801F0010101910199016841F0020192
:104A00000160016801F0020101910199016841F022
:104A10000801016000684FF47F4100F00800019038
:104A200001982846FCF74AFC05F5806420460421DD
:104A300000224FF00409FCF741FCCDE9026802AE08
:104A400028463146CDE90477FCF75CFB4FF09040F7
:104A50003146CDE902870497FCF754FB0720CDE9E6
:104A60000207A5F5806031460497FCF74BFB204612
:104A70003146CDE90298CDE90477FCF743FB07B056
:104A8000BDE8F08310B594B040F2F0000021C2F20E
:104A900000004FF0FF340E91CDE90C11CDE9091162
:104AA000CDE90711CDE90511CDE90311CDE90111DA
:104AB0004FF080424F23C0E9021401618021C0E918
:104AC00000238161FDF73CFB002818BFFCF78AFA40
:104AD0004FF480500B9040F2F000C2F200000BA99E
:104AE000FDF778FB002818BFFCF77CFA40F2F000D5
:104AF000C2F20000FDF756FE002818BFFCF772FA5C
:104B000040F2F0000024C2F2000008A908940A94C0
:104B1000FDF7C4FA002818BFFCF764FA6020CDE95D
:104B200001040394059440F2F004C2F2000401A9C8
:104B300020460422FDF74EFC002818BFFCF752FA6D
:104B40002068B0F1804F01D014B010BD41F24C008C
:104B5000C4F20200016841F00101016000680FA980
:104B600000F001000F900F980220CDE90F00002007
:104B7000CDE91100012013904FF09040FCF7C2FAEC
:104B800014B010BD80B540F23C1043F60001C2F2F3
:104B90000000C4F2010100234FF00C0C4FF4165238
:104BA00080E80E00C0E90333C0E905C3C0E907335C
:104BB000C0E90933FEF7CCFA002818BFFCF712FA57
:104BC00040F23C10C2F200000021FDF749FF00282E
:104BD00018BFFCF707FA40F23C10C2F200000021B7
:104BE000FDF7F8FE002818BFFCF7FCF940F23C1076
:104BF000C2F20000FDF7CEFE002808BF80BDBDE870
:104C00008040FCF7EFB90000FEE70000FEE700007F
:104C10007047000040F21840C4F60000016900220D
:104C200041F40071016101694FF0030C41F480719E
:104C30000161016841F020010160C0F8FC230169B5
:104C400041F02001016100BF00BF00BF016841F0D9
:104C500020010160016841F4807101600121C0F808
:104C6000FC13036943F02003036100BF00BF00BFD2
:104C7000036843F020030360036843F48073036018
:104C8000036943F400730361036943F480730361B0
:104C9000036843F020030360C0F8FC13036943F08A
:104CA0002003036100BF00BF00BF036843F020037F
:104CB0000360036843F480730360C0F8FC23026957
:104CC00042F02002026100BF00BF00BF026842F054
:104CD00020020260026842F480720260026942F4BB
:104CE00000720261026942F480720261026842F05D
:104CF000200202601022C0F8FC23026942F0200268
:104D0000026100BF00BF00BF026842F020020260E3
:104D1000026842F48072026041F29072C0F8FC2393
:104D2000026942F02002026100BF00BF00BF0268BA
:104D300042F020020260026842F48072026002695E
:104D400042F400720261026942F4807202610268F8
:104D500042F0200202606022C0F8FC23026942F0A7
:104D60002002026100BF00BF00BF026842F02002C3
:104D70000260026842F4807202604FF41C52C0F874
:104D8000FC23026942F02002026100BF00BF00BFA5
:104D9000026842F020020260026842F480720260FF
:104DA000026942F400720261026942F48072026197
:104DB000026842F0200202606122C0F8FC2302690E
:104DC00042F02002026100BF00BF00BF026842F053
:104DD00020020260026842F480720260C0F8FC1394
:104DE000016941F02001016100BF00BF00BF0168FF
:104DF00041F020010160016841F4807101600169A6
:104E000041F400710161016941F48071016101683F
:104E100041F0200101604621C0F8FC13016941F016
:104E20002001016100BF00BF00BF016841F0200107
:104E30000160016841F4807101600221C0F8FC1337
:104E4000026942F02002026100BF00BF00BF026899
:104E500042F020020260026842F48072026002693D
:104E600042F400720261026942F4807202610268D7
:104E700042F0200202601322C0F8FC23026942F0D3
:104E80002002026100BF00BF00BF026842F02002A2
:104E90000260026842F48072026048F21002C0F8B8
:104EA000FC23026942F02002026100BF00BF00BF84
:104EB000026842F020020260026842F480720260DE
:104EC000026942F400720261026942F48072026176
:104ED000026842F0200202601222C0F8FC2302693C
:104EE00042F02002026100BF00BF00BF026842F032
:104EF00020020260026842F48072026048F2FE0200
:104F0000C0F8FC23026942F02002026100BF00BF2A
:104F100000BF026842F020020260026842F4807220
:104F20000260026942F400720261026942F4807216
:104F30000261026842F020020260C0F8FC130169BD
:104F400041F02001016100BF00BF00BF016841F0D6
:104F500020010160016841F4807101604FF4A0619B
:104F6000C0F8FC13016941F02001016100BF00BFDE
:104F700000BF016841F020010160016841F48071C7
:104F80000160016941F400710161016941F48071BE
:104F90000161016841F020010160C0F8FCC30269B1
:104FA00042F02002026100BF00BF00BF026842F071
:104FB00020020260026842F48072026041F2300214
:104FC000C0F8FC23026942F02002026100BF00BF6A
:104FD00000BF026842F020020260026842F4807260
:104FE0000260026942F400720261026942F4807256
:104FF0000261026842F0200202603022C0F8FC2305
:10500000026942F02002026100BF00BF00BF0268D7
:1050100042F020020260026842F48072026040F2B4
:105020000332C0F8FC23036943F02003036100BF8F
:1050300000BF00BF036843F020030360036843F42C
:1050400080730360036943F400730361036943F4ED
:1050500080730361036843F0200303603123C0F8C9
:10506000FC33036943F02003036100BF00BF00BFAE
:10507000036843F020030360036843F48073036014
:10508000C0F8FC23036943F02003036100BF00BFA5
:1050900000BF036843F020030360036843F4807398
:1050A0000360036943F400730361036943F480738D
:1050B0000361036843F0200303603223C0F8FC332C
:1050C000036943F02003036100BF00BF00BF036812
:1050D00043F020030360036843F480730360C0F867
:1050E000FC23036943F02003036100BF00BF00BF3E
:1050F000036843F020030360036843F48073036094
:10510000036943F400730361036943F4807303612B
:10511000036843F0200303603323C0F8FC330369C2
:1051200043F02003036100BF00BF00BF036843F0EA
:1051300020030360036843F4807303604FF44073FB
:10514000C0F8FC33016941F02001016100BF00BFDC
:1051500000BF016841F020010160016841F48071E5
:105160000160016941F400710161016941F48071DC
:105170000161016841F0200101603421C0F8FC1395
:10518000016941F02001016100BF00BF00BF01685B
:1051900041F020010160016841F480710160C0F8B4
:1051A000FCC3016941F02001016100BF00BF00BFE5
:1051B000016841F020010160016841F480710160E3
:1051C000016941F400710161016941F4807101617B
:1051D000016841F0200101603521C0F8FC1301692C
:1051E00041F02001016100BF00BF00BF016841F034
:1051F00020010160016841F480710160C0F8FC2366
:10520000016941F02001016100BF00BF00BF0168DA
:1052100041F020010160016841F480710160016981
:1052200041F400710161016941F48071016101681B
:1052300041F0200101603621C0F8FC13016941F002
:105240002001016100BF00BF00BF016841F02001E3
:105250000160016841F4807101601421C0F8FC1301
:10526000016941F02001016100BF00BF00BF01687A
:1052700041F020010160016841F480710160016921
:1052800041F400710161016941F4807101610168BB
:1052900041F0200101603721C0F8FC13016941F0A1
:1052A0002001016100BF00BF00BF016841F0200183
:1052B0000160016841F480710160C0F8FC2301695C
:1052C00041F02001016100BF00BF00BF016841F053
:1052D00020010160016841F480710160016941F4BD
:1052E00000710161016941F480710161016841F05F
:1052F000200101603821C0F8FC13016941F0200150
:10530000016100BF00BF00BF016841F020010160E2
:10531000016841F480710160C0F8FC23016941F02B
:105320002001016100BF00BF00BF016841F0200102
:105330000160016841F480710160016941F400710C
:105340000161016941F480710161016841F020014E
:1053500001603921C0F8FC13016941F020010161AD
:1053600000BF00BF00BF016841F02001016001687B
:1053700041F480710160C0F8FC23016941F0200113
:10538000016100BF00BF00BF016841F02001016062
:10539000016841F480710160016941F400710161AB
:1053A000016941F480710161016841F020010160EF
:1053B0003A21C0F8FC13016941F02001016100BFEE
:1053C00000BF00BF016841F020010160016841F4A5
:1053D00080710160C0F8FC33016941F02001016176
:1053E00000BF00BF00BF016841F0200101600168FB
:1053F00041F480710160016941F40071016101694A
:1054000041F480710161016841F0200101603B219C
:10541000C0F8FC13016941F02001016100BF00BF29
:1054200000BF016841F020010160016841F4807112
:105430000160C0F8FCC3016941F02001016100BFB7
:1054400000BF00BF016841F020010160016841F424
:1054500080710160016941F400710161016941F4E9
:1054600080710161016841F0200101603C21C0F8B8
:10547000FC13016941F02001016100BF00BF00BFC2
:10548000016841F020010160016841F48071016010
:10549000C0F8FC23016941F02001016100BF00BF99
:1054A00000BF016841F020010160016841F4807192
:1054B0000160016941F400710161016941F4807189
:1054C0000161016841F0200101603D21C0F8FC1339
:1054D000016941F02001016100BF00BF00BF016808
:1054E00041F020010160016841F4807101604FF4D6
:1054F000A051C0F8FC13016941F02001016100BF17
:1055000000BF00BF016841F020010160016841F463
:1055100080710160016941F400710161016941F428
:1055200080710161016841F0200101609221C0F8A1
:10553000FC13016941F02001016100BF00BF00BF01
:10554000016841F020010160016841F4807101604F
:105550004FF40071C0F8FC13016941F020010161B2
:1055600000BF00BF00BF016841F020010160016879
:1055700041F480710160016941F4007101610169C8
:1055800041F480710161016841F0200101609321C3
:10559000C0F8FC13016941F02001016100BF00BFA8
:1055A00000BF016841F020010160016841F4807191
:1055B0000160C0F8FC23016941F02001016100BFD6
:1055C00000BF00BF016841F020010160016841F4A3
:1055D00080710160016941F400710161016941F468
:1055E00080710161016841F0200101609021C0F8E3
:1055F000FC13016941F02001016100BF00BF00BF41
:10560000016841F020010160016841F4807101608E
:1056100040F60D01C0F8FC13016941F02001016161
:1056200000BF00BF00BF016841F0200101600168B8
:1056300041F480710160016941F400710161016907
:1056400041F480710161016841F020010160C0F8FE
:10565000FCC3016941F02001016100BF00BF00BF30
:10566000016841F020010160016841F4807101602E
:1056700041F21801C0F8FC13016941F020010161F9
:1056800000BF00BF00BF016841F020010160016858
:1056900041F480710160016941F4007101610169A7
:1056A00041F480710161016841F02001016007212E
:1056B000C0F8FC13016941F02001016100BF00BF87
:1056C00000BF016841F020010160016841F4807170
:1056D000016040F27311C0F8FC13016941F0200130
:1056E000016100BF00BF00BF016841F020010160FF
:1056F000016841F480710160704700002DE9F04FAE
:1057000081B040F21844C4F6000420694FF0120939
:1057100040F4007020612069002540F48070206111
:105720002068112640F020002060E320C4F8FC032C
:1057300020694FF0130B40F02000206100BF00BF34
:1057400000BF2068102740F02000206020684FF044
:10575000070840F48070206043F20800C4F8FC039E
:10576000206940F02000206100BF00BF00BF20681A
:1057700040F020002060206840F4807020602069A4
:1057800040F400702061206940F48070206120683E
:1057900040F020002060E720C4F8FC03206940F0BE
:1057A0002000206100BF00BF00BF206840F0200043
:1057B0002060206840F480702060C4F8FC93206969
:1057C00040F02000206100BF00BF00BF206840F013
:1057D00020002060206840F480702060206940F440
:1057E00000702061206940F480702061206840F0E2
:1057F00020002060EF20C4F8FC03206940F0200066
:10580000206100BF00BF00BF206840F02000206082
:10581000206840F48070206041F23120C4F8FC031D
:10582000206940F02000206100BF00BF00BF206859
:1058300040F020002060206840F4807020602069E3
:1058400040F400702061206940F48070206120687D
:1058500040F0200020600120C4F8FC03206940F0E3
:105860002000206100BF00BF00BF206840F0200082
:105870002060206840F480702060C4F8FC532069E8
:1058800040F02000206100BF00BF00BF206840F052
:1058900020002060206840F480702060206940F47F
:1058A00000702061206940F480702061206840F021
:1058B000200020600220C4F8FC03206940F0200092
:1058C000206100BF00BF00BF206840F020002060C2
:1058D000206840F4807020604FF4E060C4F8FC035E
:1058E000206940F02000206100BF00BF00BF206899
:1058F00040F020002060206840F480702060206923
:1059000040F400702061206940F4807020612068BC
:1059100040F0200020600320C4F8FC03206940F020
:105920002000206100BF00BF00BF206840F02000C1
:105930002060206840F48070206041F23000C4F89C
:10594000FC03206940F02000206100BF00BF00BFC1
:10595000206840F020002060206840F480702060C3
:10596000206940F400702061206940F4807020615B
:10597000206840F0200020600420C4F8FC03206967
:1059800040F02000206100BF00BF00BF206840F051
:1059900020002060206840F480702060C4F8FC5330
:1059A000206940F02000206100BF00BF00BF2068D8
:1059B00040F020002060206840F480702060206962
:1059C00040F400702061206940F4807020612068FC
:1059D00040F0200020600820C4F8FC03206940F05B
:1059E0002000206100BF00BF00BF206840F0200001
:1059F0002060206840F48070206040F20720C4F8E6
:105A0000FC03206940F02000206100BF00BF00BF00
:105A1000206840F020002060206840F48070206002
:105A2000206940F400702061206940F4807020619A
:105A3000206840F0200020600920C4F8FC032069A1
:105A400040F02000206100BF00BF00BF206840F090
:105A500020002060206840F480702060C4F8FC536F
:105A6000206940F02000206100BF00BF00BF206817
:105A700040F020002060206840F4807020602069A1
:105A800040F400702061206940F48070206120683B
:105A900040F0200020600A20C4F8FC03206940F098
:105AA0002000206100BF00BF00BF206840F0200040
:105AB0002060206840F480702060C4F8FC532069A6
:105AC00040F02000206100BF00BF00BF206840F010
:105AD00020002060206840F480702060206940F43D
