:020000040800F2
:100000006808002089020008793A0008352E0008A7
:10001000753A0008F90600086D6600080000000047
:10002000000000000000000000000000895A0008E5
:1000300015070008000000007D3A00088D5A0008EE
:10004000A3020008A3020008A3020008A3020008FC
:10005000A3020008A3020008A3020008A3020008EC
:10006000A3020008A3020008A3020008FD0600087E
:1000700009070008A3020008A3020008A302000861
:10008000A302000800000000A3020008A302000869
:10009000A3020008A3020008A3020008A3020008AC
:1000A000A3020008A3020008A3020008A30200089C
:1000B000A3020008A3020008A3020008A30200088C
:1000C000A3020008A3020008A3020008A30200087C
:1000D000A302000861660008A3020008A30200084A
:1000E000A3020008A3020008A3020008A30200085C
:1000F000A3020008A3020008A302000800000000F9
:1001000000000000A302000800000000A302000895
:10011000A302000800000000A3020008A3020008D8
:10012000A3020008A3020008A3020008A30200081B
:10013000A30200080000000000000000A302000865
:10014000A3020008A3020008000000000000000055
:10015000000000000000000000000000000000009F
:10016000000000000000000000000000A3020008E2
:10017000A3020008000000000000000000000000D2
:1001800000000000A30200080000000000000000C2
:10019000000000000000000000000000000000005F
:1001A0000000000000000000A3020008A3020008F5
:1001B000A3020008A3020008A30200080000000038
:1001C00000000000A3020008000000000000000082
:1001D000A3020008A302000800F002F800F044F8AF
:1001E0000AA090E8000C82448344AAF10107DA4592
:1001F00001D100F039F8AFF2090EBAE80F0013F0A0
:10020000010F18BFFB1A43F0010318471C780000C8
:100210003C780000103A24BF78C878C1FAD8520759
:1002200024BF30C830C144BF04680C607047000070
:100230000023002400250026103A28BF78C1FBD8EF
:10024000520728BF30C148BF0B607047642900F0D7
:100250002581632900F00982002070471FB506F050
:100260009BFA1FBD10B510BD00F00BFA1146FFF749
:10027000F5FF06F0FDF900F029FA03B4FFF7F2FFED
:1002800003BC00F031FA00000948804709480047E4
:10029000FEE7FEE7FEE7FEE7FEE7FEE7FEE7FEE736
:1002A000FEE7FEE704480549054A064B7047000093
:1002B000B15A0008D901000868020020680800202F
:1002C000680400206804002053EA020C00F06980F2
:1002D0002DE9F04B4FF00006002B1FBFB3FA83F55A
:1002E00003FA05F424FA05F65E4012BF1643B2FA8B
:1002F00082F502FA05F4C5F120051EBF22FA05FCBD
:1003000044EA0C04203556EA044C4FEA144418BF62
:10031000641C4FF000084FF00009904271EB030C91
:1003200039D3002919BFB1FA81F701FA07F6B0FAFB
:1003300080F700FA07F6C7F120071EBF20FA07FC76
:1003400046EA0C062037B6FBF4FCA7EB0507103F86
:1003500007F01F0BCBF120062CFA06F60CFA0BFB6C
:1003600044BFB3460026202FA4BF5E464FF0000BCB
:100370005BEA060C08BF4FF0010B19EB0B0948EBC9
:100380000608ABFB027C06FB02CC0BFB03CCC01BBC
:1003900071EB0C01C1E70B46024641464846BDE8F9
:1003A000F08B13B5084318BF4FF0FF300146AFF391
:1003B0000080BDE81C4070470FB41CB5074B06AA6F
:1003C0007B4469460090059800F02DF900206946AD
:1003D00000F03CF91CBC5DF814FB00008902000031
:1003E0002DE9F0410E460446002020622046E168D7
:1003F000884730B3252805D0D4E901219047206AE9
:10040000401CF2E7E168204600278847050018D025
:10041000A5F14100192802D820354FF40067324673
:10042000294620462760FFF711FF40B1012804D07C
:10043000F61D26F007060836D8E7361DD6E728460B
:10044000DAE7206ABDE8F08170B50C460546012A5E
:1004500005D02878800600D5EA69002302E0012350
:1004600005E05B1C934202D2E05C0028F9D1A86948
:10047000E618C01AA861286A184428622846AFF313
:10048000008004E0D5E9012114F8010B9047B44243
:10049000F8D32846AFF3008070BD00002DE9F0418D
:1004A0000646002410687529314616A510D0AFF312
:1004B0000080002802DA404213A507E031688A076D
:1004C00001D512A502E0490704D511A5012401E0D8
:1004D000AFF3008000210A2206F1240709E0B0FBF7
:1004E000F2FCB0FBF2F302FB1C00303078541846EB
:1004F000491C0028F3D123462A463046BDE8F04186
:1005000000F032B8000000002D0000002B000000B9
:10051000200000004FF0000200B5134694469646B6
:10052000203922BFA0E80C50A0E80C50B1F1200106
:10053000BFF4F7AF090728BFA0E80C5048BF0CC0B4
:100540005DF804EB890028BF40F8042B08BF704712
:1005500048BF20F8022B11F0804F18BF00F8012B84
:1005600070477047704770472DE9F0470D46994630
:100570009246044600F124080168880604D5E06923
:1005800021F01001216000E00120A84201DD471B9D
:1005900000E00027A1697A1902EB0900081AA0619E
:1005A0002078C00602D42046AFF30080002608E081
:1005B000D4E901211AF806009047206A401C761CF5
:1005C00020624E45F4DB2078C0060AD52046AFF302
:1005D000008006E0D4E9012130209047206A401CC9
:1005E0002062381EA7F10107F4DC07E0D4E90121FD
:1005F00018F805009047206A401C2062281EA5F1CB
:100600000105F3DC2046AFF300802078000602D518
:100610000220BDE8F0870120FBE7000001694A1CC9
:1006200002610878704700B58FB0CDE90131002133
:10063000059105497944CDE9031011466846FFF755
:10064000CFFE0FB000BD0000E5FFFFFF0A6802F813
:10065000010B0A60704710B5436913B1AFF3008016
:1006600001E0FFF7F1FE012010BD127800F1240136
:100670000A7000224A700122EDE711684FF0FF3244
:10068000E9E7754600F02CF8AE460500694653468A
:1006900020F00700854618B020B5FFF703FEBDE83F
:1006A00020404FF000064FF000074FF000084FF0D9
:1006B000000BAC46ACE8C009ACE8C009ACE8C00926
:1006C000ACE8C00921F007018D46704710B504461B
:1006D000AFF300802046BDE81040FFF7CEBD00001C
:1006E000004870471800002001491820ABBEFEE703
:1006F0002600020070470000FEE7000040F20810EC
:10070000C2F2000000F0C4BB40F26810C2F2000068
:1007100000F0BEBB70470000EFF3108072B600BF60
:10072000FEE70000F0B581B00022009290F858205A
:10073000012A03D10221084601B0F0BD0123076858
:1007400080F85830BB685B0736D4D1E900531F26C8
:10075000C3F3012407EB8404226B03F01F039E40C4
:10076000B243C5F3846606FA03F31A432263BA68F8
:10077000BB6802F0040203F00803D21840F0BD8009
:100780000A6807F114030426C2F34064D1F808E0B4
:1007900006EAD25C53F82450C2F304540722A24064
:1007A000BEF1004F25EA02050CD143F80C501A683F
:1007B00042F000430EE000BFC16D41F02001C16571
:1007C000012182E10EFA04F22A4343F80C201A6850
:1007D00022F000437B61D1E90434FD68042B5FD132
:1007E0003A6E3A6E0B68C2F3846293FAA3F6C3F3CF
:1007F000846C6FF3DF43B6FA86F5002B2C464FF678
:10080000FF7E08BF6446A242C0F2070E0CD13A6ECA
:1008100022F000423A660A6802EA0E03C2F3846CD0
:1008200092FAA2F2B2FA82F57A6E7A6E002BC2F3D5
:1008300084622C4608BF6446A2420CD17A6E22F034
:1008400000427A660A6802EA0E03C2F3846C92FAE6
:10085000A2F2B2FA82F5BA6EBA6E002BC2F38462CB
:100860002C4608BF6446A2420CD1BA6E22F0004268
:10087000BA660A6802EA0E03C2F3846C92FAA2F224
:10088000B2FA82F5FA6EFA6E002BC2F3846208BFE8
:100890006546AA4231D1FA6E22F00042FA662CE097
:1008A000062202EA95020E6807F1600504FA02FCCE
:1008B00055F823404FF20002C0F2FF3206F0F8462E
:1008C000224046EA0C06324342F0004245F823201B
:1008D0000A698B6955F8226026F08076334345F823
:1008E00022300A690B7F55F82260012B26F0007632
:1008F00008BF06F1007645F82260BA68D20750D1E9
:100900000C68CA68D7F8B06023466FF3DF4326EA65
:10091000030C4FF6FF7602F01805C0F20706EE4012
:1009200000252640C4F27F0546EA0C06AA42C7F815
:10093000B06036D193B194FAA4F2B2FA82F20132E5
:1009400002F01E03092B02F01F0310D801229A4067
:1009500003EB430342EA035315E000BF012202EB1D
:10096000946202F01E030A2B02F01F03EED3012251
:1009700000269A4003EB4303CFF6206606EB0353B1
:100980001A4342F00073C3F3406607EB86068A6899
:100990007569C3F3045307249C40A5439A402A4336
:1009A000726109680022C8F20802114254D040F274
:1009B000083CC5F2000CDCF800300022CCF22132F9
:1009C000914203F0E07404D01022C9F2C0029142B7
:1009D00044D119024FF0000177D4B7F1A04F74D180
:1009E000DCF8001042F6635221F0E071214341F43B
:1009F0000001CCF8001040F20C01C2F200010968BD
:100A0000C0F23E528909A1FB0212910901EB41019A
:100A10000C2202EB81010091009900293CD000BF1B
:100A20000099013900910099002947D000990139B6
:100A300000910099002943D0009901390091009953
:100A400000293FD0009901390091009900294FF009
:100A50000001E5D139E000BF002136E00022CCF2F0
:100A60005272914208BF13F0807217D00022CCF668
:100A7000843291424FF0000108BF13F4800224D168
:100A8000ACF50272974220D0DCF8001021F0E07142
:100A9000214341F480010CE0002116E0ACF5027125
:100AA0008F4211D0DCF8001021F0E071214341F0B9
:100AB0008071CCF80010002107E000BF002104E0A5
:100AC000002102E0002100E00021002280F85820EF
:100AD000084601B0F0BD0000B0B582B00446002069
:100AE00001904CB1E06D58B121688868800012D443
:100AF0008868C00019D54CE0012002B0B0BD00BF2D
:100B0000204600F009F90020206684F8580021688A
:100B100088688000ECD588684FF6C072C5F6FF7211
:100B2000104088608868C00033D44FF6C07288686F
:100B3000C5F6FF7202F18052104000F180508860CB
:100B400040F20C00C2F20000006842F663528009D5
:100B5000C0F23E52A0FB02029009022202EB4000CA
:100B600001900198A8B100BF019801380190019847
:100B700078B1019801380190019850B1019801387D
:100B80000190019828B1019801380190019800283E
:100B9000EAD18868C00009D4E06D40F01000E0653B
:100BA000206E40F001002066012000E000208A68ED
:100BB000E36D02F0040203F01003D218E26D71D16C
:100BC00022F481720232E2658A68D2071AD140F2B9
:100BD000083C4FF600534FF60062C5F2000CCFF60A
:100BE000FF73CFF6FF725CF803305CF802201A4303
:100BF000D20707D16268DCF8003023F47C131A4373
:100C0000CCF80020627FE36B43EA4232D4E902C3AE
:100C10001A4394F8243042EA0C02012B42EA0342C0
:100C200007D1D4F828C00023CFF6FE7303EB4C4362
:100C30001A43E36A33B1D4F830C003F4787343EA5B
:100C40000C031A43D1F80CC044F20703CFF6F0733B
:100C500003EA0C031A43CA600A69636B22F040621C
:100C60001A430A618A68120745D494F83820237F12
:100C7000520042EA833CCB6844F2020223EA0202B9
:100C800042EA0C02CA6022690B698AB143F48033DC
:100C90000B61D1F8C0C043F6FF732CEA03031A437B
:100CA0000EE000BF42F010010120E16502B0B0BDCE
:100CB00023F480320A61D1F8C02043F6FF739A43CF
:100CC000C1F8C02094F840300A69012B10D140F2DD
:100CD000FD7322EA030CD4E91132D4E913E543EAA7
:100CE0000C031A4342EA0E022A4342F0010201E0D9
:100CF00022F001020A6162690B6B012A23F00F02E4
:100D000002D1236A013B1A430A63E16D012262F3B7
:100D10000101E16502B0B0BD10B598B004460020F5
:100D2000CDE9160002A804304021FFF7F3FB20684C
:100D300040F20011C5F20001884201D018B010BD88
:100D40004FF000504FF40044119002A8029400F0BC
:100D500045FC002818BFFFF7DFFC41F24C00C4F24D
:100D60000200016841F400510160016801F4005182
:100D700001910199016841F002010160006813A925
:100D800000F00200019001980320149000201590BB
:100D900040F20040C4F60000139400F0EBF918B0E4
:100DA00010BD000080B5014690F82500022825D12D
:100DB0000868D1E910CE8A6C036823F00E03036043
:100DC000136823F480731360026822F0010202604A
:100DD0000EF01F00012202FA00F0CCF80400D1E965
:100DE00013205060486D68B1026822F4807202607E
:100DF000D1E916024260002005E000BF0420C8636C
:100E0000012000E00020012281F82520002281F845
:100E1000242080BD80B590F8251002292ED10168CC
:100E2000D0E910CE826C0B6823F00E030B600B68C8
:100E300023F001030B60116821F4807111600EF042
:100E40001F02012101FA02F2CCF80420D0E913328A
:100E50005A60426D32B1136823F480731360D0E995
:100E60001623536080F82510826B002180F824102F
:100E70000AB190470021084680BD00BF0421C1632C
:100E80000121002280F8251080F82420084680BD2A
:100E9000B0B5D0E910C30268DCF8001003F01F03FE
:100EA0000424D2F800E09C400C4218BF1EF0040558
:100EB00022D102249C400C4218BF1EF0020529D109
:100EC000D940090724D51EF0080108BFB0BD11683C
:100ED00021F00E011160012101FA03F2CCF8042087
:100EE000C16380F82510416B002280F8242079B17D
:100EF000BDE8B040084700BF1168890603D41168F7
:100F000021F004011160CCF80440016B0029EFD1FD
:100F1000B0BD00BF1168890606D4116821F00A012E
:100F20001160012180F82510CCF80440C16A00222C
:100F3000002980F82420DBD1EAE7000000284FF0E8
:100F4000010100F08E802DE9F04740F2000CC4F260
:100F5000020C03684FF6F8320CF5816ECBF6FD7289
:100F6000734538BF02F580624CF6CD441A44CCF686
:100F7000CC44A2FB042803F0FC02A2F10802A2FB6D
:100F800004290CF580656FF00304D0E90262D0F803
:100F900010A03CBF0025C4F2020504EA9804C0E991
:100FA0001054022580F825501D6847F6F07725EA91
:100FB00007073A43476942EA0A0285693A43C76923
:100FC0002A43056A3A432A4332431A600CF5026207
:100FD000734538BF0CF50062A3180CF50862C264B3
:100FE000C9F3041240F6840C01FA02F2B6F5804F00
:100FF000C4F2020C8364026506D1002141601960CD
:10100000CCF800201EE000BF41685FFA81FE013984
:1010100003294FF00001C3F800E0CCF8002011D8FC
:10102000AEF101020CEB820747F87C1F02F01F01B2
:10103000012202FA01F30CF1BC023946CCF8C030AF
:1010400002E000BF0022002300F1540C8CE80E00E7
:1010500000210122C16380F8252080F82410BDE81A
:10106000F0470846704700002DE9F04190F824C091
:10107000BCF1010F43D04FF0010C80F824C090F870
:1010800025C0BCF1010F37D14FF0020C80F825C00C
:101090004FF0000CC0F83CC0D0F800C000F14C0E7E
:1010A0009EE83040DCF80060BEF1000F26F001063B
:1010B000CCF8006065601CBFD0E916456560D0E9DA
:1010C0001076012506F01F068468B540D0F8308000
:1010D0007D60CCF804300B46102C04BF13460A4642
:1010E000CCF80830CCF80C20DCF80010B8F1000F78
:1010F00008D041F00E010DE0002180F824100220FC
:10110000BDE8F08121F00401CCF80010DCF80010FB
:1011100041F00A01CCF80010806C0168C90303D5C6
:10112000016841F480710160BEF1000F05D0DEF866
:10113000000040F48070CEF80000DCF8000040F0C1
:101140000100CCF800000020BDE8F081B0B50446F5
:1011500000F0F2F8054640F20000C2F200004068DC
:10116000611C18BF044400BF00F0E6F8401BA04219
:10117000FAD3B0BD2DE9F04F82B00D68002D00F01C
:10118000CB8041F2004400F13847C4F60004062247
:101190004FEAB726A04208BF0522052E38BF4FEA06
:1011A000B722002401274FF0000E0026009209E02C
:1011B0000D68013635FA06F20EF1040E04F1020450
:1011C00000F0AA8007FA06FB15EA0B08F0D0D1F868
:1011D00004A003220AF0030CACF10105A240012D8A
:1011E0006FEA020910D88268CD6802EA0902A540B8
:1011F0002A4382604268CAF3001522EA0B02B54016
:101200002A43426006E000BFBCF1030F02D14FF059
:10121000030C21E0C2688D6802EA0902A5402A4356
:10122000BCF1020FC26017D16FF0030202EA56024E
:1012300002440EF01C030F25D2F820C005FA03FA71
:101240000D692CEA0A0C05FA03F343EA0C03136256
:10125000D1F804A00AF0030C02680CFA04F302EAC5
:1012600009021A431AF4403F0260A1D041F2600320
:10127000C4F202031A6840F2004942F001021A6007
:101280001A68C4F2010902F001020192019A26F0E3
:1012900003024FF6084A4A44CFF6FF7A52F80AC0D2
:1012A0000EF00C050F23009FAB402CEA030307FA56
:1012B00005F52B4342F80A30D9F808C04B684CEAD0
:1012C0000805DA0258BF2CEA080540F20C4CC9F8B0
:1012D0000850C4F2010CDCF800209F0242EA080525
:1012E00058BF22EA0805CCF80050D9F804209D0325
:1012F00042EA080758BF22EA0807C9F80470D9F87B
:101300000020DB0342EA080758BF22EA0807C9F8B1
:10131000007001274CE700BF02B0BDE8F08F00006D
:101320000069084018BF0120704700001823002AF8
:1013300008BF2823C150704740F26420C2F2000069
:101340000068704740F2000040F26421C2F20000E1
:10135000C2F2000140680A6810440860704700004B
:1013600080B5032000F08CF8002000F009F8002878
:101370001CBF012080BD00F029F8002080BD0000C6
:1013800070B540F20006C2F200067168E1B1044691
:1013900040F20C00C2F200004FF47A720068B2FB17
:1013A000F1F1B0FBF1F000F09BFE0F2C4FF00105C6
:1013B00008D838B94FF0FF3021460022002500F050
:1013C00033F83460284670BD012070BD82B041F210
:1013D0005800C4F20200816841F001018160816817
:1013E00001F0010101910199016841F08051016012
:1013F000006800F080500090009802B000F0E4B85F
:10140000002848BF7047C1B200F01F00012202FA55
:1014100000F04EF20012CEF2000242EAD10121F0B9
:10142000030108607047000010B54EF60C5CCEF268
:10143000000CDCF80030C3F3022E8EF00704042CFD
:1014400028BF0424BEF103034FF0FF3E0EFA04F45C
:1014500038BF0023A14399400EFA03F39A43114386
:1014600000F00F0200F160430901043A03F5644300
:101470006244002848BF02F10C03197010BD00003F
:101480004EF60C51CEF200010A684FF6FF031A40E7
:1014900060F30A2242F0806040F0FD7008607047FF
:1014A000B0F5007F42D0002840F0808047F2140061
:1014B000C4F2000050F8141CC26E01F4C06122F4A2
:1014C0008072B1F5806FC2662ED150F8141C0122D3
:1014D00062F34A2140F8141C40F20C01C2F20001F0
:1014E0000968322251434DF68362C4F21B32A1FBDC
:1014F0000212910C0268520511D54A1C0FD00268E5
:1015000052050CD559B10268520508D5012906D0FB
:101510000268520503D50229A1F10401EAD100684D
:10152000400544BF032070470020704747F2140075
:10153000C4F2000050F8141CC26E01F4C06142F401
:101540008072B1F5806FC266EED150F8141C012292
:1015500062F34A2140F8141C40F20C01C2F200016F
:101560000968322251434DF68362C4F21B32A1FB5B
:101570000212910C0268520511D54A1C0FD0026864
:1015800052050CD559B10268520508D5012906D07B
:101590000268520503D50229A1F10401EAD10068CD
:1015A000400544BF03207047BEE700BF47F2140068
:1015B000C4F2000050F8141C022262F34A2140F8E1
:1015C000141C00207047000047F20800C4F200001D
:1015D000016841F480410160704700002DE9F0414D
:1015E00082B00446807841F288060007C4F2020601
:1015F00002D400202FE000BF56F8300C10F08058C5
:101600000BD156F8300C40F0805046F8300C56F8AC
:10161000300C00F080500190019847F20007C4F2AE
:101620000007386840F480703860FFF785FE054693
:101630003868C00500F1D680FFF77EFE401B022807
:10164000F6D90320B8F1000F05D156F8301C21F06F
:10165000805146F8301C2168CA0713D18A0719D473
:101660004A071FD40A0725D48A062BD44A0631D448
:101670000A0637D4CA053DD48A0543D44A0549D45D
:1016800057E000BF3268636822F003021A433260F9
:101690008A07E5D53268A36822F00C021A4332604B
:1016A0004A07DFD53268E36822F030021A4332601D
:1016B0000A07D9D53268236922F0C0021A43326082
:1016C0008A06D3D53268636922F440621A433260D5
:1016D0004A06CDD53268A36922F440521A433260DB
:1016E0000A06C7D53268E36922F440421A433260E1
:1016F000CA05C1D53268236A22F440321A433260E7
:101700008A05BBD53268636A22F440221A433260EC
:101710004A050ED53268A36A22F440121A43B3F583
:10172000801F326005D156F87C2C42F4801246F8B6
:101730007C2C0A050ED53268E36A22F440021A4373
:10174000B3F5800F326005D156F87C2C42F480123C
:1017500046F87C2CCA040ED53268236B22F0407206
:101760001A43B3F1807F326005D156F87C2C42F4E5
:10177000801246F87C2C8A040ED53268636B22F006
:1017800040621A43B3F1006F326005D156F87C2CE9
:1017900042F4801246F87C2C4A040ED53268A36BC2
:1017A00022F040621A43B3F1006F326005D156F85F
:1017B0007C2C42F4801246F87C2C09040ED531684A
:1017C000E26B21F040511143B2F1805F316005D1ED
:1017D00056F87C1C41F4803146F87C1C02B0BDE810
:1017E000F08100BFB06810F4407010D0216C8842C6
:1017F0000BD0B068B16820F4407041F48031B16022
:10180000B16821F48031B160B060C0070CD1B0681C
:10181000216C20F440700843B0600020B8F1000F44
:101820007FF419AF11E700BFFFF786FD054641F2CF
:10183000883700BFB0688007E9D4FFF77DFD401B03
:10184000B842F7D9FDE600002DE9F04700286DD039
:1018500042F2000AC4F2020A0446DAF800000D4619
:1018600000F00F0088420CD2DAF8000020F00F00E0
:101870002843CAF80000DAF8000000F00F00A84280
:1018800054D1216841F20808C807C4F2020803D104
:10189000880740F1D880BDE0606802283AD003286C
:1018A00040D158F8082C920140D5D8F80420D8F837
:1018B000043042F20046C3F3031302F00302D8F8E7
:1018C00004700133C0F2F406032A04BF43F2006639
:1018D000C0F26E16B6FBF3F2D8F80430C7F3062751
:1018E0007A43C3F34163022707EB4303B2FBF3F2EE
:1018F0004BF20043C0F2C4439A4261D9D8F80020A9
:1019000012F0F00F51D089075AD5A168002957D19C
:101910004BE000BF58F8081C89035CBF0120BDE8FC
:10192000F08707E058F8081C490503D40120BDE8FA
:10193000F08700BFD8F8001001F00C0104293FD057
:10194000D8F8001001F00C01082939D0D8F800109F
:1019500001F00C010C2933D1D8F80410D8F8042078
:1019600042F20047C2F3031201F00301D8F8043039
:101970000132C0F2F407032904BF43F20067C0F24A
:101980006E17B7FBF2F1D8F80420C3F306235943CE
:10199000C2F34162022303EB4202B1FBF2F14BF2CC
:1019A0000042C0F2C44291420AD9D8F8001008227D
:1019B00062F307114FF00109C8F8001002E000BF00
:1019C0004FF00009D8F8001021F003010843C8F8CF
:1019D0000000FFF7B1FC064641F28837D8F8000056
:1019E000616800F00C00B0EB810F07D0FFF7A4FC9A
:1019F000801BB842F2D90320BDE8F0872168880730
:101A000008D4B9F1000F1ED0D8F8000020F0F00083
:101A100017E000BF480705D5D8F8000040F4E060A3
:101A2000C8F80000080706D5D8F80000072262F3BE
:101A30000D20C8F80000D8F80000A26820F0F000DF
:101A40001043C8F80000DAF8000000F00F00A842C8
:101A50001BD9DAF8000020F00F002843CAF8000074
:101A6000FFF76AFC064641F2883700BFDAF800004B
:101A700000F00F00A84207D0FFF75EFC801BB842C1
:101A8000F4D90320BDE8F0872168480707D5D8F8C6
:101A90000000E26820F4E0601043C8F80000080786
:101AA00008D5D8F80000216920F4605040EAC10050
:101AB000C8F80000D8F8000042F20041C0F2F4017A
:101AC00000F00C00042808462DD0D8F8000000F0E3
:101AD0000C00082843F20060C0F26E1023D0D8F842
:101AE000002002F00C020C2A1CD1D8F80420D8F8EF
:101AF000043002F00302C3F30313D8F80470013377
:101B0000032A08BF0146B1FBF3F0D8F80410C7F36D
:101B10000627C1F341610222784302EB4101B0FB89
:101B2000F1F000E00020D8F8001046F2B272C1F3E4
:101B30000311C0F60002515C40F20C0201F01F01DB
:101B400020FA01F140F20000C2F200000068C2F287
:101B500000021160BDE8F047FFF712BC40F20C0034
:101B600041F20801C2F20000C4F2020100680968F3
:101B700046F2C272C1F30221C0F60002515C01F0CC
:101B80001F01C8407047000040F20C0041F20801FC
:101B9000C2F20000C4F202010068096846F2C27293
:101BA000C1F3C221C0F60002515C01F01F01C84020
:101BB0007047000080B541F20C01C4F2020151F8F7
:101BC000040C42F20042C0F2F40200F00C000428BF
:101BD000104608BF80BD51F8040C00F00C00082826
:101BE00043F20060C0F26E1022D051F8043C03F0C2
:101BF0000C030C2B1CBF002080BDD1F800C00B686B
:101C00000CF0030CC3F3031E0B680EF1010EBCF1C4
:101C1000030F08BF02460968B2FBFEF0C3F30623B8
:101C2000C1F341610222584302EB4101B0FBF1F0E4
:101C300080BD00002DE9F04182B0002800F006814F
:101C40000446007841F20006C007C4F2020655D1EE
:101C50002078800774D42078000700F197802078DE
:101C6000400700F1B7802078800600F10781E56920
:101C7000002D00F03082B06800F00C000C2840F01D
:101C80005981012D00F0E280F068216A00F0030222
:101C90008A4240F0DB80626A6FF00F0300F0F001CF
:101CA00003EB0212914240F0D180A16A00F4FE429F
:101CB000B2EB012F40F0CA80E16A00F07842B2EB4B
:101CC000C16F40F0C380226B0023CFF6E07303EABC
:101CD000025200F4C001A2F50012914240F0B68019
:101CE000616B4FF07E4202EA016100F0C06001F1D9
:101CF0007E41884240F0AA80EDE100BFB06800F06C
:101D00000C01F06808295BD0032281F00C0122EA63
:101D100000000844B0FA80F0400951D16068B0F585
:101D2000803F07D0B0F5A02F40F0DA80306840F453
:101D300080203060306840F480303060DBE000BFED
:101D4000B068F16800F00C00042869D001F00301CC
:101D500080F00C0081F002010844B0FA80F04009E4
:101D60005ED1E1683068002900F0D28040F48070D4
:101D70003060FFF7E1FA05463068400500F1FC806D
:101D8000FFF7DAFA401B0228F6D92EE16169D6F88E
:101D90009400002900F0908040F00100C6F8940003
:101DA000FFF7CAFA054600BFD6F8940080073FF552
:101DB00056AFFFF7C1FA401B0228F5D915E100BF65
:101DC000306880037FF544AF606800287FF440AF3F
:101DD0003CE000BFB06D10F0805808D1B06D40F00D
:101DE0008050B065B06D00F080500190019847F2CE
:101DF0000007C4F200073868C0052BD4386840F4E7
:101E000080703860FFF798FA054600BF3868C00553
:101E100020D4FFF791FA401B0228F7D9E5E000BF74
:101E20003068400501D5E06880B17068216920F014
:101E3000FE4040EA0160706040F20000C2F2000023
:101E40000068FFF79DFA00283FF405AF012002B0BB
:101E5000BDE8F081A068012808D0052840F0AA80DC
:101E6000D6F8900040F00400C6F89000D6F8900034
:101E700040F00100C6F89000A9E000BFA169D6F8C3
:101E80009800002900F0808040F00100C6F898001A
:101E9000FFF752FA054600BFD6F8980080073FF5D5
:101EA000E6AEFFF749FA401B02284FF00300F3D9D2
:101EB00002B0BDE8F08100BF20F00100C6F8940038
:101EC000FFF73AFA054600BFD6F8940080077FF581
:101ED000C6AEFFF731FA401B0228F5D985E000BFF6
:101EE0003168002821F480313160316821F480218B
:101EF000316000F07F80FFF71FFA054630688003ED
:101F00003FF5A6AEFFF718FA401B6428F6D96CE03F
:101F100020F480703060FFF70FFA05463068400506
:101F20007FF599AEFFF708FA401B02284FF0030037
:101F3000F4D9BDE7306820F080703060FFF7FCF91D
:101F4000022D05460CD100BF3068800140F17E8033
:101F5000FFF7F2F9401B02284FF00300F4D9A7E77E
:101F60003068800140F1B080FFF7E6F9401B02289D
:101F70004FF00300F4D99BE77068216920F0FE4020
:101F800040EA0160706066E620F00100C6F8980043
:101F9000FFF7D2F9054600BFD6F8980080077FF515
:101FA00066AEFFF7C9F9401B02284FF00300F3D9D2
:101FB0007EE700BFD6F8901021F00101C6F890101E
:101FC000D6F8901021F00401C6F8901010B3FFF776
:101FD000B3F9054641F28837D6F8900080072BD434
:101FE000FFF7AAF9401BB842F6D9032002B0BDE8BA
:101FF000F08100BFFFF7A0F9054600BF30688003FD
:102000007FF526AEFFF798F9401B64284FF00300D8
:10201000F4D94DE7FFF790F9054641F2883700BF44
:10202000D6F89000800707D5FFF786F9401BB84225
:102030004FF00300F4D93BE7B8F1000F7FF413AE83
:10204000B06D20F08050B0650DE600BFF06848F23A
:102050000C01C0F29F1104F1200700EA010C8ECFA1
:102060006FF00F00D4E90C5400EB02100022CFF601
:10207000E07241EA0C0102EA05520843A2F500129F
:102080004FF07E4540EA032005EA0465104305F160
:102090007E4540EAC7602843F060306840F08070B9
:1020A0003060F06840F08070F060FFF745F904465A
:1020B000306880010FD4FFF73FF9001B02284FF072
:1020C0000300F5D9F4E600BFF0684FF6FC71CFF6D7
:1020D000EE610840F060002002B0BDE8F081000031
:1020E000411E0020B0EB116F1CBF012070474EF263
:1020F0001002CEF2000251604EF62351CEF20001E2
:10210000F0230B70072190601160704790F88410E5
:10211000012904BF022070472421C0F888100268FA
:102120001168136823F00103136021F000530021AC
:10213000416613602022C0F8882080F88410084689
:10214000704700007047000070470000B0B590F87D
:102150008420012A04BF0220B0BD2422C0F88820B8
:102160000268D0F864E0D2F800C01368BEF1000F36
:1021700023F001031360936823F0606341EA0301D5
:10218000916019D09368916847F6C41E490FC0F654
:10219000000E47F6CC151EF80140C0F60005695C3C
:1021A000C3F34263E400B4FBF1F11EF80340EB5CBF
:1021B000E500B5FBF3F301E001210123A0F86A106B
:1021C0002021A0F86830C2F800C0C0F888100021B3
:1021D00080F884100846B0BDB0B590F88420012A7C
:1021E00004BF0220B0BD2422C0F888200268D0F8C5
:1021F00064E0D2F800C01368BEF1000F23F00103C1
:102200001360936823F0604341EA0301916019D0A1
:102210009368916847F6C41E490FC0F6000E47F652
:10222000CC151EF80140C0F60005695CC3F342639B
:10223000E400B4FBF1F11EF80340EB5CE500B5FBF4
:10224000F3F301E001210123A0F86A102021A0F896
:102250006830C2F800C0C0F88810002180F88410EF
:102260000846B0BD7047000070470000704700008E
:1022700070B5016840F62F03CA69044608688E6885
:102280001340202B0CD100F0200306F080555B1981
:1022900017D0616F00297BD02046BDE87040084709
:1022A00040F60F031A420CD00123C1F2000306EAE4
:1022B000030C40F22013C0F20043034013EB0C0365
:1022C00068D1E36E012B05D112F0100318BF10F096
:1022D00010034DD1D3020BD516F4800308D04FF470
:1022E000801220460A62BDE87040FFF7BDBF00BF04
:1022F000110606D500F0800106F40003C91840F06D
:102300003782510640F1108110F0400100F00C813D
:10231000206850E8000F216820F0400041E80002EA
:10232000DAB1206850E8000F216820F0400041E851
:10233000000292B1206850E8000F216820F04000B0
:1023400041E800024AB1206850E8000F216820F0FF
:10235000400041E80002002ADAD120200021C4F820
:1023600088002046A167BDE8704000F061BD00BF55
:10237000102008628868400618D4B4F85C00B4F8ED
:102380005E10B4F85E20002A18BF884240F0128226
:1023900070BD00BFD30718BF10F4807340F0D08029
:1023A000930706F0010E00F1D780E0E0D4F880003A
:1023B00000684268B4F85C3091B2002900F0DE8118
:1023C000994280F0DB81A4F85E200068800600F16D
:1023D0009E80206850E8000F216820F4807041E85A
:1023E0000002DAB1206850E8000F216820F4807004
:1023F00041E8000292B1206850E8000F216820F403
:10240000807041E800024AB1206850E8000F21685E
:1024100020F4807041E80002002ADAD1206850E8F8
:10242000020F216820F0010041E80202BAB32068DF
:1024300050E8020F216820F0010041E8020272B367
:10244000206850E8020F216820F0010041E80202F4
:102450002AB3206850E8020F216820F0010041E80B
:102460000202002ADAD11AE0206850E8020F21683F
:1024700020F0400041E80202DAB1206850E8020F83
:10248000216820F0400041E8020292B1206850E843
:10249000020F216820F0400041E802024AB12068A2
:1024A00050E8020F216820F0400041E80202002AB3
:1024B000DAD12020C4F88C000020E066206850E8C3
:1024C000000F216820F0100041E80002DAB1206816
:1024D00050E8000F216820F0100041E8000292B19E
:1024E000206850E8000F216820F0100041E8000249
:1024F0004AB1206850E8000F216820F0100041E840
:102500000002002ADAD1D4F88000FEF74BFC02204A
:102510002067B4F85C00B4F85E10401A81B220461F
:10252000BDE87040FFF70EBE110240F1318110F09E
:10253000804100F02D812046BDE87040FFF792BE3B
:1025400001230B62D4F8903043F00103C4F89030BB
:10255000930706F0010E0AD5BEF1000F07D0022343
:102560000B62D4F8903043F00403C4F89030530762
:102570000AD5BEF1000F07D004230B62D4F89030C7
:1025800043F00203C4F8903013070CD500F0200389
:1025900053EA0C0307D008230B62D4F8903043F0C1
:1025A0000803C4F8903013050BD510F0806308D0F1
:1025B0004FF400630B62D4F8903043F02003C4F86A
:1025C0009030D4F89030002B3FF4E2AE12F02002AD
:1025D0001EBF00F0200006F0805210EB020040F019
:1025E0006B81D4F89000896800F0280001F0400168
:1025F000401807D12046FFF739FE0020C4F89000AC
:1026000070BD00BF206850E8000F216820F4907072
:1026100041E80002DAB1206850E8000F216820F498
:10262000907041E8000292B1206850E8000F2168E4
:1026300020F4907041E800024AB1206850E8000F91
:10264000216820F4907041E80002002ADAD14FF6A8
:10265000FE70CEF6FF7000BF216851E8021F2268AD
:10266000014042E80213C3B1216851E8021F226809
:10267000014042E8021383B1216851E8021F226839
:10268000014042E8021343B1216851E8021F226869
:10269000014042E80213002BDED1E06E012824D174
:1026A000206850E8000F216820F0100041E8000287
:1026B000DAB1206850E8000F216820F0100041E8EE
:1026C000000292B1206850E8000F216820F010004D
:1026D00041E800024AB1206850E8000F216820F06C
:1026E000100041E80002002ADAD12020C4F88C0052
:1026F0000020E066216860678868400654D500BF06
:10270000206850E8020F216820F0400041E80202F2
:10271000DAB1206850E8020F216820F0400041E85B
:10272000020292B1206850E8020F216820F04000B8
:1027300041E802024AB1206850E8020F216820F007
:10274000400041E80202002ADAD1D4F8800058B3F0
:1027500045F61D51C0F600018163FEF75BFB0028C2
:102760003FF416AED4F88000816BBDE87040084796
:10277000A16F00297FF490AD0AE600BF8B427FF481
:1027800007AE006880067FF503AE02228DE000BF31
:10279000D1017FF5FDADB0F1FF3FC8BF70BD204650
:1027A000BDE87040FFF7D0BC2046BDE87040FFF7A1
:1027B0005DBD00BF401A00BF216851E8001F2268BC
:1027C00021F4907142E80013DBB1216851E8001F49
:1027D000226821F4907142E8001393B1216851E816
:1027E000001F226821F4907142E800134BB1216868
:1027F00051E8001F226821F4907142E80013002B79
:10280000DAD14FF6FE71CEF6FF7100BF226852E8B2
:10281000022F23680A4043E80226C6B1226852E824
:10282000022F23680A4043E8022686B1226852E854
:10283000022F23680A4043E8022646B1226852E884
:10284000022F23680A4043E80226002EDED1202111
:10285000C4F88C100021E166616700BF216851E86F
:10286000001F226821F0100142E80013DBB121684B
:1028700051E8001F226821F0100142E8001393B1D3
:10288000216851E8001F226821F0100142E800137E
:102890004BB1216851E8001F226821F0100142E885
:1028A0000013002BDAD1022281B220462267BDE854
:1028B0007040FFF747BC00BF626F002A3FF491AE43
:1028C0002046904721688CE610B5D8B10446D0F870
:1028D000880028B9002084F88400204600F026F8FB
:1028E0002420C4F888002068A16A026822F001024E
:1028F000026011B1204603F0E5F8204603F0C2FB68
:10290000012801D1012010BD2168486820F49040C1
:102910004860886820F02A008860086840F001025A
:1029200020460A60BDE8104003F040B92DE9F041AF
:1029300096B00446684608303C21FDF7EBFD206860
:1029400043F60001C4F20101884203D016B0BDE88D
:10295000F08100BF01200090002668460196FEF736
:102960003DFE002818BFFDF7D7FE41F24C00C4F22F
:102970000200416940F2080841F480414161416927
:10298000C4F2020801F4804111911199016841F0EB
:1029900001010160006811A900F001001190119877
:1029A0004FF4C06011900220CDE912060720159067
:1029B0004FF090401496FEF7DDFB40F20815C2F28E
:1029C0000005182080272021C5E900802846C5E998
:1029D0000266C5E90476C5E906612E62FEF7AEFA25
:1029E000002818BFFDF798FEC4F88050AC6240F292
:1029F000681508F11400C2F2000519211022002305
:102A000085E88F002846C5E90533C5E90733FEF799
:102A100095FA002818BFFDF77FFE2520002100222F
:102A2000E567AC62FEF700FD2520FEF7E9FC16B075
:102A3000BDE8F081B0B50446D0F88C0020281CBF5A
:102A40000220B0BD96460A4600294FF0010018BF8B
:102A5000BEF1000F00D1B0BD4FF0000CC4F86CC047
:102A6000216848F20000C4F20000814227D0486883
:102A7000000224D5206850E8000F216840F08060F3
:102A800041E80003DBB1206850E8000F216840F006
:102A9000806041E8000393B1206850E8000F21688E
:102AA00040F0806041E800034BB1206850E8000F1F
:102AB000216840F0806041E80003002BDAD1222039
:102AC000A265A4F85CE0C4F890C0C4F88C00D4F807
:102AD0008000F8B145F60571C0F6000146F26903C1
:102AE00045F6295C00F12C07C0F60003C0F6000C87
:102AF00087E80A1021680025243173468563FEF7B4
:102B0000B3FA38B11020C4F890002020C4F88C002B
:102B10000120B0BD206928B3206850E8000F21686B
:102B200040F4807041E80002E2B1206850E8000FF4
:102B3000216840F4807041E800029AB1206850E8B2
:102B4000000F216840F4807041E8000252B1206813
:102B500050E8000F216840F4807041E80002002A2C
:102B6000DAD100BF206850E8020F216840F0010070
:102B700041E80202E2B1206850E8020F216840F00B
:102B8000010041E802029AB1206850E8020F216872
:102B900040F0010041E8020252B1206850E8020F03
:102BA000216840F0010041E80202002ADAD100BFAA
:102BB000206850E8020F216840F0400041E802021E
:102BC000DAB1206850E8020F216840F0400041E887
:102BD000020292B1206850E8020F216840F04000E4
:102BE00041E802024AB1206850E8020F216840F033
:102BF000400041E80202002ADAD10020B0BD000006
:102C000010B540F2C811C2F20001884200D010BDD8
:102C100040F27804C2F20004A0786178221811739F
:102C2000411C0028A17018BF10BD207801280BD0CE
:102C3000D0B9207B52280FD04C2819D140F2100077
:102C4000C2F200004C210CE040F2C810C2F20000B9
:102C50000DA1062212E000BF40F21000C2F20000F7
:102C6000522101700020A0600020A07010BD00BFA4
:102C700040F2C810C2F2000005A10722642300F050
:102C80000DF80020A07010BD576169740D0A000096
:102C90004572726F720D0A00704700002DE9F04115
:102CA0000446D0F8880020281CBF0220BDE8F0812F
:102CB0000D4600294FF0010000F0B8801646002AAA
:102CC00008BFBDE8F0810020C4F89000212098469C
:102CD000C4F88800FEF730FBA4F85460A4F85660EE
:102CE000A1680646B1F5805F02D1206900286BD04B
:102CF0002F460025B4F8560000286BD018F10100CB
:102D00001CD0B8F1000F3DD121680BE017F8010B82
:102D10008862B4F856000138A4F85600B4F856009A
:102D2000002858D0C869000640F17A80002FEDD104
:102D300035F8020B00276FF35F20E9E7216802E016
:102D4000C869000609D4C869000606D4C869000627
:102D50005CBFC8695FEA0060F2D51FB117F8010BCC
:102D600005E000BF35F8020B00276FF35F20886293
:102D7000B4F856000138A4F85600B4F856000028FC
:102D8000E1D128E0216800BFC869000608D4FEF739
:102D9000D3FA801B404545D821680868F4E700BF96
:102DA00017B117F8010B04E035F8020B00276FF399
:102DB0005F208862B4F856000138A4F85600B4F8D1
:102DC00056000028E0D106E00027B4F8560000289D
:102DD0007FF494AF2168C86940061FD4B8F1000F92
:102DE0001ED018F101000FD1C869400616D4C86979
:102DF000400613D4C869400610D4C86940064FF095
:102E00000000F1D50FE000BFFEF796FA801B4045A9
:102E100008D820680168C0694006F5D5002002E0A6
:102E2000FEF78AFA03202021C4F88810BDE8F0815B
:102E300070470000FEE7000040F25C21C2F2000192
:102E4000887800228A707047B0B500F06FF8FFF7FD
:102E5000F3FF40F27804C2F20004217840F210053A
:102E60000129C2F2000519D069BB042848D0032803
:102E700029D128784C2846D1A06841F2883188426F
:102E800021D840F2C81047F6DB11C2F20000C0F6AC
:102E9000000109226423FFF701FF12E0012812D18B
:102EA00040F2C81047F6DB11C2F20000C0F6000184
:102EB00009226423FFF7F2FE00202070002000F0BA
:102EC0006FF853202870A06841F28931884216D3E8
:102ED0002878532808BFB0BD207870B940F2C810D8
:102EE00047F6D411C2F20000C0F6000106226423A6
:102EF000FFF7D4FE002000F053F801202070B0BD91
:102F000028785228B8D040F2C81047F6D411C2F23F
:102F10000000C0F6000106226423FFF7BFFEA06890
:102F200041F289318842D3D2E9E7000070B540F21E
:102F30000044C4F60004204601210126FEF7F0F902
:102F400040F25C25C2F20005D8B1204602210226DB
:102F5000FEF7E6F9A8B120460421FEF7E1F978B1C1
:102F60004FF090400121FEF7DBF978B16878002638
:102F70002E7048B169680B2924BFA870002603E0B1
:102F8000032668782E7030B16E7070BD04266878A4
:102F90002E700028F8D1002068606E7070BD0000AF
:102FA00040F21841C4F600010A6942F400720A6155
:102FB0000A6942F480720A610A6842F020020A60DB
:102FC0002022C1F8FC230A6942F020020A6100BFF6
:102FD00000BF00BF0A6842F020020A600A6842F49B
:102FE00080720A600022C1F8FC230B6943F02003C1
:102FF0000B6100BF00BF00BF0B6843F020030B60F4
:103000000B6843F480730B600B6943F400730B612E
:103010000B6943F480730B610B6843F020030B6072
:103020002123C1F8FC330B6943F020030B6100BF7F
:1030300000BF00BF0B6843F020030B600B6843F434
:1030400080730B60C1F8FC230A6942F020020A6118
:1030500000BF00BF00BF0A6842F020020A600A6891
:1030600042F480720A600A6942F400720A610A69D5
:1030700042F480720A610A6842F020020A60222249
:10308000C1F8FC230A6942F020020A6100BF00BFB8
:1030900000BF0A6842F020020A600A6842F48072A7
:1030A0000A6000BF00BF00BF0A6842F400720A60F5
:1030B0004FF496320B69053A43F400730B610B68C9
:1030C00043F480730B600B6843F020030B60C1F87E
:1030D000FC030B6943F020030B6100BF00BF00BF7E
:1030E0000B6843F020030B600B6843F480730B60A4
:1030F00000BF00BF00BF0B6843F400730B600B6997
:1031000043F400730B610B6843F480730B600B682E
:1031100043F020030B60C1F8FC030B6943F020036C
:103120000B6100BF00BF00BF0B6843F020030B60C2
:103130000B6843F480730B6000BF00BF00BF0B68D7
:1031400043F400730B600B6943F400730B610B686D
:1031500043F480730B600B6843F020030B60C1F8ED
:10316000FC030B6943F020030B6100BF00BF00BFED
:103170000B6843F020030B600B6843F480730B6013
:1031800000BF00BF00BF0B6843F400730B600B6906
:1031900043F400730B610B6843F480730B600B689E
:1031A00043F020030B60C1F8FC030B6943F02003DC
:1031B0000B6100BF00BF00BF0B6843F020030B6032
:1031C0000B6843F480730B6000BF00BF00BF0B6847
:1031D00043F400730B600B6943F400730B610B68DD
:1031E00043F480730B600B6843F020030B60C1F85D
:1031F000FC030B6943F020030B6100BF00BF00BF5D
:103200000B6843F020030B600B6843F480730B6082
:1032100000BF00BF00BF0B6843F400730B607FF476
:1032200049AF70472DE9F0410A78FAB146F2CA7801
:1032300004464D1C002740F23F16C0F6000800BFB0
:10324000A2F12000C1B2490051FA80F008EB00124F
:10325000B1B2204600F00CF8EA5D002A08BFBDE8D4
:10326000F081103E132F07F10107E9D3BDE8F0818B
:103270002DE9F04740F21843C4F600031F694FF0F0
:10328000200C47F400771F611F694FF0210E47F4AF
:1032900080771F611F6840F2080947F020071F6010
:1032A000C3F8FCC31F6940F2980A47F020071F616A
:1032B00000BF00BF00BF1F684FF0220847F0200783
:1032C0001F601F68C2F2000947F480771F60C3F8CF
:1032D000FC031F69C2F2000A47F020071F6100BF0C
:1032E00000BF00BF1F6847F020071F601F6847F43A
:1032F00080771F601F6947F400771F611F6947F4DB
:1033000080771F611F6847F020071F60C3F8FCE348
:103310001C6944F020041C6100BF00BF00BF1C6892
:1033200044F020041C601C6844F480741C60C3F8E2
:10333000FC131C6944F020041C6100BF00BF00BFE7
:103340001C6844F020041C601C6844F480741C60F9
:10335000002400BF1D6945F400751D611D6945F419
:1033600080751D611D6845F020051D60C3F8FC8354
:103370001D6945F020051D6100BF00BF00BF1D682D
:1033800045F020051D601D6845F480751D6000BF77
:1033900000BF00BF1D6845F400751D60002500BF1B
:1033A00032F81460EE40F607564608BF4E4636889F
:1033B0001F6947F400771F611F6847F480771F601B
:1033C0001F6847F020071F60C3F8FC631E6946F0C2
:1033D00020061E6100BF00BF00BF1E6846F0200629
:1033E0001E601E6846F480761E6000BF00BF00BFEE
:1033F0001E6846F400761E6032F81460EE40B60790
:10340000564658BF4E4636881F6947F400771F61FD
:103410001F6847F480771F601F6847F020071F6010
:10342000C3F8FC631E6946F020061E6100BF00BFA2
:1034300000BF1E6846F020061E601E6846F48076B7
:103440001E6000BF00BF00BF1E6846F400761E600D
:1034500032F81460EE407607564658BF4E4636881E
:103460001F6947F400771F611F6847F480771F606A
:103470001F6847F020071F60C3F8FC631E6946F011
:1034800020061E6100BF00BF00BF1E6846F0200678
:103490001E601E6846F480761E6000BF00BF00BF3D
:1034A0001E6846F400761E6032F81460EE4036075F
:1034B000564658BF4E4636881F69043547F4007794
:1034C0001F611F68102D47F480771F601F6847F049
:1034D00020071F60C3F8FC631E6946F020061E61CA
:1034E00000BF00BF00BF1E6846F020061E601E68B9
:1034F00046F480761E6000BF00BF00BF1E6846F421
:1035000000761E607FF44CAF1D69013045F40075F4
:103510001D611D69013445F480751D611D68182CFD
:1035200045F020051D60C3F8FCC31D6945F020056A
:103530001D6100BF00BF00BF1D6845F020051D6074
:103540001D6845F480751D60C5B2C3F8FC531D6944
:1035500045F020051D6100BF00BF00BF1D6845F09C
:1035600020051D601D6845F480751D601D6945F4CA
:1035700000751D611D6945F480751D611D6845F06C
:1035800020051D60C3F8FCE31D6945F020051D61A1
:1035900000BF00BF00BF1D6845F020051D601D680D
:1035A00045F480751D60C3F8FC131D6945F02005C6
:1035B0001D6100BF00BF00BF1D6845F020051D60F4
:1035C0001D6845F480751D6008BFBDE8F087C1E641
:1035D0002DE9F04F8BB0002641F24C000596C4F265
:1035E0000200016840F2184541F0040101600168E1
:1035F000C4F6000501F0040106910699016801ACCA
:1036000041F001010160016840F6140901F0010177
:103610000691069901684FF0030841F0020101602C
:103620000068214600F00200069006984FF44870AA
:10363000019001200290A5F11800C4F600090127AD
:10364000CDE90368FDF796FD4FF48070CDE90107E1
:103650004FF090402146CDE90368FDF78BFD4FF612
:10366000FF7005F57A74069006A920460A964FF673
:10367000FF7BCDF82480CDE90776FDF77BFD4FF683
:10368000004ACFF6FF7A55F80A0006A940F4807088
:1036900045F80A0028684FF6FF7740F40870286064
:1036A000286940F400702861286940F4807028611E
:1036B000286840F020002860C9F80060286940F0C0
:1036C0002000286100BF00BF00BF286840F0200034
:1036D0002860286840F48070286020460A96CDF85B
:1036E00018B0CDF82480CDE90766FDF743FD4FF60D
:1036F000104BCFF6FF7B55F80B0007A940F4807004
:1037000045F80B0000BF00BF00BFD5F8F89355F88F
:103710000A0040F4807045F80A00012081E8410168
:1037200006A920460A960697FDF724FD286848F268
:10373000302140F40070286040F29A00C2F200008C
:10374000A0F800900088884202D100F099F901E0C9
:1037500000F00AFF2869002740F4007028612869FA
:103760004FF6FF7840F48070286128684FF0030915
:1037700040F02000286040F61400C4F60000076006
:10378000286906A940F02000286100BF00BF00BFE3
:10379000286840F020002860286840F48070286085
:1037A00020460A97CDE90687CDE90879FDF7E2FCC6
:1037B00055F80B0007A940F4807045F80B0000BFD6
:1037C00000BF00BFD5F8F86355F80A0040F48070D8
:1037D00045F80A00012081E8810206A920460A97DF
:1037E000CDF81880FDF7C6FC286840F4007028600A
:1037F00040F29A00C2F2000006800BB0BDE8F08FE4
:1038000081B0ADF80200BDF8020040F20801C2F23A
:103810000001088001B0704781B0ADF80200BDF82A
:10382000020040F29801C2F20001088001B0704726
:10383000B0B588B040F29C0040F20011C2F2000026
:10384000C5F2000100244FF40032042580E8160080
:103850000121CDE90644C0E90344C0E9054584835C
:10386000016280F82440C0E90B4480F83840C4630A
:1038700080F84040FDF730F9002818BFFCF74CFFF6
:1038800048F20000C3F6F06000900620CDE9010484
:103890007F20CDE9030540F29C00C2F2000069469A
:1038A0000594FCF73FFF002818BFFCF735FF08B070
:1038B000B0BD000080B582B041F24800C4F2020001
:1038C0000168002241F004010160016801F0040177
:1038D00001910199016841F0010101600068002136
:1038E00000F00100009000980B20FDF79DFD0B20DB
:1038F000FDF786FD0C2000210022FDF795FD0C2030
:1039000002B0BDE88040FDF77BBD00002DE9F0432B
:1039100087B0002741F24C000697C4F2020001680C
:1039200040F6000541F0040101600168C4F600059D
:1039300001F00401019101990168002241F0200188
:10394000016001684FF47F4601F020010191019967
:10395000016841F001010160016801F0010101917C
:103960000199016841F002010160016801F0020162
:1039700001910199016841F00801016000684FF46C
:103980007F4100F00800019001982846FDF7CEFC29
:1039900005F580642046042100224FF00408FDF75D
:1039A000C5FC029602AE4FF0010928463146CDE92A
:1039B00003970597FDF7DEFB4FF090403146CDE9C8
:1039C00002970497FDF7D6FB0720CDE90207A5F57E
:1039D000806031460497FDF7CDFB20463146CDE9A6
:1039E0000289CDE90477FDF7C5FB07B0BDE8F08398
:1039F00080B540F2C81043F60001C2F20000C4F2E4
:103A0000010100234FF00C0C4FF4165280E80E0019
:103A1000C0E90333C0E905C3C0E90733C0E909338E
:103A2000FEF752FF002818BFFCF776FE40F2C810E0
:103A3000C2F200000021FEF7CFFB002818BFFCF700
:103A40006BFE40F2C810C2F200000021FEF77EFBC0
:103A5000002818BFFCF760FE40F2C810C2F2000058
:103A6000FEF754FB002808BF80BDBDE88040FCF78E
:103A700053BE0000FEE70000FEE7000070470000B4
:103A800040F21840C4F600000169002241F40071C0
:103A9000016101694FF0030C41F48071016101681B
:103AA00041F020010160C0F8FC23016941F02001D0
:103AB000016100BF00BF00BF016841F0200101604B
:103AC000016841F4807101600121C0F8FC130369B1
:103AD00043F02003036100BF00BF00BF036843F051
:103AE00020030360036843F480730360036943F4B5
:103AF00000730361036943F480730361036843F057
:103B000020030360C0F8FC13036943F02003036142
:103B100000BF00BF00BF036843F0200303600368D9
:103B200043F480730360C0F8FC23026942F0200272
:103B3000026100BF00BF00BF026842F020020260C5
:103B4000026842F480720260026942F4007202610B
:103B5000026942F480720261026842F0200202604F
:103B60001022C0F8FC23026942F02002026100BF6B
:103B700000BF00BF026842F020020260026842F407
:103B80008072026041F29072C0F8FC23026942F038
:103B90002002026100BF00BF00BF026842F02002A5
:103BA0000260026842F480720260026942F40072AC
:103BB0000261026942F480720261026842F02002EE
:103BC00002606022C0F8FC23026942F02002026118
:103BD00000BF00BF00BF026842F02002026002681E
:103BE00042F4807202604FF41C52C0F8FC23026958
:103BF00042F02002026100BF00BF00BF026842F035
:103C000020020260026842F480720260026942F49B
:103C100000720261026942F480720261026842F03D
:103C2000200202606122C0F8FC23026942F02002F7
:103C3000026100BF00BF00BF026842F020020260C4
:103C4000026842F480720260C0F8FC13016941F01E
:103C50002001016100BF00BF00BF016841F02001E9
:103C60000160016841F480710160016941F40071F3
:103C70000161016941F480710161016841F0200135
:103C800001604621C0F8FC13016941F02001016187
:103C900000BF00BF00BF016841F020010160016862
:103CA00041F4807101600221C0F8FC13026942F006
:103CB0002002026100BF00BF00BF026842F0200284
:103CC0000260026842F480720260026942F400728B
:103CD0000261026942F480720261026842F02002CD
:103CE00002601322C0F8FC23026942F02002026144
:103CF00000BF00BF00BF026842F0200202600268FD
:103D000042F48072026048F21002C0F8FC2302699B
:103D100042F02002026100BF00BF00BF026842F013
:103D200020020260026842F480720260026942F47A
:103D300000720261026942F480720261026842F01C
:103D4000200202601222C0F8FC23026942F0200225
:103D5000026100BF00BF00BF026842F020020260A3
:103D6000026842F48072026048F2FE02C0F8FC234E
:103D7000026942F02002026100BF00BF00BF02687A
:103D800042F020020260026842F48072026002691E
:103D900042F400720261026942F4807202610268B8
:103DA00042F020020260C0F8FC13016941F02001DA
:103DB000016100BF00BF00BF016841F02001016048
:103DC000016841F4807101604FF4A061C0F8FC13F8
:103DD000016941F02001016100BF00BF00BF01681F
:103DE00041F020010160016841F4807101600169C6
:103DF00041F400710161016941F480710161016860
:103E000041F020010160C0F8FCC3026942F02002C9
:103E1000026100BF00BF00BF026842F020020260E2
:103E2000026842F48072026041F23002C0F8FC2362
:103E3000026942F02002026100BF00BF00BF0268B9
:103E400042F020020260026842F48072026002695D
:103E500042F400720261026942F4807202610268F7
:103E600042F0200202603022C0F8FC23026942F0D6
:103E70002002026100BF00BF00BF026842F02002C2
:103E80000260026842F48072026040F20332C0F8BD
:103E9000FC23036943F02003036100BF00BF00BFA0
:103EA000036843F020030360036843F480730360F6
:103EB000036943F400730361036943F4807303618E
:103EC000036843F0200303603123C0F8FC33036927
:103ED00043F02003036100BF00BF00BF036843F04D
:103EE00020030360036843F480730360C0F8FC237D
:103EF000036943F02003036100BF00BF00BF0368F4
:103F000043F020030360036843F480730360036994
:103F100043F400730361036943F48073036103682E
:103F200043F0200303603223C0F8FC33036943F0FD
:103F30002003036100BF00BF00BF036843F02003FC
:103F40000360036843F480730360C0F8FC230369D3
:103F500043F02003036100BF00BF00BF036843F0CC
:103F600020030360036843F480730360036943F430
:103F700000730361036943F480730361036843F0D2
:103F8000200303603323C0F8FC33036943F02003AC
:103F9000036100BF00BF00BF036843F0200303605C
:103FA000036843F4807303604FF44073C0F8FC333C
:103FB000016941F02001016100BF00BF00BF01683D
:103FC00041F020010160016841F4807101600169E4
:103FD00041F400710161016941F48071016101687E
:103FE00041F0200101603421C0F8FC13016941F067
:103FF0002001016100BF00BF00BF016841F0200146
:104000000160016841F480710160C0F8FCC301697E
:1040100041F02001016100BF00BF00BF016841F015
:1040200020010160016841F480710160016941F47F
:1040300000710161016941F480710161016841F021
:10404000200101603521C0F8FC13016941F0200115
:10405000016100BF00BF00BF016841F020010160A5
:10406000016841F480710160C0F8FC23016941F0EE
:104070002001016100BF00BF00BF016841F02001C5
:104080000160016841F480710160016941F40071CF
:104090000161016941F480710161016841F0200111
:1040A00001603621C0F8FC13016941F02001016173
:1040B00000BF00BF00BF016841F02001016001683E
:1040C00041F4807101601421C0F8FC13016941F0D2
:1040D0002001016100BF00BF00BF016841F0200165
:1040E0000160016841F480710160016941F400716F
:1040F0000161016941F480710161016841F02001B1
:1041000001603721C0F8FC13016941F02001016111
:1041100000BF00BF00BF016841F0200101600168DD
:1041200041F480710160C0F8FC23016941F0200175
:10413000016100BF00BF00BF016841F020010160C4
:10414000016841F480710160016941F4007101610D
:10415000016941F480710161016841F02001016051
:104160003821C0F8FC13016941F02001016100BF52
:1041700000BF00BF016841F020010160016841F407
:1041800080710160C0F8FC23016941F020010161E8
:1041900000BF00BF00BF016841F02001016001685D
:1041A00041F480710160016941F4007101610169AC
:1041B00041F480710161016841F020010160392101
:1041C000C0F8FC13016941F02001016100BF00BF8C
:1041D00000BF016841F020010160016841F4807175
:1041E0000160C0F8FC23016941F02001016100BFBA
:1041F00000BF00BF016841F020010160016841F487
:1042000080710160016941F400710161016941F44B
:1042100080710161016841F0200101603A21C0F81C
:10422000FC13016941F02001016100BF00BF00BF24
:10423000016841F020010160016841F48071016072
:10424000C0F8FC33016941F02001016100BF00BFEB
:1042500000BF016841F020010160016841F48071F4
:104260000160016941F400710161016941F48071EB
:104270000161016841F0200101603B21C0F8FC139D
:10428000016941F02001016100BF00BF00BF01686A
:1042900041F020010160016841F480710160C0F8C3
:1042A000FCC3016941F02001016100BF00BF00BFF4
:1042B000016841F020010160016841F480710160F2
:1042C000016941F400710161016941F4807101618A
:1042D000016841F0200101603C21C0F8FC13016934
:1042E00041F02001016100BF00BF00BF016841F043
:1042F00020010160016841F480710160C0F8FC2375
:10430000016941F02001016100BF00BF00BF0168E9
:1043100041F020010160016841F480710160016990
:1043200041F400710161016941F48071016101682A
:1043300041F0200101603D21C0F8FC13016941F00A
:104340002001016100BF00BF00BF016841F02001F2
:104350000160016841F4807101604FF4A051C0F820
:10436000FC13016941F02001016100BF00BF00BFE3
:10437000016841F020010160016841F48071016031
:10438000016941F400710161016941F480710161C9
:10439000016841F0200101609221C0F8FC1301691D
:1043A00041F02001016100BF00BF00BF016841F082
:1043B00020010160016841F4807101604FF40071D7
:1043C000C0F8FC13016941F02001016100BF00BF8A
:1043D00000BF016841F020010160016841F4807173
:1043E0000160016941F400710161016941F480716A
:1043F0000161016841F0200101609321C0F8FC13C4
:10440000016941F02001016100BF00BF00BF0168E8
:1044100041F020010160016841F480710160C0F841
:10442000FC23016941F02001016100BF00BF00BF12
:10443000016841F020010160016841F48071016070
:10444000016941F400710161016941F48071016108
:10445000016841F0200101609021C0F8FC1301695E
:1044600041F02001016100BF00BF00BF016841F0C1
:1044700020010160016841F48071016040F60D0186
:10448000C0F8FC13016941F02001016100BF00BFC9
:1044900000BF016841F020010160016841F48071B2
:1044A0000160016941F400710161016941F48071A9
:1044B0000161016841F020010160C0F8FCC301699D
:1044C00041F02001016100BF00BF00BF016841F061
:1044D00020010160016841F48071016041F218011E
:1044E000C0F8FC13016941F02001016100BF00BF69
:1044F00000BF016841F020010160016841F4807152
:104500000160016941F400710161016941F4807148
:104510000161016841F0200101600721C0F8FC132E
:10452000016941F02001016100BF00BF00BF0168C7
:1045300041F020010160016841F48071016040F2A6
:104540007311C0F8FC13016941F02001016100BF43
:1045500000BF00BF016841F020010160016841F423
:1045600080710160704700002DE9F04F81B040F28A
:104570001844C4F6000420694FF0120940F400709A
:1045800020612069002540F4807020612068112698
:1045900040F020002060E320C4F8FC0320694FF0C5
:1045A000130B40F02000206100BF00BF00BF206857
:1045B000102740F02000206020684FF0070840F4EA
:1045C0008070206043F20800C4F8FC03206940F0CA
:1045D0002000206100BF00BF00BF206840F0200025
:1045E0002060206840F480702060206940F40070F2
:1045F0002061206940F480702061206840F0200034
:104600002060E720C4F8FC03206940F0200020610E
:1046100000BF00BF00BF206840F02000206020687D
:1046200040F480702060C4F8FC93206940F02000C2
:10463000206100BF00BF00BF206840F02000206064
:10464000206840F480702060206940F40070206190
:10465000206940F480702061206840F020002060D4
:10466000EF20C4F8FC03206940F02000206100BF67
:1046700000BF00BF206840F020002060206840F4A8
:104680008070206041F23120C4F8FC03206940F0C2
:104690002000206100BF00BF00BF206840F0200064
:1046A0002060206840F480702060206940F4007031
:1046B0002061206940F480702061206840F0200073
:1046C00020600120C4F8FC03206940F02000206134
:1046D00000BF00BF00BF206840F0200020602068BD
:1046E00040F480702060C4F8FC53206940F0200042
:1046F000206100BF00BF00BF206840F020002060A4
:10470000206840F480702060206940F400702061CF
:10471000206940F480702061206840F02000206013
:104720000220C4F8FC03206940F02000206100BF93
:1047300000BF00BF206840F020002060206840F4E7
:10474000807020604FF4E060C4F8FC03206940F002
:104750002000206100BF00BF00BF206840F02000A3
:104760002060206840F480702060206940F4007070
:104770002061206940F480702061206840F02000B2
:1047800020600320C4F8FC03206940F02000206171
:1047900000BF00BF00BF206840F0200020602068FC
:1047A00040F48070206041F23000C4F8FC032069BE
:1047B00040F02000206100BF00BF00BF206840F033
:1047C00020002060206840F480702060206940F460
:1047D00000702061206940F480702061206840F002
:1047E000200020600420C4F8FC03206940F0200071
:1047F000206100BF00BF00BF206840F020002060A3
:10480000206840F480702060C4F8FC53206940F0B8
:104810002000206100BF00BF00BF206840F02000E2
:104820002060206840F480702060206940F40070AF
:104830002061206940F480702061206840F02000F1
:1048400020600820C4F8FC03206940F020002061AB
:1048500000BF00BF00BF206840F02000206020683B
:1048600040F48070206040F20720C4F8FC03206907
:1048700040F02000206100BF00BF00BF206840F072
:1048800020002060206840F480702060206940F49F
:1048900000702061206940F480702061206840F041
:1048A000200020600920C4F8FC03206940F02000AB
:1048B000206100BF00BF00BF206840F020002060E2
:1048C000206840F480702060C4F8FC53206940F0F8
:1048D0002000206100BF00BF00BF206840F0200022
:1048E0002060206840F480702060206940F40070EF
:1048F0002061206940F480702061206840F0200031
:1049000020600A20C4F8FC03206940F020002061E8
:1049100000BF00BF00BF206840F02000206020687A
:1049200040F480702060C4F8FC53206940F02000FF
:10493000206100BF00BF00BF206840F02000206061
:10494000206840F480702060206940F4007020618D
:10495000206940F480702061206840F020002060D1
:104960000C20C4F8FC03206940F02000206100BF47
:1049700000BF00BF206840F020002060206840F4A5
:1049800080702060C4F8FC53206940F02000206152
:1049900000BF00BF00BF206840F0200020602068FA
:1049A00040F480702060206940F40070206120692C
:1049B00040F480702061206840F0200020600D20CD
:1049C000C4F8FC03206940F02000206100BF00BF54
:1049D00000BF206840F020002060206840F4807014
:1049E0002060C4F8FC53206940F02000206100BF23
:1049F00000BF00BF206840F020002060206840F425
:104A000080702060206940F400702061206940F4CB
:104A100080702061206840F0200020600F20C4F8E2
:104A2000FC03206940F02000206100BF00BF00BFF0
:104A3000206840F020002060206840F480702060F2
:104A4000C4F8FC53206940F02000206100BF00BF83
:104A500000BF206840F020002060206840F4807093
:104A60002060206940F400702061206940F480706B
:104A70002061206840F0200020601020C4F8FC0372
:104A8000206940F02000206100BF00BF00BF206807
:104A900040F020002060206840F480702060C4F85E
:104AA000FC53206940F02000206100BF00BF00BF20
:104AB000206840F020002060206840F48070206072
:104AC000206940F400702061206940F4807020610A
:104AD000206840F020002060C4F8FC63206940F0AA
:104AE0002000206100BF00BF00BF206840F0200010
:104AF0002060206840F4807020600720C4F8FC0328
:104B0000206940F02000206100BF00BF00BF206886
:104B100040F020002060206840F480702060206910
:104B200040F400702061206940F4807020612068AA
:104B300040F020002060C4F8FC93206940F0200081
:104B4000206100BF00BF00BF206840F0200020604F
:104B5000206840F480702060C4F8FC53206940F065
:104B60002000206100BF00BF00BF206840F020008F
:104B70002060206840F480702060206940F400705C
:104B80002061206940F480702061206840F020009E
:104B90002060C4F8FCB3206940F02000206100BF11
:104BA00000BF00BF206840F020002060206840F473
:104BB00080702060C4F8FC53206940F02000206120
:104BC00000BF00BF00BF206840F0200020602068C8
:104BD00040F480702060C820FCF7B8FA20694FF0DC
:104BE000320A40F400702061206940F48070206136
:104BF000206840F020002060C4F8FC732069102772
:104C000040F02000206100BF00BF00BF206840F0DE
:104C100020002060206840F48070206041F29060A5
:104C2000C4F8FC03206940F02000206100BF00BFF1
:104C300000BF206840F020002060206840F48070B1
:104C40002060206940F400702061206940F4807089
:104C50002061206840F020002060C4F8FC632069D7
:104C600040F02000206100BF00BF00BF206840F07E
:104C700020002060206840F48070206040F22720EF
:104C8000C4F8FC03206940F02000206100BF00BF91
:104C900000BF206840F020002060206840F4807051
:104CA00020603220FCF752FA206940F40070206145
:104CB000206940F480702061206840F0200020606E
:104CC000C4F8FC93206940F02000206100BF00BFC1
:104CD00000BF206840F020002060206840F4807011
:104CE00020601D20C4F8FC03206940F020002061F2
:104CF00000BF00BF00BF206840F020002060206897
:104D000040F4807020603220FCF720FA206940F4E3
:104D100000702061206940F480702061206840F0BC
:104D200020002060C4F8FCB3206940F0200020611E
:104D300000BF00BF00BF206840F020002060206856
:104D400040F4807020604FF40060C4F8FC032069D8
:104D500040F02000206100BF00BF00BF206840F08D
:104D600020002060206840F480702060206940F4BA
:104D700000702061206940F480702061206840F05C
:104D8000200020602920C4F8FC03206940F02000A6
:104D9000206100BF00BF00BF206840F020002060FD
:104DA000206840F4807020601420C4F8FC0320695F
:104DB00040F02000206100BF00BF00BF206840F02D
:104DC00020002060206840F480702060206940F45A
:104DD00000702061206940F480702061206840F0FC
:104DE000200020602B20C4F8FC03206940F0200044
:104DF000206100BF00BF00BF206840F0200020609D
:104E0000206840F4807020600B20C4F8FC03206907
:104E100040F02000206100BF00BF00BF206840F0CC
:104E200020002060206840F4807020603220FCF771
:104E30008DF92069032140F4007020612069072268
:104E400040F480702061206840F020002060202025
:104E5000C4F8FC03206940F02000206100BF00BFBF
:104E600000BF206840F020002060206840F480707F
:104E70002060C4F8FC53206940F02000206100BF8E
:104E800000BF00BF206840F020002060206840F490
:104E900080702060206940F400702061206940F437
:104EA00080702061206840F0200020602120C4F83C
:104EB000FC03206940F02000206100BF00BF00BF5C
:104EC000206840F020002060206840F4807020605E
:104ED000C4F8FC53206940F02000206100BF00BFEF
:104EE00000BF206840F020002060206840F48070FF
:104EF0002060206940F400702061206940F48070D7
:104F00002061206840F0200020603020C4F8FC03BD
:104F1000206940F02000206100BF00BF00BF206872
:104F200040F020002060206840F480702060C4F8C9
:104F3000FC83206940F02000206100BF00BF00BF5B
:104F4000206840F020002060206840F480702060DD
:104F5000206940F400702061206940F48070206175
:104F6000206840F0200020603120C4F8FC03206954
:104F700040F02000206100BF00BF00BF206840F06B
:104F800020002060206840F48070206040F20770AC
:104F9000C4F8FC03206940F02000206100BF00BF7E
:104FA00000BF206840F020002060206840F480703E
:104FB0002060206940F400702061206940F4807016
:104FC0002061206840F020002060C4F8FCA3206924
:104FD00040F02000206100BF00BF00BF206840F00B
:104FE00020002060206840F4807020600620C4F813
:104FF000FC03206940F02000206100BF00BF00BF1B
:10500000206840F020002060206840F4807020601C
:10501000206940F400702061206940F480702061B4
:10502000206840F0200020603520C4F8FC0320698F
:1050300040F02000206100BF00BF00BF206840F0AA
:1050400020002060206840F48070206040F20470EE
:10505000C4F8FC03206940F02000206100BF00BFBD
:1050600000BF206840F020002060206840F480707D
:105070002060206940F400702061206940F4807055
:105080002061206840F0200020603620C4F8FC0336
:10509000206940F02000206100BF00BF00BF2068F1
:1050A00040F020002060206840F48070206041F6CD
:1050B0000470C4F8FC03206940F02000206100BFA8
:1050C00000BF00BF206840F020002060206840F44E
:1050D00080702060206940F400702061206940F4F5
:1050E00080702061206840F0200020603720C4F8E4
:1050F000FC03206940F02000206100BF00BF00BF1A
:10510000206840F020002060206840F4807020601B
:105110000420C4F8FC03206940F02000206100BF97
:1051200000BF00BF206840F020002060206840F4ED
:1051300080702060206940F400702061206940F494
:1051400080702061206840F0200020603820C4F882
:10515000FC03206940F02000206100BF00BF00BFB9
:10516000206840F020002060206840F480702060BB
:10517000C4F8FC53206940F02000206100BF00BF4C
:1051800000BF206840F020002060206840F480705C
:105190002060206940F400702061206940F4807034
:1051A0002061206840F0200020603920C4F8FC0312
:1051B000206940F02000206100BF00BF00BF2068D0
:1051C00040F020002060206840F48070206040F2B1
:1051D0000670C4F8FC03206940F02000206100BF85
:1051E00000BF00BF206840F020002060206840F42D
:1051F00080702060206940F400702061206940F4D4
:1052000080702061206840F0200020603C20C4F8BD
:10521000FC03206940F02000206100BF00BF00BFF8
:10522000206840F020002060206840F480702060FA
:1052300040F20170C4F8FC03206940F020002061B6
:1052400000BF00BF00BF206840F020002060206841
:1052500040F480702060206940F400702061206973
:1052600040F480702061206840F0200020603D20E4
:10527000C4F8FC03206940F02000206100BF00BF9B
:1052800000BF206840F020002060206840F480705B
:1052900020600F20C4F8FC03206940F0200020614A
:1052A00000BF00BF00BF206840F0200020602068E1
:1052B00040F480702060206940F400702061206913
:1052C00040F480702061206840F020002060502071
:1052D000C4F8FC03206940F02000206100BF00BF3B
:1052E00000BF206840F020002060206840F48070FB
:1052F0002060C4F8FC53206940F02000206100BF0A
:1053000000BF00BF206840F020002060206840F40B
:1053100080702060206940F400702061206940F4B2
:1053200080702061206840F0200020605120C4F887
:10533000FC03206940F02000206100BF00BF00BFD7
:10534000206840F020002060206840F480702060D9
:10535000EF20C4F8FC03206940F02000206100BF6A
:1053600000BF00BF206840F020002060206840F4AB
:1053700080702060206940F400702061206940F452
:1053800080702061206840F0200020605220C4F826
:10539000FC03206940F02000206100BF00BF00BF77
:1053A000206840F020002060206840F48070206079
:1053B000C4F8FC53206940F02000206100BF00BF0A
:1053C00000BF206840F020002060206840F480701A
:1053D0002060206940F400702061206940F48070F2
:1053E0002061206840F0200020605320C4F8FC03B6
:1053F000206940F02000206100BF00BF00BF20688E
:1054000040F020002060206840F48070206040F26E
:105410003F10C4F8FC03206940F02000206100BF69
:1054200000BF00BF206840F020002060206840F4EA
:1054300080702060206940F400702061206940F491
:1054400080702061206840F0200020606020C4F857
:10545000FC03206940F02000206100BF00BF00BFB6
:10546000206840F020002060206840F480702060B8
:105470004FF41C50C4F8FC03206940F02000206168
:1054800000BF00BF00BF206840F0200020602068FF
:1054900040F480702060206940F400702061206931
:1054A00040F480702061206840F02000206061207E
:1054B000C4F8FC03206940F02000206100BF00BF59
:1054C00000BF206840F020002060206840F4807019
:1054D00020600120C4F8FC03206940F02000206116
:1054E00000BF00BF00BF206840F02000206020689F
:1054F00040F480702060206940F4007020612069D1
:1055000040F480702061206840F0200020606A2014
:10551000C4F8FC03206940F02000206100BF00BFF8
:1055200000BF206840F020002060206840F48070B8
:105530002060C4F8FC53206940F02000206100BFC7
:1055400000BF00BF206840F020002060206840F4C9
:1055500080702060206940F400702061206940F470
:1055600080702061206840F0200020608020C4F816
:10557000FC03206940F02000206100BF00BF00BF95
:10558000206840F020002060206840F48070206097
:10559000C4F8FC53206940F02000206100BF00BF28
:1055A00000BF206840F020002060206840F4807038
:1055B0002060206940F400702061206940F4807010
:1055C0002061206840F0200020608120C4F8FC03A6
:1055D000206940F02000206100BF00BF00BF2068AC
:1055E00040F020002060206840F480702060C4F803
:1055F000FC53206940F02000206100BF00BF00BFC5
:10560000206840F020002060206840F48070206016
:10561000206940F400702061206940F480702061AE
:10562000206840F0200020608220C4F8FC0320693C
:1056300040F02000206100BF00BF00BF206840F0A4
:1056400020002060206840F480702060C4F8FC5383
:10565000206940F02000206100BF00BF00BF20682B
:1056600040F020002060206840F4807020602069B5
:1056700040F400702061206940F48070206120684F
:1056800040F0200020608320C4F8FC03206940F033
:105690002000206100BF00BF00BF206840F0200054
:1056A0002060206840F480702060C4F8FC532069BA
:1056B00040F02000206100BF00BF00BF206840F024
:1056C00020002060206840F480702060206940F451
:1056D00000702061206940F480702061206840F0F3
:1056E000200020608420C4F8FC03206940F02000E2
:1056F000206100BF00BF00BF206840F02000206094
:10570000206840F480702060C4F8FC53206940F0A9
:105710002000206100BF00BF00BF206840F02000D3
:105720002060206840F480702060206940F40070A0
:105730002061206940F480702061206840F02000E2
:1057400020608520C4F8FC03206940F0200020611F
:1057500000BF00BF00BF206840F02000206020682C
:1057600040F480702060C4F8FC53206940F02000B1
:10577000206100BF00BF00BF206840F02000206013
:10578000206840F480702060206940F4007020613F
:10579000206940F480702061206840F02000206083
:1057A0009020C4F8FC03206940F02000206100BF75
:1057B00000BF00BF206840F020002060206840F457
:1057C00080702060C4F8FC73206940F020002061E4
:1057D00000BF00BF00BF206840F0200020602068AC
:1057E00040F480702060206940F4007020612069DE
:1057F00040F480702061206840F0200020609220FA
:10580000C4F8FC03206940F02000206100BF00BF05
:1058100000BF206840F020002060206840F48070C5
:105820002060C4F8FC53206940F02000206100BFD4
:1058300000BF00BF206840F020002060206840F4D6
:1058400080702060206940F400702061206940F47D
:1058500080702061206840F0200020609320C4F810
:10586000FC03206940F02000206100BF00BF00BFA2
:10587000206840F020002060206840F480702060A4
:10588000C4F8FC13206940F02000206100BF00BF75
:1058900000BF206840F020002060206840F4807045
:1058A0002060206940F400702061206940F480701D
:1058B0002061206840F0200020609520C4F8FC039F
:1058C000206940F02000206100BF00BF00BF2068B9
:1058D00040F020002060206840F4807020604FF489
:1058E0008870C4F8FC03206940F02000206100BFEC
:1058F00000BF00BF206840F020002060206840F416
:1059000080702060206940F400702061206940F4BC
:1059100080702061206840F0200020609720C4F84B
:10592000FC03206940F02000206100BF00BF00BFE1
:10593000206840F020002060206840F480702060E3
:10594000C4F8FC53206940F02000206100BF00BF74
:1059500000BF206840F020002060206840F4807084
:105960002060206940F400702061206940F480705C
:105970002061206840F0200020609820C4F8FC03DB
:10598000206940F02000206100BF00BF00BF2068F8
:1059900040F020002060206840F480702060C4F84F
:1059A000FC53206940F02000206100BF00BF00BF11
:1059B000206840F020002060206840F48070206063
:1059C000206940F400702061206940F480702061FB
:1059D000206840F020002060C4F8FC13206940F0EB
:1059E0002000206100BF00BF00BF206840F0200001
:1059F0002060206840F48070206041F21800C4F8F4
:105A0000FC03206940F02000206100BF00BF00BF00
:105A1000206840F020002060206840F48070206002
:105A2000206940F400702061206940F4807020619A
:105A3000206840F020002060C4F8FC23206940F07A
:105A40002000206100BF00BF00BF206840F02000A0
:105A50002060206840F48070206040F27310C4F829
:105A6000FC03206940F02000206100BF00BF00BFA0
:105A7000206840F020002060206840F480702060A2
:105A800001B0BDE8F08F00007047000080B5FBF763
:105A900059FC40F28000C2F2000040F25C22016832
:105AA000C2F20002536801310160581C506080BD91
:105AB0004EF68850CEF20000016841F4700101609A
:105AC0007047000080B5816A0A070DD4CA0716D155
:105AD0008A071FD44A0728D4CA0631D48A063AD482
