:020000040800F2
:10000000E8080020C50200081D480008053900085E
:1000100019480008A10F0008597F000800000000DF
:10002000000000000000000000000000ED68000873
:10003000B10F000800000000E1480008F168000866
:10004000DF020008DF020008DF020008DF0200080C
:10005000DF020008DF020008DF020008DF020008FC
:10006000DF020008DF020008DF020008A50F000819
:10007000DF020008DF020008DF020008DF020008DC
:10008000DF02000800000000DF020008DF020008B5
:10009000DF020008DF020008DF020008DF020008BC
:1000A000DF020008DF020008DF020008DF020008AC
:1000B000DF020008DF020008DF020008DF0200089C
:1000C000DF020008DF020008DF020008DF0200088C
:1000D000DF0200084D7F0008DF020008DF02000891
:1000E000DF020008DF020008DF020008DF0200086C
:1000F000DF020008DF020008DF0200080000000045
:1001000000000000DF02000800000000DF0200081D
:10011000DF02000800000000DF020008DF02000824
:10012000DF020008DF020008DF020008DF0200082B
:10013000DF0200080000000000000000DF020008ED
:10014000DF020008DF0200080000000000000000DD
:10015000000000000000000000000000000000009F
:10016000000000000000000000000000DF020008A6
:10017000DF02000800000000000000000000000096
:1001800000000000DF020008000000000000000086
:10019000000000000000000000000000000000005F
:1001A0000000000000000000DF020008DF0200087D
:1001B000DF020008DF020008DF0200080000000084
:1001C00000000000DF020008000000000000000046
:1001D000DF020008DF02000800F002F800F062F819
:1001E00014A696E8000CB244B344DA4501D100F0FD
:1001F00059F8BAE80F000FA696E83000A5EB040501
:1002000004EB0607AAEB0704A7F101074FEA15154F
:100210004FEA3414A4F10104AC4201D300F042F8D7
:1002200013F0010F18BFFB1A43F0010300F001F8AF
:10023000DBE7184720A0000040A00000103A24BFD0
:1002400078C878C1FAD8520724BF30C830C144BF3B
:1002500004680C6070470000704700000023002411
:1002600000250026103A28BF78C1FBD8520728BFC6
:1002700030C148BF0B607047662908F06A86642960
:1002800000F0CC80002070471FB508F050FE00F051
:1002900057FC04000020002108F022FBE0601FBD95
:1002A00010B510BD00F04CFD1146FFF7EDFF07F053
:1002B00057FE00F06AFD03B4FFF7F2FF03BC00F045
:1002C000ADFD00000948804709480047FEE7FEE70A
:1002D000FEE7FEE7FEE7FEE7FEE7FEE7FEE7FEE7F6
:1002E00004480549054A064B704700002569000887
:1002F000D9010008E8020020E8080020E8040020F6
:10030000E804002053EA020C00F069802DE9F04B6C
:100310004FF00006002B1FBFB3FA83F503FA05F474
:1003200024FA05F65E4012BF1643B2FA82F502FACD
:1003300005F4C5F120051EBF22FA05FC44EA0C04B1
:10034000203556EA044C4FEA144418BF641C4FF0A1
:1003500000084FF00009904271EB030C39D30029DB
:1003600019BFB1FA81F701FA07F6B0FA80F700FA7F
:1003700007F6C7F120071EBF20FA07FC46EA0C0665
:100380002037B6FBF4FCA7EB0507103F07F01F0B67
:10039000CBF120062CFA06F60CFA0BFB44BFB34651
:1003A0000026202FA4BF5E464FF0000B5BEA060C30
:1003B00008BF4FF0010B19EB0B0948EB0608ABFB2C
:1003C000027C06FB02CC0BFB03CCC01B71EB0C01C7
:1003D000C1E70B46024641464846BDE8F08B13B5DF
:1003E000084318BF4FF0FF300146AFF30080BDE86F
:1003F0001C4070470FB41CB5074B06AA7B446946E6
:100400000090059800F083FB0020694600F092FB05
:100410001CBC5DF814FB0000350700002DE9F0411D
:100420000646002410687529314616A510D0AFF392
:100430000080002802DA404213A507E031688A07ED
:1004400001D512A502E0490704D511A5012401E058
:10045000AFF3008000210A2206F1240709E0B0FB77
:10046000F2FCB0FBF2F302FB1C003030785418466B
:10047000491C0028F3D123462A463046BDE8F04106
:1004800000F0D8B8000000002D0000002B00000094
:10049000200000002DE9F0474FF0000A894604468D
:1004A000C0F820A02046E1688847002876D025289B
:1004B00006D0D4E901219047206A401C2062F1E770
:1004C000E168204600258847C4F81CA0064600279E
:1004D000C4F818A02A2E09D0304608F0F9F938B32C
:1004E00004EB8708303EC8F8186019E059F8041B7F
:1004F000204604EB87029161E1688847012F064698
:1005000018D1E069002820DA25F020051DE0D8F890
:10051000180000EB800006EB40003038C8F81800E7
:100520002046E1688847064608F0D2F90028EED157
:10053000012F0AD02E2E08D12046E16888477F1C63
:100540000646022F45F02005C4DBA069002803DA27
:10055000404245F00105A061E80701D025F01005F3
:10056000B6B1A6F14100192802D8203645F400653D
:100570004A463146204625604D46FFF77DFE58B17C
:10058000012806D0ED1D25F0070000F1080989E7D4
:1005900004E005F1040985E730468AE7206ABDE8F2
:1005A000F08710B5431C02E010F8011B71B1810700
:1005B000FAD14FF0013202C88C1A8C4314EAC211EE
:1005C000F9D0C01A0A0603D0C01E10BDC01A10BD53
:1005D0000A0401D0801E10BD0902FCD0401E10BDCF
:1005E0004FF0000200B5134694469646203922BFCC
:1005F000A0E80C50A0E80C50B1F12001BFF4F7AF17
:10060000090728BFA0E80C5048BF0CC05DF804EBF8
:10061000890028BF40F8042B08BF704748BF20F866
:10062000022B11F0804F18BF00F8012B7047704764
:10063000704770472DE9F0470D46994692460446AB
:1006400000F124080168880604D5E06921F0100152
:10065000216000E00120A84201DD471B00E00027E7
:10066000A1697A1902EB0900081AA0612078C00676
:1006700002D42046AFF30080002608E0D4E901212F
:100680001AF806009047206A401C761C20624E45EE
:10069000F4DB2078C0060AD52046AFF3008006E0E0
:1006A000D4E9012130209047206A401C2062381E86
:1006B000A7F10107F4DC07E0D4E9012118F80500EF
:1006C0009047206A401C2062281EA5F10105F3DC3A
:1006D0002046AFF300802078000602D50220BDE856
:1006E000F0870120FBE72DE9FF4F0C461E464FF037
:1006F000FF378BB0D2E90001DDF860800A908A46AE
:10070000C1F30A5505B93D46002108464FF00000E7
:10071000BAF1000F00F4400005DA00EB80004FF45E
:10072000400101EA50004FEA9059B9F1010F00DD94
:10073000B9460A9850EA4A000ED044F61050A5F285
:10074000FF3545432F14B8F1000F1ED07542291E06
:100750001EDDC9F100021CE0B8F1010F4FF00000EE
:1007600001D0302103E0F24305E02154401CB042A7
:10077000FBDB30460022002121540B99C1F8088090
:10078000C1E900200FB0BDE8F08FBD1B6D1CDEE796
:100790004A4600DA694206A800F05CFA06AB93E824
:1007A000070003AB83E8070050460A9907F0B0FC46
:1007B0008DE80700A0F500501F3800900398002D29
:1007C0000ADD42F21F014A460844002303A90390B0
:1007D000684607F019FF09E0A0F500504A461F38A7
:1007E000002303A90390684607F023FF8DE8070064
:1007F0000004000C03D04FF0FF30410800E0104629
:10080000B8F1000F03D00022009215461EE0751EBD
:1008100005D400F099F9303262556D1EF9D5B34612
:100820000122084302D000227F1C04E020783028F7
:1008300001D100227F1E002A099784D01DE0112DCE
:1008400007DA00F081F9303262556D1C50EA01027E
:10085000F5D1084302D00098C8B10EE00021681E0F
:1008600005E0235C625C63542254401E491C8142B3
:10087000F7DBAB46A81B401E0990002004F80B00D4
:100880000B98099AC0F80880C0E9002B7AE7112676
:100890004FF0000857E72DE9F04F88460446D21D77
:1008A00022F0070191B0D1E90001CDE90A0107F07A
:1008B000F7FF02460B98C00F01D02D2007E02068FB
:1008C000810701D52B2002E0202101EAC000032A84
:1008D000099001D0072A05DB03464146204600F077
:1008E00079F90BE12078800601D5E06900E0062067
:1008F000B8F1650F814606D0B8F1660F18D0B8F18F
:10090000670F70D131E00020B9F1110F009001DBC9
:10091000112301E009F101030AAA01A90CA8FFF7BC
:10092000E2FEDDE90C70002609F10105834647E08F
:1009300001204B4600904FF000470AAA01A90CA8DD
:10094000FFF7D1FEDDE90DB00C995D46002610B928
:1009500009F101000D18B9EB050003D4C0F1FF3611
:1009600009F10105A5EB09002BE0B9F1010F01DA4E
:100970004FF001090020B9F1110F0090484601DD48
:10098000112300E003460AAA01A90CA8FFF7ABFE59
:10099000DDE90C704D4600268346207800070AD416
:1009A000AB4500DA5D4601A8012D04DD411911F8BF
:1009B000011C302907D04F4502DA17F1040F04DA81
:1009C000012082460FE06D1EEEE7002F02DCED1BDA
:1009D0003E4403E0781CA84200DD7D1CB81B00F1FA
:1009E000010A4FF000472078000703D4AA4501DB35
:1009F0004FF0FF3A0021B7F1004F0DF143088DF899
:100A0000431024D002202B23002F01DA7F422D2314
:100A10000A21021EA0F1010000DC5FB197FBF1FC8E
:100A200097FBF1F201FB1C7C17460CF1300C08F827
:100A300001CDEEE7A8F1010003702188090501D579
:100A4000452100E06521A0F1010800F8011C09988A
:100A50000FA9A1EB0807FF1D00B10120411901EB0F
:100A6000EA70A1693844081A401EA0612078C006C7
:100A700002D42046AFF30080099828B1D4E90121BF
:100A80009047206A401C20622078C00622D520466C
:100A9000AFF300801EE0002E04DBB34502DD01A8A9
:100AA000805D00E03020D4E901219047206A401C9D
:100AB0002062761CAAF101005FEA000A0AD100F068
:100AC0003FF8C0680168405CD4E901219047206A82
:100AD000401C2062281EA5F10105DCDC07E0D4E9FA
:100AE000012118F8010B9047206A401C2062381E33
:100AF000A7F10107F3DC2046AFF30080032011B01B
:100B000041E6000001694A1C02610878704700B59F
:100B10008FB0CDE901310021059105497944CDE936
:100B2000031011466846FFF7B5FC0FB000BD00008A
:100B3000E5FFFFFF0A6802F8010B0A60704700003A
:100B4000004870473800002030B5B0F10A0271F15A
:100B500000034FEA900E4EEA817EB0EB0E0061EB8F
:100B600091014FEA101E4EEA017E10EB0E0041EBA0
:100B700011114FEA102E4EEA016E10EB0E0041EB00
:100B800011214FEA104E4EEA014E10EB0E0041EBE0
:100B90001141401841F100014FEAD00040EA417094
:100BA0004FEAD1014FEA810444EA907410EB8005CA
:100BB00044EB01046D1944EB0404521BA3414FF0B4
:100BC000000348BF0A3200D530BD401C41F100018E
:100BD00030BD00002DE9F0411F46044603260168A0
:100BE000072A01F4006004DB08B116A505E016A58C
:100BF00003E008B115A500E015A521F01000206064
:100C0000A069C01EA0610FB1401EA0612046AFF3D5
:100C100000804FB1D4E9012138469047206A401C3A
:100C20002062C01C206206E0206AFAE7D4E90121B4
:100C300015F8010B9047761EF8D22046AFF30080DE
:100C4000BDE8F0814E414E006E616E00494E460097
:100C5000696E66002DE9F047814616468AB0354830
:100C600078440DC88DE80D0032487844801C03ACF0
:100C70000DC884E80D0041F69B300844372190FBF5
:100C8000F1F290FBF1F5A5F1800501FB12041B3C8C
:100C900002D56442012000E00020DFF898A08046E1
:100CA0000027FA44AAF1BE0A0EE0E0070AD0324655
:100CB000684607EB470101230AEB810107F0B9FC05
:100CC0008DE8070064107F1C002CEED1194F7F4483
:100CD000AE3F19E0E80715D007EB04100DF1180A34
:100CE00090E80E008AE80E00C068F04201D1981921
:100CF00008903246012306A903A807F09AFC03AB2B
:100D000083E807006D10641C002DE3D14FF0010350
:100D100032466946B8F1000F03A802D007F074FC10
:100D200001E007F086FCC9E90001C9F808200AB013
:100D3000BDE8F0877083000000487047180000206D
:100D40007546FFF7F9FFAE4605006946534620F0A9
:100D50000700854618B020B5FFF7C2FABDE820406D
:100D60004FF000064FF000074FF000084FF0000B67
:100D7000AC46ACE8C009ACE8C009ACE8C009ACE8D6
:100D8000C00921F007018D46704710B50446AFF346
:100D900000802046BDE81040FFF78DBA000000003B
:100DA00030B44FF0013C50F8042B51F8043BCCFA1E
:100DB00052F4D51A20D1FCB950F8042B51F8043B59
:100DC000CCFA52F4D51A17D1B4B950F8042B51F813
:100DD000043BCCFA52F4D51A0ED16CB950F8042B5E
:100DE00051F8043BCCFA52F4D51A05D1002CDAD0D4
:100DF00030BC4FF00000704729BAB1FA81F111F010
:100E00001801D1F120008440F2D1CA40CB4012F049
:100E1000FF0213F0FF0330BCD01A704701491820BD
:100E2000ABBEFEE72600020070470000B0B50168C7
:100E300004468A688868C0074FF0000031D012F07D
:100E4000020218BFB0BD886800F00D0001281FD154
:100E500088684FF6C072C7F6FF7210400230886093
:100E60000320086001F04EF821688968C90704BFB3
:100E70000020B0BD054602E08068C00712D001F036
:100E800041F8411B20680329F6D38168C907F3D0D4
:100E9000E06D40F01000E065206E40F0010020663B
:100EA0000120B0BD0020B0BD70B582B00446002066
:100EB000019021688A68D20711D14FF6C076C7F633
:100EC000FF76886806F17F0210420BD0E06D40F09B
:100ED0001000E065206E40F001002066012002B0A5
:100EE00070BD00BF8868304040F00100886040F26B
:100EF0000830C5F200000068000221D401F002F8B9
:100F000021680A68D20717D1054602E00868C007C1
:100F100012D18868C00704D18868304040F00100D1
:100F2000886000F0EFFF401B21680328EED30868BB
:100F3000C007EBD1CAE700BF002002B070BD00BF00
:100F400040F21000C2F20000006842F663518009CE
:100F5000C0F23E51A0FB0101880900EB40000C21CA
:100F600001EB8000019001980028C7D0019801385A
:100F7000019001980028C1D0019801380190019892
:100F80000028BBD001980138019001980028B5D005
:100F900001980138019001980028E7D1AEE70000E0
:100FA000FEE7000040F2DC10C2F2000000F0CEBD0F
:100FB00070470000EFF3108072B600BFFEE700003C
:100FC000B0B582B004460020019094F85800012882
:100FD00002D1022002B0B0BD012084F858002046A2
:100FE0000D46FFF723FFE16D10B141F010014BE01A
:100FF00041F2021291430231E16521684FF6C0735C
:10100000D1F808C0C3F6FF7303EA0C0305F080456E
:101010004DF601622B44C0F2040203F100438B60E1
:101020008B68B3F1FF3F2BDC019B01330193019BE4
:1010300093421DD88B68B3F1FF3F21DC019B013344
:101040000193019B934213D88B68B3F1FF3F17DCE8
:10105000019B01330193019B934209D88B68B3F143
:10106000FF3F0DDC019B01330193019B9342D7D9D4
:10107000E06D40F0100020F00201012004E000BF0C
:10108000E16D012262F30101E165002184F858104D
:1010900002B0B0BD90F85820012A04BF022070476A
:1010A00070B582B00022019200920268B2F1A04FA6
:1010B00030D140F208324FF6006E4FF60055C5F2BF
:1010C0000002CFF6FF7ECFF6FF7552F80E4053595F
:1010D00023435B071ED4D1F800C01368BCF1000F96
:1010E00023F4604424D04B6890F8386043EA4633D8
:1010F00023431360535952F80E603343DB0723D167
:10110000136840F61F768968B343194341EA0C011E
:1011100019E000BFC16D41F02001C165012100222D
:1011200080F8582002B0BDE870400846704700BF04
:101130001460515952F80E301943C90704D111688F
:1011400040F61F73994311600021E8E7F0B581B0C4
:101150000022009290F85820012A03D1022108466B
:1011600001B0F0BD0123076880F85830BB685B0709
:1011700034D4D1E900351F26C5F3012407EB8404DC
:10118000226B05F01F05AE40C3F38463B243AB404E
:101190001A432263BA68BB6802F0040203F0080332
:1011A000D21840F0BC800A6807F114030426C2F389
:1011B0004064D1F808E006EAD25C53F82440C2F358
:1011C00004550722AA40BEF1004F24EA02040BD1C5
:1011D00043F80C401A6842F000430DE0C16D41F045
:1011E0002001C165012178E10EFA05F2224343F89E
:1011F0000C201A6822F000437B61D1E90435FC68B9
:10120000042B5FD13A6E3A6E0B68C2F3846293FA94
:10121000A3F6C3F3846C6FF3DF43B6FA86F5002BB5
:101220002C464FF6FF7E08BF6446A242C0F2070E6E
:101230000CD13A6E22F000423A660A6802EA0E03C6
:10124000C2F3846C92FAA2F2B2FA82F57A6E7A6EE6
:10125000002BC2F384622C4608BF6446A2420CD124
:101260007A6E22F000427A660A6802EA0E03C2F33E
:10127000846C92FAA2F2B2FA82F5BA6EBA6E002BC0
:10128000C2F384622C4608BF6446A2420CD1BA6EF7
:1012900022F00042BA660A6802EA0E03C2F3846CC6
:1012A00092FAA2F2B2FA82F5FA6EFA6E002BC2F34B
:1012B000846208BF6546AA4231D1FA6E22F000422C
:1012C000FA662CE0062202EA940205FA02FC0E6895
:1012D00007F1600555F823404FF20002C0F2FF32DB
:1012E00006F0F846224046EA0C06324342F000423D
:1012F00045F823200A698B6955F8226026F080762C
:10130000334345F822300A690B7F55F82260012BE0
:1013100026F0007608BF06F1007645F82260BA682C
:101320000D68D20750D1CA68D7F8B0602B466FF36A
:10133000DF4326EA030C4FF6FF7602F01804C0F2F2
:101340000706E64000242E40C4F27F0446EA0C065D
:10135000A242C7F8B06037D193B195FAA5F2B2FABC
:1013600082F2013202F01E03092B02F01F0310D893
:1013700001229A4003EB430342EA035315E000BF06
:10138000012202EB956202F01E030A2B02F01F03FA
:10139000EED3012200269A4003EB4303CFF62066EA
:1013A00006EB03531A4342F00073C3F3406607EBA6
:1013B00086068A687569C3F3045307249C40A543D5
:1013C0009A402A4372610D680021C8F208010D425B
:1013D00000F0828040F2083CC5F2000CDCF80040CE
:1013E0000021CCF221318D4204F0E07E04D01021A6
:1013F000C9F2C0018D4241D1B7F1A04F4FF00001B9
:1014000008BF14F4000268D1DCF8001042F6635201
:1014100021F0E07141EA0E0141F40001CCF8001026
:1014200040F21001C2F200010968C0F23E5289097F
:10143000A1FB0212910901EB41010C2202EB810197
:1014400000910099002947D0009901390091009935
:10145000002941D00099013900910099E1B3009928
:10146000013900910099B9B30099013900910099AF
:1014700000294FF00001E7D12FE000BF0021CCF29E
:1014800052718D4210D10021B1EB1E6F0CD1ACF521
:1014900002718F4220D0DCF8001021F0E07141EAA7
:1014A0000E0141F0807115E0ACF502718F424FF0F2
:1014B000000112D00022CCF68432954208BF14F409
:1014C00080020AD1DCF8001021F0E07141EA0E013F
:1014D00041F48001CCF800100021002280F858204F
:1014E000084601B0F0BD00000068006C70470000C5
:1014F000B0B582B000210028019155D0C16D39B935
:10150000044600F009F920460021216684F85810AD
:101510000268916889004FF6C071C5F6FF7102D567
:1015200093680B4093609368DB002ED4936801F1BD
:101530008051194041F08051916040F21001C2F297
:101540000001096842F663538909C0F23E53A1FBCA
:1015500003139909022303EB410101910199A1B100
:10156000019901390191019979B1019901390191EB
:10157000019951B1019901390191019929B101995B
:101580000139019101990029EAD19168C90011D46A
:10159000C16D4FF0010E41F01001C165016E41F0C7
:1015A0000101016608E000BF4FF0010E704602B075
:1015B000B0BD00BF4FF0000E9368C46D03F004038C
:1015C00004F010041B19C36D68D123F48173023336
:1015D000C3659368DB071AD140F2083C4FF600540C
:1015E0004FF60063C5F2000CCFF6FF74CFF6FF7321
:1015F0005CF804405CF803302343DB0707D1436801
:10160000DCF8004024F47C142343CCF80030437F02
:10161000C46BD0E902C144EA4333194390F8243043
:1016200041EA0C01012B41EA034306D1816A0024FF
:10163000CFF6FE7404EB41410B43C46A24B1016B45
:1016400004F4787421430B43D16844F20704CFF6C5
:10165000F07421401943D1601169436B21F040615E
:10166000194311619168090743D490F83810037F3A
:10167000490041EA8331D36844F20204A343194389
:10168000D160036914698BB144F480311161D2F8DF
:10169000C01043F6FF74A1430B4310E043F0100267
:1016A0004FF0010EC265704602B0B0BD24F4803127
:1016B0001161D2F8C01043F6FF7321EA0303C2F8A8
:1016C000C03090F84010136901290FD140F2FD712C
:1016D00023EA010CD0E91134D0E9131543EA0C03D5
:1016E00023431943294341F0010301E023F001039F
:1016F00013614169136B012923F00F0302D1016AC1
:1017000001390B431363C26D012161F30102C2650C
:10171000704602B0B0BD000010B598B0044600207D
:101720001790CDE91500CDE9130002A84421FEF77A
:1017300057FF206840F20011C5F20001884231D005
:10174000B0F1A04F67D14FF4004002904FF000502D
:10175000119002A800F01CFD002818BFFFF72AFC1A
:1017600040F2C801C2F200010A6841F24C00C4F222
:101770000200531C0B6042B9016841F40051016042
:10178000016801F4005101910199016841F00201E1
:101790000160006800F00200019001984FF4805051
:1017A0002DE000BF4FF4004002904FF00050119028
:1017B00002A800F0EDFC002818BFFFF7FBFB40F289
:1017C000C801C2F200010A6841F24C00C4F20200F2
:1017D000531C0B6042B9016841F40051016001687B
:1017E00001F4005101910199016841F00201016089
:1017F000006800F00200019001984FF4004013903F
:10180000032014900020159040F20040C4F6000020
:1018100013A900F091FA18B010BD00002DE9F047AF
:1018200040F208390446C5F20009D9F80000D4F89E
:1018300018800D46B8F1080F00F01F0A02D10827E2
:1018400012E000BFBAF1090F00F28480012000FA13
:101850000AF040F22121084200F07C802068C06834
:10186000C00740F07D80042700F04CFB21680A6827
:101870003A423DD0E06D40F40070E065C86810F475
:10188000406F0FD1607F68B9086800070AD5E06D26
:1018900020F48070E065E06DC00403D4E06D40F09A
:1018A0000100E065A9F502708142084608BF4FF0CB
:1018B000A0400246BAF1090F08BF0A46BAF1050F67
:1018C00008BF0A46BAF1000F08BF0A46884208BF9F
:1018D0000246D068B8F1080F02D1082003E000BF2B
:1018E000400401D40C2008600020BDE8F08700BF50
:1018F0000646681C2AD065B900F004FB2168086818
:1019000038420FD008683842F6D0B3E7086838424A
:10191000B0D100F0F7FA801B2168A842F6D9086818
:101920003842F3D1E06D40F00400E065002084F817
:1019300058000320BDE8F087086838429AD108684B
:10194000384297D1086838427FF494AF086838422B
:10195000F2D08FE7D9F8000010F4604F3FF483AF66
:10196000E06D40F02000E0650120BDE8F087000058
:1019700070B540F20014C5F20004D4F808520168B2
:101980008968490703D490F85810012902D1022030
:1019900070BD00BF012180F858100646FFF784FA99
:1019A00020B1002086F85800012070BD3168F26D2A
:1019B00040F601739A43304602F580760A46A1420A
:1019C00008BF4FF0A042531AB3FA83F35B0905F046
:1019D0001F0CDB07C66502D1BCF1000F03D1C66D39
:1019E00026F48016C665C66D0025F6044FF0000685
:1019F00044BF066E26F0060606661C260E6080F8BA
:101A000058504BB9BCF1090F18D8012303FA0CF355
:101A100040F22126334211D0CA68920104D5C26D2A
:101A2000012363F30D32C26588684FF6C072C7F6B2
:101A3000FF72104004308860002070BDC16D41F419
:101A40008011C165D16889015CBF002070BDC16D86
:101A5000012262F30D31C165002070BD014690F88E
:101A60002500022828D180B50868D1E910CE8A6CFB
:101A7000036823F00E030360136823F4807313607C
:101A8000026822F0010202600EF01F00012202FA39
:101A900000F0CCF80400D1E913205060486D30B15B
:101AA000026822F480720260D1E9160242600020CE
:101AB000BDE8804003E000BF0420C863012001228C
:101AC00081F82520002281F82420704790F8251005
:101AD000022931D180B50168D0E910CE826C0B6843
:101AE00023F00E030B600B6823F001030B601168F9
:101AF00021F4807111600EF01F02012101FA02F23F
:101B0000CCF80420D0E913325A60426D32B1136828
:101B100023F480731360D0E91623536080F82510F6
:101B2000826B002180F824100AB190470021BDE8A3
:101B300080400846704700BF0421C1630121002294
:101B400080F8251080F8242008467047B0B5D0E909
:101B500010C30268DCF8001003F01F030424D2F85D
:101B600000E09C400C4218BF1EF0040520D1022466
:101B70009C400C4218BF1EF0020529D1D94009072C
:101B800014D51EF0080108BFB0BD116821F00E0188
:101B90001160012101FA03F2CCF80420C16380F83E
:101BA0002510416B002280F8242069B9B0BD00BF28
:101BB0001168890603D4116821F004011160CCF882
:101BC0000440016B0029F1D0BDE8B040084700BFD8
:101BD0001168890606D4116821F00A0111600121FB
:101BE00080F82510CCF80440C16A0022002980F852
:101BF0002420E9D1DAE7000000284FF0010100F0CD
:101C000085802DE9F04740F2000CC4F2020C036815
:101C10004FF6F8320CF5816ECBF6FD72734538BF86
:101C200002F580624CF6CD441A44CCF6CC44A2FBBB
:101C3000042903F0FC02A2F10802A2FB04280CF51F
:101C400080646FF00305D0E902A607693CBF002459
:101C5000C4F2020405EA9905C0E91045022480F89F
:101C600025401C6847F6F07224EA020232434669B6
:101C70003A4387693243C6693A43076A32433A4373
:101C800042EA0A021A600CF50262734538BF0CF58D
:101C90000062AB180CF50862C264C8F3041201FAC2
:101CA00002F540F68401BAF5804FC4F20201836464
:101CB000056505D1002242601A600D6018E000BF82
:101CC0004268D4B2013A032A4FF000021C600D6052
:101CD0000ED8631E01EB830747F87C2F03F01F0229
:101CE00001239340C1F8C030BC313A4602E000BF46
:101CF00000210023C0E9152100210122C365C16331
:101D000080F8252080F82410BDE8F0470846704789
:101D1000B0B5044600F0F6F8054640F20400C2F201
:101D200000004068611C18BF044400BF00F0EAF8DE
:101D3000401BA042FAD3B0BD2DE9F04F83B00E682E
:101D4000002E00F0CF8000F1200241F2004C009202
:101D500000F13847C4F6000C06224FEAB72560456B
:101D600008BF0522052D38BF4FEAB72200250027FE
:101D70004FF0000801920AE00E6808F1010836FAF7
:101D800008F207F1020705F1040500F0AB8001221B
:101D900002FA08FE16EA0E09EED0D1F804C00322BA
:101DA0000CF0030BABF1010602FA07F4012E6FEA07
:101DB000040A11D88468CE6804EA0A04BE40344399
:101DC0008460446824EA0E06CCF3001404FA08F494
:101DD0002643466006E000BFBBF1030F02D14FF07F
:101DE000030B21E0C6688C6806EA0A06BC4026435D
:101DF000BBF1020FC66017D16FF00302009B02EA2D
:101E0000580605F01C020F2453F806C004FA02FE1F
:101E10000C692CEA0E0C04FA02F242EA0C029A5106
:101E2000D1F804C00CF0030B02680BFA07F302EAC6
:101E30000A021A431CF4403F02609DD041F2600345
:101E4000C4F202031A6840F2004E42F001021A6026
:101E50001A68C4F2010E02F001020292029A28F0FE
:101E600003024FF6084C7244CFF6FF7C52F80C3058
:101E700005F00C060F24B440A343019C04FA06F6B7
:101E8000334342F80C30DEF808204B6842EA09067A
:101E900040F20C4CDC0258BF22EA0906CEF808607A
:101EA000C4F2010CDCF800209C0242EA090658BF8B
:101EB00022EA0906CCF80060DEF804209C0342EA1E
:101EC000090658BF22EA0906CEF80460DEF80020B1
:101ED000DB0342EA090658BF22EA0906CEF8006091
:101EE0004AE700BF03B0BDE8F08F0000006908407A
:101EF00018BF0120704700001823002A08BF2823BC
:101F0000C150704740F2E020C2F200000068704704
:101F100040F2040040F2E021C2F20000C2F20001EF
:101F200040680A68104408607047000080B50320CC
:101F300000F08CF8002000F009F800281CBF0120F8
:101F400080BD00F02BF8002080BD0000B0B540F24D
:101F50000405C2F200056968F1B1044640F21000C0
:101F6000C2F200004FF47A720068B2FBF1F1B0FBEC
:101F7000F1F000F09BFE01460F2C4FF001000AD853
:101F8000002918BFB0BD4FF0FF302146002200F0FD
:101F900031F800202C60B0BD0120B0BD82B041F20C
:101FA0005800C4F20200816841F00101816081683B
:101FB00001F0010101910199016841F08051016036
:101FC000006800F080500090009802B000F0D6B891
:101FD000002848BF704700F01F01012202FA01F1FA
:101FE0001C2202EAD0004EF20012CEF20002815012
:101FF0007047000010B54EF60C5CCEF2000CDCF819
:102000000030C3F3022E8EF00704042C28BF0424F2
:10201000BEF103034FF0FF3E0EFA04F438BF002375
:10202000A14399400EFA03F39A43114300F00F02C3
:1020300000F160430901043A03F564436244002857
:1020400048BF02F10C03197010BD00004EF60C5190
:10205000CEF200010A684FF6FF031A4060F30A222D
:1020600042F0806040F0FD700860704747F2140154
:10207000C4F2000151F8142CB0F5007F3CD00028C8
:1020800074D1C86E02F4C06220F48070B2F5806F23
:10209000C8662FD151F8140C012262F34A2041F88E
:1020A000140C40F21000C2F20000006832225043CB
:1020B0004DF68362C4F21B32A0FB0202900C00BFFB
:1020C0000A68520511D5421C0FD00A6852050CD57A
:1020D00058B10A68520508D5012806D00A68520589
:1020E00003D50228A0F10400EAD10868400544BFE6
:1020F0000320704700207047C86E02F4C06240F4AD
:102100008070B2F5806FC866F4D151F8140C0122CA
:1021100062F34A2041F8140C40F21000C2F20000B1
:102120000068322250434DF68362C4F21B32A0FB9A
:102130000202900C0A68520511D5421C0FD00A68A1
:1021400052050CD558B10A68520508D5012806D0A9
:102150000A68520503D50228A0F10400EAD10868F4
:10216000400544BF03207047C4E700BF022060F36E
:102170004A2241F8142C00207047000047F2080062
:10218000C4F20000016841F4804101607047000022
:102190002DE9F04182B00446807841F288060007BC
:1021A000C4F2020602D400202FE000BF56F8300C23
:1021B0005FEAC0080BD456F8300C40F0805046F867
:1021C000300C56F8300C00F080500190019847F226
:1021D0000007C4F20007386840F480703860FFF7E9
:1021E00091FE05463868C00500F1D680FFF78AFEEB
:1021F000401B0228F6D90320B8F1000F05D456F889
:10220000301C21F0805146F8301C2168CA0713D1D8
:102210008A0719D44A071FD40A0725D48A062BD463
:102220004A0631D40A0637D4CA053DD48A0543D4B8
:102230004A0549D457E000BF3268636822F00302C0
:102240001A4332608A07E5D53268A36822F00C028F
:102250001A4332604A07DFD53268E36822F0300261
:102260001A4332600A07D9D53268236922F0C002C6
:102270001A4332608A06D3D53268636922F4406219
:102280001A4332604A06CDD53268A36922F440521F
:102290001A4332600A06C7D53268E36922F4404225
:1022A0001A433260CA05C1D53268236A22F440322B
:1022B0001A4332608A05BBD53268636A22F4402231
:1022C0001A4332604A050ED53268A36A22F44012DE
:1022D0001A43B3F5801F326005D156F87C2C42F4C6
:1022E000801246F87C2C0A050ED53268E36A22F487
:1022F00040021A43B3F5800F326005D156F87C2CAA
:1023000042F4801246F87C2CCA040ED53268236B46
:1023100022F040721A43B3F1807F326005D156F843
:102320007C2C42F4801246F87C2C8A040ED532684C
:10233000636B22F040621A43B3F1006F326005D143
:1023400056F87C2C42F4801246F87C2C4A040ED5B8
:102350003268A36B22F040621A43B3F1006F32601F
:1023600005D156F87C2C42F4801246F87C2C0904E6
:102370000ED53168E26B21F040511143B2F1805F1C
:10238000316005D156F87C1C41F4803146F87C1C44
:1023900002B0BDE8F08100BFB06810F4407010D00A
:1023A000216C88420BD0B068B16820F4407041F4D1
:1023B0008031B160B16821F48031B160B060C00794
:1023C0000CD1B068216C20F440700843B06000204C
:1023D000B8F1000F3FF519AF11E700BFFFF792FD0D
:1023E000054641F2883700BFB0688007E9D4FFF79F
:1023F00089FD401BB842F7D9FDE600002DE9F04702
:10240000002863D042F2000AC4F2020A0446DAF855
:1024100000000D4600F00F0088420CD2DAF80000F0
:1024200020F00F002843CAF80000DAF8000000F09E
:102430000F00A8424AD1216841F20808C807C4F237
:10244000020803D1880740F1D080B5E0606858F8F1
:10245000082C022838D003283CD1920136D5D8F870
:102460000420D8F8043042F20046C3F3031302F00C
:102470000302D8F804700133C0F2F406032A04BF43
:1024800043F20066C0F26E16B6FBF3F2D8F80430E1
:10249000C7F306277A43C3F34163022707EB4303DD
:1024A000B2FBF3F24BF20043C0F2C4439A4259D953
:1024B000D8F8002012F0F00F49D0890752D5A16852
:1024C00000294FD143E000BF910305D40120BDE8AE
:1024D000F08700BF5105F9D5D8F8001001F00C01C4
:1024E00004293FD0D8F8001001F00C01082939D098
:1024F000D8F8001001F00C010C2933D1D8F80410E1
:10250000D8F8042042F20047C2F3031201F003019D
:10251000D8F804300132C0F2F407032904BF43F2B3
:102520000067C0F26E17B7FBF2F1D8F80420C3F3CE
:1025300006235943C2F34162022303EB4202B1FB7B
:10254000F2F14BF20042C0F2C44291420AD9D8F8EB
:102550000010082262F307114FF00109C8F80010BB
:1025600002E000BF4FF00009D8F8001021F003018D
:102570000843C8F80000FFF7C5FC064641F288375B
:10258000D8F80000616800F00C00B0EB810F07D0B4
:10259000FFF7B8FC801BB842F2D90320BDE8F087F2
:1025A0002168880708D4B9F1000F1ED0D8F80000C0
:1025B00020F0F00017E000BF480705D5D8F800006C
:1025C00040F4E060C8F80000080706D5D8F800001D
:1025D000072262F30D20C8F80000D8F80000A268B6
:1025E00020F0F0001043C8F80000DAF8000000F016
:1025F0000F00A8421BD9DAF8000020F00F00284392
:10260000CAF80000FFF77EFC064641F2883700BF9B
:10261000DAF8000000F00F00A84207D0FFF772FCC4
:10262000801BB842F4D90320BDE8F0872168480731
:1026300007D5D8F80000E26820F4E0601043C8F83D
:102640000000080708D5D8F80000216920F4605080
:1026500040EAC100C8F80000D8F8000042F200418A
:10266000C0F2F40100F00C00042808462DD0D8F880
:10267000000000F00C00082843F20060C0F26E1069
:1026800023D0D8F8002002F00C020C2A1CD1D8F874
:102690000420D8F8043002F00302C3F30313D8F87F
:1026A00004700133032A08BF0146B1FBF3F0D8F8E8
:1026B0000410C7F30627C1F341610222784302EBFD
:1026C0004101B0FBF1F000E00020D8F8001048F61E
:1026D000EC72C1F30311C0F60002515C40F210022B
:1026E00001F01F0120FA01F140F20400C2F20000E3
:1026F0000068C2F200021160BDE8F047FFF726BC97
:1027000040F2100041F20801C2F20000C4F20201DE
:102710000068096848F6FC72C1F30221C0F60002A5
:10272000515C01F01F01C8407047000040F21000EA
:1027300041F20801C2F20000C4F202010068096817
:1027400048F6FC72C1F3C221C0F60002515C01F0F0
:102750001F01C8407047000041F20C01C4F20201A1
:1027600051F8040C42F20042C0F2F40200F00C00F6
:102770000428104608BF704751F8040C00F00C0004
:10278000082843F20060C0F26E1025D051F8043CD6
:1027900003F00C030C2B1CBF0020704780B5D1F850
:1027A00000C00B680CF0030CC3F3031E0B680EF1A2
:1027B000010EBCF1030F08BF02460968B2FBFEF030
:1027C000C3F30623C1F341610222584302EB4101E6
:1027D000B0FBF1F0BDE8804070470000002804BF66
:1027E000012070472DE9F04182B00446007841F2A3
:1027F0000006C007C4F202061ED1207880073DD42F
:102800002078000764D42078400700F18780207882
:10281000800600F1D980E569002D00F04282B068A1
:1028200000F00C000C2840F03181012D40F08E8129
:10283000012002B0BDE8F081B06800F00C01F06842
:10284000082961D0032281F00C0122EA000008442B
:10285000B0FA80F0400957D161683068B1F5803F27
:1028600007D0B1F5A02F40F0E38040F48020306025
:10287000306840F480303060E4E000BFB068F16858
:1028800000F00C00042871D001F0030180F00C006E
:1028900081F002010844B0FA80F0400966D1E16895
:1028A0003068002900F0E08040F480703060FFF76D
:1028B00029FB05463068400500F10A81FFF722FB3D
:1028C000401B0228F6D9032002B0BDE8F08100BF0A
:1028D0006169D6F89400002900F0948040F001006E
:1028E000C6F89400FFF70EFB054600BFD6F894002B
:1028F00080073FF588AFFFF705FB401B0228F5D99D
:10290000032002B0BDE8F081306880037FF575AF29
:10291000606800287FF471AF3EE000BFB06D5FEAF1
:10292000C00808D4B06D40F08050B065B06D00F0C4
:1029300080500190019847F20007C4F20007386800
:10294000C0052DD4386840F480703860FFF7DAFA9B
:10295000054600BF3868C00522D4FFF7D3FA401BF4
:102960000228F7D9032002B0BDE8F08130684005A5
:1029700001D5E06880B17068216920F0FE4040EA2E
:102980000160706040F20400C2F200000068FFF7CE
:10299000DDFA00283FF434AF012002B0BDE8F08139
:1029A000A168D6F89000012908D0052940F0AE8032
:1029B00040F00400C6F89000D6F8900040F0010006
:1029C000C6F89000AEE000BFA169D6F898000029D3
:1029D00000F0868040F00100C6F89800FFF792FAF8
:1029E000054600BFD6F8980080073FF514AFFFF703
:1029F00089FA401B02284FF00300F3D902B0BDE86A
:102A0000F08100BF20F00100C6F89400FFF77AFAC9
:102A1000054600BFD6F8940080077FF5F4AEFFF7B7
:102A200071FA401B0228F5D9032002B0BDE8F081FD
:102A300020F4803030603068002920F4802030603D
:102A400000F0BE80FFF75EFA054600BF30688003E5
:102A50003FF5D3AEFFF756FA401B6428F6D90320A2
:102A600002B0BDE8F08100BF20F480703060FFF755
:102A700049FA0546306840057FF5C2AEFFF742FAD5
:102A8000401B02284FF00300F4D9B7E7306820F06C
:102A900080703060FFF736FA022D05460CD100BF7A
:102AA0003068800140F1B880FFF72CFA401B022803
:102AB0004FF00300F4D9A1E73068800140F1EA80CB
:102AC000FFF720FA401B02284FF00300F4D995E7E6
:102AD0007068216920F0FE4040EA016070608FE676
:102AE00020F00100C6F89800FFF70CFA054600BF79
:102AF000D6F8980080077FF58EAEFFF703FA401BEB
:102B000002284FF00300F3D978E700BF20F001005E
:102B1000C6F89000D6F89000002920F00400C6F80E
:102B200090005DD0FFF7EEF9054641F2883700BF0F
:102B3000D6F89000800765D4FFF7E4F9401BB8424F
:102B4000F6D9032002B0BDE8F08100BFF068216A29
:102B500000F003028A427FF41FAF626A6FF00F0336
:102B600000F0F00103EB021291427FF415AFA16A6D
:102B700000F4FE42B2EB012F7FF40EAFE16A00F0E9
:102B80007842B2EBC16F7FF407AF226B0023CFF620
:102B9000E07303EA025200F4C001A2F50012914270
:102BA0007FF4FAAE616B4FF07E4202EA016100F001
:102BB000C06001F17E4188427FF4EEAE71E000BF5B
:102BC000FFF7A0F9054600BF306880037FF515AE1A
:102BD000FFF798F9401B64284FF00300F4D90DE784
:102BE000FFF790F9054641F2883700BFD6F890000C
:102BF000800707D5FFF786F9401BB8424FF0030066
:102C0000F4D9FBE6B8F1000F3FF501AEB06D20F04E
:102C10008050B065FBE500BFF06848F20C01C0F2DF
:102C20009F1104F1200700EA010C8ECF6FF00F0016
:102C3000D4E90C5400EB02100022CFF6E07241EA16
:102C40000C0102EA05520843A2F500124FF07E453E
:102C500040EA032005EA0465104305F17E4540EA99
:102C6000C7602843F060306840F080703060F068E2
:102C700040F08070F060FFF745F90446306880014D
:102C80000FD4FFF73FF9001B02284FF00300F5D9DE
:102C9000B4E600BFF0684FF6FC71CFF6EE61084075
:102CA000F060002002B0BDE8F0810000411E00206D
:102CB000B0EB116F1CBF012070474EF21002CEF234
:102CC000000251604EF62351CEF20001F0230B704A
:102CD000072190601160704790F88410012904BFAB
:102CE000022070472421C0F8881001680A680B6828
:102CF00022F0005223F001030B60002343660A60B8
:102D00002021C0F8881080F884300020704700002F
:102D1000D0F88C30202B1CBF0220704710B5044621
:102D200000294FF0010018BF002A01D110BD00BFDB
:102D3000E06600202067204604F052FDE16E01208D
:102D4000012918BF10BD206810210162206850E8D9
:102D5000000F216840F0100041E80002DAB120685D
:102D600050E8000F216840F0100041E8000292B1E5
:102D7000206850E8000F216840F0100041E8000290
:102D80004AB1206850E8000F216840F0100041E887
:102D90000002002ADAD1002010BD000040F23C21E0
:102DA000C2F20001884218BF704770B582B040F28D
:102DB0007806C2F20006B06A43F25231C0F237011F
:102DC00088421BD0B06A43F25231C0F238018842C7
:102DD0003FD196ED070A9FED251AF478307920EE61
:102DE000010A251810EE100A06F030F841EC100B1D
:102DF00040F2CC00C2F200001DA113E096ED040ADF
:102E00009FED1A1A7478B07820EE010A251810EE9A
:102E1000100A06F01BF841EC100B40F2CC00C2F295
:102E2000000018A12A4623468DED000BFDF7E2FABB
:102E300040F2CC04C2F200042046FDF7B2FB82B29D
:102E400040F23C20C2F2000021464FF0FF3300F078
:102E50007FFC40F23C2006F12801C2F20000032270
:102E600002B0BDE87040FFF753BF00BF0000C8428A
:102E70005233383A25642C25642C252E31662525BD
:102E80000D0A00005233373A25642C25642C252E78
:102E9000316625250D0A00007047000090F8842057
:102EA000012A04BF02207047B0B52422C0F8882050
:102EB0000268D0F864E0D2F800C01368BEF1000FD9
:102EC00023F001031360936823F0606341EA030178
:102ED000916019D0936891684AF2FC1E490FC0F6C0
:102EE000000E4AF204251EF80140C0F60005695C98
:102EF000C3F34263E400B4FBF1F11EF80340EB5C62
:102F0000E500B5FBF3F301E001210123A0F86A100D
:102F10002021A0F86830C2F800C0C0F88810002155
:102F200080F884100020B0BD90F88420012A04BFEE
:102F300002207047B0B52422C0F888200268D0F87B
:102F400064E0D2F800C01368BEF1000F23F0010363
:102F50001360936823F0604341EA0301916019D044
:102F6000936891684AF2FC1E490FC0F6000E4AF2BF
:102F700004251EF80140C0F60005695CC3F34263F6
:102F8000E400B4FBF1F11EF80340EB5CE500B5FB97
:102F9000F3F301E001210123A0F86A102021A0F839
:102FA0006830C2F800C0C0F88810002180F8841092
:102FB0000020B0BD7047000070470000704700005F
:102FC00070B5026840F62F04D369116896681C40FA
:102FD000202C0BD101F0200406F080552D1916D0BD
:102FE000416F61B3BDE87040084700BF40F60F0570
:102FF0002B420CD00125C1F2000506EA050C40F277
:103000002015C0F200450D4015EB0C0524D1C46E0F
:10301000DD0615D5012C13D111F0100510D01021AB
:1030200011629168490661D4B0F85C10B0F85E2076
:10303000B0F85E30002B18BF914240F0518270BD55
:10304000DD0215D516F4800512D04FF480111162FF
:10305000BDE87040FFF7B0BFDD0718BF11F4807501
:1030600040F020819D0706F0010E00F1278130E13C
:103070001A0606D501F0800206F40006921940F007
:10308000AF825A0640F1028111F0400200F0FE804A
:10309000016851E8001F026821F0400142E8001376
:1030A000DBB1016851E8001F026821F0400142E8ED
:1030B000001393B1016851E8001F026821F040013C
:1030C00042E800134BB1016851E8001F026821F08B
:1030D000400142E80013002BDAD12021C0F888100B
:1030E00000218167BDE8704000F00ABCD0F8801074
:1030F0000A685368B0F85C4099B2002900F0B880C3
:10310000A14280F0B580A0F85E301168890600F118
:10311000A38000BF016851E8001F026821F480719C
:1031200042E80013E3B1016851E8001F026821F48E
:10313000807142E800139BB1016851E8001F0268EA
:1031400021F4807142E8001353B1016851E8001F77
:10315000026821F4807142E80013002BDAD100BF2D
:10316000016851E8021F026821F0010142E80213E0
:10317000BBB3016851E8021F026821F0010142E877
:10318000021373B3016851E8021F026821F00101C4
:1031900042E802132BB3016851E8021F026821F0D4
:1031A000010142E80213002BDAD11AE0016851E86C
:1031B000021F026821F0400142E80213DBB10168FE
:1031C00051E8021F026821F0400142E8021393B166
:1031D000016851E8021F026821F0400142E8021331
:1031E0004BB1016851E8021F026821F0400142E83A
:1031F0000213002BDAD12021C0F88C100021C16607
:10320000016851E8001F026821F0100142E8001334
:10321000DBB1016851E8001F026821F0100142E8AB
:10322000001393B1016851E8001F026821F01001FA
:1032300042E800134BB1016851E8001F026821F019
:10324000100142E80013002BDAD1D0F880100446B8
:103250000846FEF703FC204602210167B0F85C1027
:10326000B0F85E20891A89B2BDE87040FFF796BDBC
:103270008C427FF4E4AE126892067FF5E0AE022243
:103280000267BDE87040FFF789BD00BF1A0240F138
:10329000B38111F0804200F0AF81BDE87040FFF7CC
:1032A00089BE00BF01251562D0F8905045F0010598
:1032B000C0F890509D0706F0010E0AD5BEF1000F30
:1032C00007D002241462D0F8904044F00404C0F8FF
:1032D00090405C070AD5BEF1000F07D004251562A7
:1032E000D0F8905045F00205C0F890501D070CD55D
:1032F00001F0200555EA0C0507D008251562D0F825
:10330000905045F00805C0F890501D050BD511F000
:10331000806508D04FF400651562D0F8905045F0F4
:103320002005C0F89050D0F89050002D3FF487AEA3
:103330009B060BD501F0200106F08053C91805D07B
:10334000416F19B10446884722682046D0F8901092
:10335000926801F0280102F04002891806D1044663
:10336000FFF72CFE0020C4F8900070BD016851E802
:10337000001F026821F4907142E80013DBB101687C
:1033800051E8001F026821F4907142E8001393B1E4
:10339000016851E8001F026821F4907142E80013AF
:1033A0004BB1016851E8001F026821F4907142E8B6
:1033B0000013002BDAD14FF6FE71CEF6FF7100BF7D
:1033C000026852E8022F03680A4043E80226C6B1A9
:1033D000026852E8022F03680A4043E8022686B1D9
:1033E000026852E8022F03680A4043E8022646B109
:1033F000026852E8022F03680A4043E80226002EC2
:10340000DED1C16E012924D1016851E8001F026894
:1034100021F0100142E80013DBB1016851E8001F00
:10342000026821F0100142E8001393B1016851E8ED
:10343000001F026821F0100142E800134BB101683F
:1034400051E8001F026821F0100142E80013002B30
:10345000DAD12021C0F88C100021C16602684167D2
:103460009168490640F1C480016851E8021F026872
:1034700021F0400142E80213DBB1016851E8021F6C
:10348000026821F0400142E8021393B1016851E85B
:10349000021F026821F0400142E802134BB10168AB
:1034A00051E8021F026821F0400142E80213002B9C
:1034B000DAD1D0F88010002900F09A8046F68D32DB
:1034C000C0F60002044608468A63FEF7FFFA0028A9
:1034D0003FF4B5ADD4F88000816BBDE8704008477B
:1034E000891A00BF026852E8002F036822F4907224
:1034F00043E80026DEB1026852E8002F036822F498
:10350000907243E8002696B1026852E8002F0368E3
:1035100022F4907243E800264EB1026852E8002F70
:10352000036822F4907243E80026002EDAD14FF6A9
:10353000FE72CEF6FF7200BF036853E8023F0668D2
:10354000134046E80235C5B1036853E8023F0668F8
:10355000134046E8023585B1036853E8023F066828
:10356000134046E8023545B1036853E8023F066858
:10357000134046E80235002DDED12022C0F88C2011
:103580000022C266426700BF026852E8002F03684B
:1035900022F0100243E80026DEB1026852E8002F54
:1035A000036822F0100243E8002696B1026852E850
:1035B000002F036822F0100243E800264EB1026893
:1035C00052E8002F036822F0100243E80026002E84
:1035D000DAD1022289B20267BDE87040FFF7DEBB94
:1035E000816F00293FF42BADBDE87040084700BF54
:1035F000BDE87040FFF7E2BCDA017FF520ADB1F124
:10360000FF3FC8BF70BDBDE87040FFF745BC00007C
:1036100010B5D0B10446D0F8880028B9002084F84D
:103620008400204600F026F82420C4F88800206892
:10363000A16A026822F00102026011B1204603F083
:103640007BF9204603F080FF10B1012010BD00BFC0
:103650002168486820F490404860886820F02A007B
:103660008860086840F0010220460A60BDE810400A
:1036700003F0D6B970B598B0044602A8002508300A
:103680003C211795CDE91555CDE91355FCF7A8FF59
:10369000206843F60001C4F20101884202D018B04C
:1036A00070BD00BF0120CDE9020502A8FEF770FD44
:1036B000002818BFFDF77EFC41F24C00C4F2020066
:1036C0004169002641F480414161416901F4804132
:1036D00001910199016841F001010160006813A99D
:1036E00000F00100019001984FF4C0601390022097
:1036F0001490072017904FF09040CDE91566FEF723
:103700001BFB40F2DC150820C2F20005C4F20200E7
:103710001821802285E843002846C5E90362C5E9EF
:103720000566C5E90766FEF767FA002818BFFDF7CA
:1037300041FC252000210022C4F88050AC62FEF735
:1037400059FC2520FEF744FC18B070BD70470000FE
:103750002DE9F04381B00446D0F88800202809D133
:1037600000294FF0010018BF002A07D101B0BDE8C1
:10377000F08300BF022001B0BDE8F0830020C4F850
:10378000900021201D460E46C4F888001746FEF71B
:10379000B9FBA4F85470A4F85670A1688146B1F53D
:1037A000805F02D12069002866D037460020B4F837
:1037B00056202168002A67D06A1C28D0002D53D0DB
:1037C000804600BFC86900060AD4FEF79BFBA0EB49
:1037D0000900A84200F2848021680868F2E700BF6F
:1037E00017B117F8010B04E038F8020B00276FF34C
:1037F0005F208862B4F856000138A4F85600B4F887
:1038000056000028DED13FE0CA69120609D4CA6911
:10381000120606D4CA6912065CBFCA695FEA026270
:10382000F2D51FB117F8012B05E000BF30F8022BCD
:1038300000276FF35F228A62B4F85620013AA4F899
:103840005620B4F85620002AE1D11DE030F8022BB2
:1038500000276FF35F228A62B4F85620013AA4F879
:103860005620B4F856207AB1CA69120636D5002F10
:10387000ECD017F8012BEEE700273046B4F85620BD
:103880002168002A7FF498AFC86940061ED42DB382
:10389000681C14D1C86940062AD4C869400627D4D8
:1038A000C869400624D4C86940064FF00000F1D52D
:1038B0000DE000BF20680168C069400618D4FEF71B
:1038C00021FBA0EB0900A842F4D909E00020202147
:1038D000C4F8881001B0BDE8F08300BFFEF712FB0A
:1038E00003202021C4F8881001B0BDE8F08300BF98
:1038F00000202021C4F8881001B0BDE8F08300004A
:1039000070470000FEE7000040F2D021C2F2000143
:10391000887800228A707047B0B500F0E5F8FFF7AC
:10392000F3FF40F27804C2F20004012860712FD145
:103930000020002500F012F92078411CC8B203389D
:1039400018BF08462070A571C0B2022824D00128F3
:103950002AD038BB6079032836D0022822D140F221
:10396000D820C2F2000090ED010A94ED051AB4EEE1
:10397000410AF1EE10FA67DC94ED061AB4EE410A42
:10398000F1EE10FA60DB607801306070B0BD00BF0E
:103990002078C0B20228DAD16079042804BF002060
:1039A000C4F80100B0BD00BF6079042838D00328F6
:1039B00022D00228F6D1A0790130C1B2043918BF53
:1039C0000146A171B0BD00BF40F2D820C2F2000094
:1039D00090ED000A94ED081AB4EE410AF1EE10FAE7
:1039E00036DC94ED091AB4EE410AF1EE10FA2FDB41
:1039F000E0780130E070B0BDA0790328D2D8DFE8CC
:103A000000F003674F5B00BF40F20000C2F200000D
:103A100001781E292CBF162102310170B0BD00BFF4
:103A2000A079032888BFB0BDDFE800F0022E16227F
:103A300040F20000C2F200000178162994BF1E2156
:103A400002390170B0BD00BFA0780130A070B0BDD8
:103A5000207901302071B0BD40F20000C2F20000B8
:103A60008178162994BF1E2102398170B0BD00BF34
:103A700040F20000C2F20000C1780C2994BF14216A
:103A80000239C170B0BD00BF40F20000C2F20000B8
:103A900041780C2994BF142102394170B0BD00BF98
:103AA00040F20000C2F2000081781E292CBF1621CE
:103AB00002318170B0BD00BF40F20000C2F20000D0
:103AC000C17814292CBF0C210231C170B0BD00BFD8
:103AD00040F20000C2F20000417814292CBF0C21F2
:103AE00002314170B0BD000070B540F20044C4F630
:103AF0000004204601210126FEF7F8F940F2D02506
:103B0000C2F20005D8B1204602210226FEF7EEF9E6
:103B1000A8B120460421FEF7E9F978B14FF09040B2
:103B20000121FEF7E3F978B1687800262E7048B1DC
:103B3000A9880B2928BFA8706E7070BD032668780D
:103B40002E7030B16E7070BD042668782E7000281B
:103B5000F8D10020A8806E7070BD000040F21841BE
:103B6000C4F600010A6942F400720A610A6942F46B
:103B700080720A610A6842F020020A602022C1F8BD
:103B8000FC230A6942F020020A6100BF00BF00BFA7
:103B90000A6842F020020A600A6842F480720A60F1
:103BA0000022C1F8FC230B6943F020030B6100BF26
:103BB00000BF00BF0B6843F020030B600B6843F4A9
:103BC00080730B600B6943F400730B610B6943F462
:103BD00080730B610B6843F020030B602123C1F855
:103BE000FC330B6943F020030B6100BF00BF00BF33
:103BF0000B6843F020030B600B6843F480730B6089
:103C0000C1F8FC230A6942F020020A6100BF00BF2C
:103C100000BF0A6842F020020A600A6842F480721B
:103C20000A600A6942F400720A610A6942F4807209
:103C30000A610A6842F020020A602222C1F8FC23CD
:103C40000A6942F020020A6100BF00BF00BF0A6893
:103C500042F020020A600A6842F480720A6000BFE3
:103C600000BF00BF0A6842F400720A604FF4963247
:103C70000B69053A43F400730B610B6843F48073DE
:103C80000B600B6843F020030B60C1F8FC030B6969
:103C900043F020030B6100BF00BF00BF0B6843F07F
:103CA00020030B600B6843F480730B6000BF00BF00
:103CB00000BF0B6843F400730B600B6943F400739F
:103CC0000B610B6843F480730B600B6843F02003B7
:103CD0000B60C1F8FC030B6943F020030B6100BFCC
:103CE00000BF00BF0B6843F020030B600B6843F478
:103CF00080730B6000BF00BF00BF0B6843F400730C
:103D00000B600B6943F400730B610B6843F4807321
:103D10000B600B6843F020030B60C1F8FC030B69D8
:103D200043F020030B6100BF00BF00BF0B6843F0EE
:103D300020030B600B6843F480730B6000BF00BF6F
:103D400000BF0B6843F400730B600B6943F400730E
:103D50000B610B6843F480730B600B6843F0200326
:103D60000B60C1F8FC030B6943F020030B6100BF3B
:103D700000BF00BF0B6843F020030B600B6843F4E7
:103D800080730B6000BF00BF00BF0B6843F400737B
:103D90000B600B6943F400730B610B6843F4807391
:103DA0000B600B6843F020030B60C1F8FC030B6948
:103DB00043F020030B6100BF00BF00BF0B6843F05E
:103DC00020030B600B6843F480730B6000BF00BFDF
:103DD00000BF0B6843F400730B607FF449AF70477A
:103DE0000A78002A08BF70472DE9F04149F204081B
:103DF00004464D1C002740F23F16C0F6000800BFE5
:103E0000A2F12000C1B2490051FA80F008EB001283
:103E1000B1B2204600F00AF8EA5D22B1103E132F3D
:103E200007F10107ECD3BDE8F04170472DE9F047F9
:103E300040F21843C4F600031F694FF0200C47F40A
:103E400000771F611F694FF0210E47F480771F61D3
:103E50001F6840F20C0947F020071F60C3F8FCC33D
:103E60001F6940F2FE0A47F020071F6100BF00BF34
:103E700000BF1F684FF0220847F020071F601F682F
:103E8000C2F2000947F480771F60C3F8FC031F6982
:103E9000C2F2000A47F020071F6100BF00BF00BF49
:103EA0001F6847F020071F601F6847F480771F6076
:103EB0001F6947F400771F611F6947F480771F610E
:103EC0001F6847F020071F60C3F8FCE31C6944F03B
:103ED00020041C6100BF00BF00BF1C6844F0200428
:103EE0001C601C6844F480741C60C3F8FC131C69DB
:103EF00044F020041C6100BF00BF00BF1C6844F0F8
:103F000020041C601C6844F480741C60002400BF02
:103F10001D6945F400751D611D6945F480751D61BD
:103F20001D6845F020051D60C3F8FC831D6945F040
:103F300020051D6100BF00BF00BF1D6845F02005C2
:103F40001D601D6845F480751D6000BF00BF00BF87
:103F50001D6845F400751D60002500BF32F814602F
:103F6000EE40F607564608BF4E4636881F6947F4AE
:103F700000771F611F6847F480771F601F6847F054
:103F800020071F60C3F8FC631E696F1C46F0200603
:103F90001E6100BF00BF00BF1E6846F020061E6005
:103FA0001E6846F480761E6000BF00BF00BF1E681A
:103FB00046F400761E6032F81460FE40F60756465E
:103FC00008BF4E4636881F6947F400771F611F6897
:103FD00047F480771F601F6847F020071F60C3F811
:103FE000FC631E69AF1C46F020061E6100BF00BFC7
:103FF00000BF1E6846F020061E601E6846F48076EC
:104000001E6000BF00BF00BF1E6846F400761E6041
:1040100032F81460FE40F607564608BF4E46368812
:104020001F6947F400771F611F6847F480771F609E
:104030001F6847F020071F60C3F8FC631E69EF1C70
:1040400046F020061E6100BF00BF00BF1E68043599
:1040500046F020061E601E6846F480761E6000BF93
:1040600000BF00BF1E6846F400761E6032F8146080
:10407000FE40F607564608BF4E4636881F69102D8B
:1040800047F400771F611F6847F480771F601F683F
:1040900047F020071F60C3F8FC631E6946F0200646
:1040A0001E6100BF00BF00BF1E6846F020061E60F4
:1040B0001E6846F480761E6000BF00BF00BF1E6809
:1040C00046F400761E607FF449AF1D69013045F467
:1040D00000751D611D69013445F480751D611D6801
:1040E000182C45F020051D60C3F8FCC31D6945F080
:1040F00020051D6100BF00BF00BF1D6845F0200501
:104100001D601D6845F480751D60C5B2C3F8FC5381
:104110001D6945F020051D6100BF00BF00BF1D687F
:1041200045F020051D601D6845F480751D601D6902
:1041300045F400751D611D6945F480751D611D689C
:1041400045F020051D60C3F8FCE31D6945F020051E
:104150001D6100BF00BF00BF1D6845F020051D6048
:104160001D6845F480751D60C3F8FC131D6945F09A
:1041700020051D6100BF00BF00BF1D6845F0200580
:104180001D601D6845F480751D6008BFBDE8F0879F
:10419000BEE600002DE9F04F8BB0002641F24C0046
:1041A0000596CDE90366CDE90166C4F20200016817
:1041B00040F2184541F0040101600168C4F60005B1
:1041C00001F0040106910699016801AC41F001017A
:1041D0000160016840F6140901F001010691069999
:1041E00001684FF0030841F00201016000682146B8
:1041F00000F00200069006984FF4487001900120EC
:104200000290A5F11800C4F600090127CDE9036862
:10421000FDF792FD4FF48070CDE901074FF090401B
:104220002146CDE90368FDF787FD4FF6FF7005F5E0
:104230007A74069006A920460A964FF6FF7BCDF8C1
:104240002480CDE90776FDF777FD4FF6004ACFF6DB
:10425000FF7A55F80A0006A940F4807045F80A0074
:1042600028684FF6FF7740F408702860286940F40A
:1042700000702861286940F480702861286840F047
:1042800020002860C9F80060286940F020002861FB
:1042900000BF00BF00BF286840F0200028602868E9
:1042A00040F48070286020460A96CDF818B0CDF80A
:1042B0002480CDE90766FDF73FFD4FF6104BCFF6A2
:1042C000FF7B55F80B0007A940F4807045F80B0000
:1042D00000BF00BF00BFD5F8F89355F80A0040F4BE
:1042E000807045F80A00012081E8410106A92046B6
:1042F0000A960697FDF720FD286848F2302140F421
:104300000070286040F20010C2F20000A0F8009097
:104310000088884202D100F0E5FA01E001F056F889
:104320002869002740F40070286128694FF6FF785B
:1043300040F48070286128684FF0030940F02000A5
:10434000286040F61400C4F600000760286906A93A
:1043500040F02000286100BF00BF00BF286840F087
:1043600020002860286840F48070286020460A9762
:10437000CDE90687CDE90879FDF7DEFC55F80B009D
:1043800007A940F4807045F80B0000BF00BF00BFD4
:10439000D5F8F86355F80A0040F4807045F80A0033
:1043A000012081E8810206A920460A97CDF81880ED
:1043B000FDF7C2FC286840F40070286040F200104D
:1043C000C2F2000006800BB0BDE8F08F81B0ADF8FE
:1043D0000200BDF8020040F20C01C2F200010880A8
:1043E00001B0704781B0ADF80200BDF8020040F2A4
:1043F000FE01C2F20001088001B0704710B540F222
:104400007804C2F20004E078627A6178E379101AE5
:1044100018BF01208B42207208D16189B1F57A7FE3
:104420000AD3012000F040F805E000BF012000F0B1
:1044300049F800206081207A30B1022000F042F873
:104440000020A08107E000BFA089B0F57A7F02D3E9
:10445000022000F029F82078022813D0012807D084
:10446000C8B9032000F02EF8042000F01DF805E084
:10447000032000F019F8042000F024F8052000F0D3
:1044800013F808E0032000F00FF8042000F00CF807
:10449000052000F017F86078E178E0716172BDE8FE
:1044A000104000F01BB8000040F2D622C2F2000219
:1044B00001380121137801FA00F023EA000010709E
:1044C0007047000040F2D622C2F2000201380121FA
:1044D000137801FA00F018431070704710B540F2DD
:1044E000D620C2F2000000784FF6144140F6004496
:1044F0006FEA0020CFF6FF71C4F60004605020463A
:1045000004210122FDF7F8FC204604210022BDE829
:104510001040FDF7F1BC000010B58CB040F2041063
:10452000C2F200004FF0A04100244FF400320423F7
:1045300080E816000121CDE90A44CDE90744CDE920
:104540000544CDE90344CDE90144C0E90344C0E991
:1045500005438483016280F82440C0E90B4480F85D
:104560003840C46380F84040FCF7C2FF002818BF01
:10457000FCF720FD40F20410C2F2000009A90994E2
:10458000FCF788FD002818BFFCF714FD40F600007A
:10459000C2F63060019006207F2102900020049135
:1045A00004210390CDE9051040F20410C2F200008E
:1045B00001A9FCF7CBFD002818BFFCF7FBFC0CB0F1
:1045C00010BD0000B0B588B040F2701040F200118C
:1045D000C2F20000C5F2000100244FF400320425AD
:1045E00080E816000121CDE90644C0E90344C0E992
:1045F00005458483016280F82440C0E90B4480F8BB
:104600003840C46380F84040FCF772FF002818BFB0
:10461000FCF7D0FC48F20000C3F6F06000900620E2
:10462000CDE901047F20CDE9030540F27010C2F20C
:10463000000069460594FCF789FD002818BFFCF7C7
:10464000B9FC08B0B0BD000080B582B041F24800AE
:10465000C4F202000168002241F004010160016817
:1046600001F0040101910199016841F0010101602B
:104670000068002100F00100009000980B20FDF779
:10468000B9FC0B2002B0BDE88040FDF7A1BC0000E2
:104690002DE9F04387B0002741F24C000697CDE9A1
:1046A0000477CDE90277C4F20200016840F6000405
:1046B00041F0040101600168C4F6000401F0040146
:1046C000019101990168012241F020010160016816
:1046D0004FF47E4601F020010191019901684FF0ED
:1046E000010841F001010160016801F0010101913F
:1046F0000199016841F002010160016801F00201C5
:1047000001910199016841F00801016000684FF4CE
:104710007E4100F00800019001982046FDF7ECFB77
:1047200004F580652846042100224FF00409FDF7B6
:10473000E3FBCDE9026802AE20463146CDE90477BD
:10474000FDF7FAFA4FF090403146CDE90287049721
:10475000FDF7F2FA0720CDE90207A4F580603146A3
:104760000497FDF7E9FA4FF4807002904FF4881037
:10477000CDE9030720463146FDF7DEFA28463146EB
:10478000CDE90298CDE90477FDF7D6FA07B0BDE888
:10479000F083000080B540F23C2043F60001C2F2F5
:1047A0000000C4F2010100234FF00C0C4FF416522C
:1047B00080E80E00C0E90333C0E905C3C0E9073350
:1047C000C0E90933FEF724FF002818BFFCF7F2FB0D
:1047D00040F23C20C2F200000021FEF7A5FB0028B9
:1047E00018BFFCF7E7FB40F23C20C2F200000021BA
:1047F000FEF754FB002818BFFCF7DCFB40F23C201E
:10480000C2F20000FEF768FA002808BF80BDBDE8CC
:104810008040FCF7CFBB0000FEE70000FEE7000091
:1048200010B540F20414C2F200042046FDF7A0F8CF
:1048300040F27010C2F20000FDF79AF820464FF0E7
:10484000FF31FCF7EBFFD0B940F20410C2F20000D8
:10485000FCF74AFE04F0E8F99FED1D0B53EC102B1A
:1048600004F0F6F99FED1C0B53EC102B04F080F8CC
:1048700004F04CF840F2D821C2F20001086040F286
:104880007010C2F200004FF0FF31FCF7C7FF0028A4
:1048900018BF10BD40F27010C2F20000FCF724FEF9
:1048A00004F0C2F99FED0A0B53EC102B04F0D0F981
:1048B0009FED090B53EC102B04F05AF804F026F886
:1048C00040F2D821C2F20001486010BD00BF00BF15
:1048D0006666666666660A400000000000FEAF403D
:1048E0007047000040F21840C4F600000169002241
:1048F00041F40071016101694FF0030C41F48071D2
:104900000161016841F020010160C0F8FC230169E8
:1049100041F02001016100BF00BF00BF016841F00C
:1049200020010160016841F4807101600121C0F83B
:10493000FC13036943F02003036100BF00BF00BF05
:10494000036843F020030360036843F4807303604B
:10495000036943F400730361036943F480730361E3
:10496000036843F020030360C0F8FC13036943F0BD
:104970002003036100BF00BF00BF036843F02003B2
:104980000360036843F480730360C0F8FC2302698A
:1049900042F02002026100BF00BF00BF026842F087
:1049A00020020260026842F480720260026942F4EE
:1049B00000720261026942F480720261026842F090
:1049C000200202601022C0F8FC23026942F020029B
:1049D000026100BF00BF00BF026842F02002026017
:1049E000026842F48072026041F29072C0F8FC23C7
:1049F000026942F02002026100BF00BF00BF0268EE
:104A000042F020020260026842F480720260026991
:104A100042F400720261026942F48072026102682B
:104A200042F0200202606022C0F8FC23026942F0DA
:104A30002002026100BF00BF00BF026842F02002F6
:104A40000260026842F4807202604FF41C52C0F8A7
:104A5000FC23026942F02002026100BF00BF00BFD8
:104A6000026842F020020260026842F48072026032
:104A7000026942F400720261026942F480720261CA
:104A8000026842F0200202606122C0F8FC23026941
:104A900042F02002026100BF00BF00BF026842F086
:104AA00020020260026842F480720260C0F8FC13C7
:104AB000016941F02001016100BF00BF00BF016832
:104AC00041F020010160016841F4807101600169D9
:104AD00041F400710161016941F480710161016873
:104AE00041F0200101604621C0F8FC13016941F04A
:104AF0002001016100BF00BF00BF016841F020013B
:104B00000160016841F4807101600221C0F8FC136A
:104B1000026942F02002026100BF00BF00BF0268CC
:104B200042F020020260026842F480720260026970
:104B300042F400720261026942F48072026102680A
:104B400042F0200202601322C0F8FC23026942F006
:104B50002002026100BF00BF00BF026842F02002D5
:104B60000260026842F48072026048F21002C0F8EB
:104B7000FC23026942F02002026100BF00BF00BFB7
:104B8000026842F020020260026842F48072026011
:104B9000026942F400720261026942F480720261A9
:104BA000026842F0200202601222C0F8FC2302696F
:104BB00042F02002026100BF00BF00BF026842F065
:104BC00020020260026842F48072026048F2FE0233
:104BD000C0F8FC23026942F02002026100BF00BF5E
:104BE00000BF026842F020020260026842F4807254
:104BF0000260026942F400720261026942F480724A
:104C00000261026842F020020260C0F8FC130169F0
:104C100041F02001016100BF00BF00BF016841F009
:104C200020010160016841F4807101604FF4A061CE
:104C3000C0F8FC13016941F02001016100BF00BF11
:104C400000BF016841F020010160016841F48071FA
:104C50000160016941F400710161016941F48071F1
:104C60000161016841F020010160C0F8FCC30269E4
:104C700042F02002026100BF00BF00BF026842F0A4
:104C800020020260026842F48072026041F2300247
:104C9000C0F8FC23026942F02002026100BF00BF9D
:104CA00000BF026842F020020260026842F4807293
:104CB0000260026942F400720261026942F4807289
:104CC0000261026842F0200202603022C0F8FC2338
:104CD000026942F02002026100BF00BF00BF02680B
:104CE00042F020020260026842F48072026040F2E8
:104CF0000332C0F8FC23036943F02003036100BFC3
:104D000000BF00BF036843F020030360036843F45F
:104D100080730360036943F400730361036943F420
:104D200080730361036843F0200303603123C0F8FC
:104D3000FC33036943F02003036100BF00BF00BFE1
:104D4000036843F020030360036843F48073036047
:104D5000C0F8FC23036943F02003036100BF00BFD8
:104D600000BF036843F020030360036843F48073CB
:104D70000360036943F400730361036943F48073C0
:104D80000361036843F0200303603223C0F8FC335F
:104D9000036943F02003036100BF00BF00BF036845
:104DA00043F020030360036843F480730360C0F89A
:104DB000FC23036943F02003036100BF00BF00BF71
:104DC000036843F020030360036843F480730360C7
:104DD000036943F400730361036943F4807303615F
:104DE000036843F0200303603323C0F8FC330369F6
:104DF00043F02003036100BF00BF00BF036843F01E
:104E000020030360036843F4807303604FF440732E
:104E1000C0F8FC33016941F02001016100BF00BF0F
:104E200000BF016841F020010160016841F4807118
:104E30000160016941F400710161016941F480710F
:104E40000161016841F0200101603421C0F8FC13C8
:104E5000016941F02001016100BF00BF00BF01688E
:104E600041F020010160016841F480710160C0F8E7
:104E7000FCC3016941F02001016100BF00BF00BF18
:104E8000016841F020010160016841F48071016016
:104E9000016941F400710161016941F480710161AE
:104EA000016841F0200101603521C0F8FC1301695F
:104EB00041F02001016100BF00BF00BF016841F067
:104EC00020010160016841F480710160C0F8FC2399
:104ED000016941F02001016100BF00BF00BF01680E
:104EE00041F020010160016841F4807101600169B5
:104EF00041F400710161016941F48071016101684F
:104F000041F0200101603621C0F8FC13016941F035
:104F10002001016100BF00BF00BF016841F0200116
:104F20000160016841F4807101601421C0F8FC1334
:104F3000016941F02001016100BF00BF00BF0168AD
:104F400041F020010160016841F480710160016954
:104F500041F400710161016941F4807101610168EE
:104F600041F0200101603721C0F8FC13016941F0D4
:104F70002001016100BF00BF00BF016841F02001B6
:104F80000160016841F480710160C0F8FC2301698F
:104F900041F02001016100BF00BF00BF016841F086
:104FA00020010160016841F480710160016941F4F0
:104FB00000710161016941F480710161016841F092
:104FC000200101603821C0F8FC13016941F0200183
:104FD000016100BF00BF00BF016841F02001016016
:104FE000016841F480710160C0F8FC23016941F05F
:104FF0002001016100BF00BF00BF016841F0200136
:105000000160016841F480710160016941F400713F
:105010000161016941F480710161016841F0200181
:1050200001603921C0F8FC13016941F020010161E0
:1050300000BF00BF00BF016841F0200101600168AE
:1050400041F480710160C0F8FC23016941F0200146
:10505000016100BF00BF00BF016841F02001016095
:10506000016841F480710160016941F400710161DE
:10507000016941F480710161016841F02001016022
:105080003A21C0F8FC13016941F02001016100BF21
:1050900000BF00BF016841F020010160016841F4D8
:1050A00080710160C0F8FC33016941F020010161A9
:1050B00000BF00BF00BF016841F02001016001682E
:1050C00041F480710160016941F40071016101697D
:1050D00041F480710161016841F0200101603B21D0
:1050E000C0F8FC13016941F02001016100BF00BF5D
:1050F00000BF016841F020010160016841F4807146
:105100000160C0F8FCC3016941F02001016100BFEA
:1051100000BF00BF016841F020010160016841F457
:1051200080710160016941F400710161016941F41C
:1051300080710161016841F0200101603C21C0F8EB
:10514000FC13016941F02001016100BF00BF00BFF5
:10515000016841F020010160016841F48071016043
:10516000C0F8FC23016941F02001016100BF00BFCC
:1051700000BF016841F020010160016841F48071C5
:105180000160016941F400710161016941F48071BC
:105190000161016841F0200101603D21C0F8FC136C
:1051A000016941F02001016100BF00BF00BF01683B
:1051B00041F020010160016841F4807101604FF409
:1051C000A051C0F8FC13016941F02001016100BF4A
:1051D00000BF00BF016841F020010160016841F497
:1051E00080710160016941F400710161016941F45C
:1051F00080710161016841F0200101609221C0F8D5
:10520000FC13016941F02001016100BF00BF00BF34
:10521000016841F020010160016841F48071016082
:105220004FF40071C0F8FC13016941F020010161E5
:1052300000BF00BF00BF016841F0200101600168AC
:1052400041F480710160016941F4007101610169FB
:1052500041F480710161016841F0200101609321F6
:10526000C0F8FC13016941F02001016100BF00BFDB
:1052700000BF016841F020010160016841F48071C4
:105280000160C0F8FC23016941F02001016100BF09
:1052900000BF00BF016841F020010160016841F4D6
:1052A00080710160016941F400710161016941F49B
:1052B00080710161016841F0200101609021C0F816
:1052C000FC13016941F02001016100BF00BF00BF74
:1052D000016841F020010160016841F480710160C2
:1052E00040F60D01C0F8FC13016941F02001016195
:1052F00000BF00BF00BF016841F0200101600168EC
:1053000041F480710160016941F40071016101693A
:1053100041F480710161016841F020010160C0F831
:10532000FCC3016941F02001016100BF00BF00BF63
:10533000016841F020010160016841F48071016061
:1053400041F21801C0F8FC13016941F0200101612C
:1053500000BF00BF00BF016841F02001016001688B
:1053600041F480710160016941F4007101610169DA
:1053700041F480710161016841F020010160072161
:10538000C0F8FC13016941F02001016100BF00BFBA
:1053900000BF016841F020010160016841F48071A3
:1053A000016040F27311C0F8FC13016941F0200163
:1053B000016100BF00BF00BF016841F02001016032
:1053C000016841F480710160704700002DE9F04FE1
:1053D00081B040F21844C4F6000420694FF012096D
:1053E00040F4007020612069002540F48070206145
:1053F0002068112640F020002060E320C4F8FC0360
:1054000020694FF0130B40F02000206100BF00BF67
:1054100000BF2068102740F02000206020684FF077
:10542000070840F48070206043F20800C4F8FC03D1
:10543000206940F02000206100BF00BF00BF20684D
:1054400040F020002060206840F4807020602069D7
:1054500040F400702061206940F480702061206871
:1054600040F020002060E720C4F8FC03206940F0F1
:105470002000206100BF00BF00BF206840F0200076
:105480002060206840F480702060C4F8FC9320699C
:1054900040F02000206100BF00BF00BF206840F046
:1054A00020002060206840F480702060206940F473
:1054B00000702061206940F480702061206840F015
:1054C00020002060EF20C4F8FC03206940F0200099
:1054D000206100BF00BF00BF206840F020002060B6
:1054E000206840F48070206041F23120C4F8FC0351
:1054F000206940F02000206100BF00BF00BF20688D
:1055000040F020002060206840F480702060206916
:1055100040F400702061206940F4807020612068B0
:1055200040F0200020600120C4F8FC03206940F016
:105530002000206100BF00BF00BF206840F02000B5
:105540002060206840F480702060C4F8FC5320691B
:1055500040F02000206100BF00BF00BF206840F085
:1055600020002060206840F480702060206940F4B2
:1055700000702061206940F480702061206840F054
:10558000200020600220C4F8FC03206940F02000C5
:10559000206100BF00BF00BF206840F020002060F5
:1055A000206840F4807020604FF4E060C4F8FC0391
:1055B000206940F02000206100BF00BF00BF2068CC
:1055C00040F020002060206840F480702060206956
:1055D00040F400702061206940F4807020612068F0
:1055E00040F0200020600320C4F8FC03206940F054
:1055F0002000206100BF00BF00BF206840F02000F5
:105600002060206840F48070206041F23000C4F8CF
:10561000FC03206940F02000206100BF00BF00BFF4
:10562000206840F020002060206840F480702060F6
:10563000206940F400702061206940F4807020618E
:10564000206840F0200020600420C4F8FC0320699A
:1056500040F02000206100BF00BF00BF206840F084
:1056600020002060206840F480702060C4F8FC5363
:10567000206940F02000206100BF00BF00BF20680B
:1056800040F020002060206840F480702060206995
:1056900040F400702061206940F48070206120682F
:1056A00040F0200020600820C4F8FC03206940F08E
:1056B0002000206100BF00BF00BF206840F0200034
:1056C0002060206840F48070206040F20720C4F819
:1056D000FC03206940F02000206100BF00BF00BF34
:1056E000206840F020002060206840F48070206036
:1056F000206940F400702061206940F480702061CE
:10570000206840F0200020600920C4F8FC032069D4
:1057100040F02000206100BF00BF00BF206840F0C3
:1057200020002060206840F480702060C4F8FC53A2
:10573000206940F02000206100BF00BF00BF20684A
:1057400040F020002060206840F4807020602069D4
:1057500040F400702061206940F48070206120686E
:1057600040F0200020600A20C4F8FC03206940F0CB
:105770002000206100BF00BF00BF206840F0200073
:105780002060206840F480702060C4F8FC532069D9
:1057900040F02000206100BF00BF00BF206840F043
:1057A00020002060206840F480702060206940F470
:1057B00000702061206940F480702061206840F012
:1057C000200020600C20C4F8FC03206940F0200079
:1057D000206100BF00BF00BF206840F020002060B3
:1057E000206840F480702060C4F8FC53206940F0C9
:1057F0002000206100BF00BF00BF206840F02000F3
:105800002060206840F480702060206940F40070BF
:105810002061206940F480702061206840F0200001
:1058200020600D20C4F8FC03206940F020002061B6
:1058300000BF00BF00BF206840F02000206020684B
:1058400040F480702060C4F8FC53206940F02000D0
:10585000206100BF00BF00BF206840F02000206032
:10586000206840F480702060206940F4007020615E
:10587000206940F480702061206840F020002060A2
:105880000F20C4F8FC03206940F02000206100BF15
:1058900000BF00BF206840F020002060206840F476
:1058A00080702060C4F8FC53206940F02000206123
:1058B00000BF00BF00BF206840F0200020602068CB
:1058C00040F480702060206940F4007020612069FD
:1058D00040F480702061206840F02000206010209B
:1058E000C4F8FC03206940F02000206100BF00BF25
:1058F00000BF206840F020002060206840F48070E5
:105900002060C4F8FC53206940F02000206100BFF3
:1059100000BF00BF206840F020002060206840F4F5
:1059200080702060206940F400702061206940F49C
:1059300080702061206840F020002060C4F8FC6383
:10594000206940F02000206100BF00BF00BF206838
:1059500040F020002060206840F480702060072024
:10596000C4F8FC03206940F02000206100BF00BFA4
:1059700000BF206840F020002060206840F4807064
:105980002060206940F400702061206940F480703C
:105990002061206840F020002060C4F8FC9320695A
:1059A00040F02000206100BF00BF00BF206840F031
:1059B00020002060206840F480702060C4F8FC5310
:1059C000206940F02000206100BF00BF00BF2068B8
:1059D00040F020002060206840F480702060206942
:1059E00040F400702061206940F4807020612068DC
:1059F00040F020002060C4F8FCB3206940F0200093
:105A0000206100BF00BF00BF206840F02000206080
:105A1000206840F480702060C4F8FC53206940F096
:105A20002000206100BF00BF00BF206840F02000C0
:105A30002060206840F480702060C820FCF768F97E
:105A400020694FF0320A40F400702061206940F470
:105A500080702061206840F020002060C4F8FC7352
:105A60002069102740F02000206100BF00BF00BF68
:105A7000206840F020002060206840F480702060A2
:105A800041F29060C4F8FC03206940F020002061DE
:105A900000BF00BF00BF206840F0200020602068E9
:105AA00040F480702060206940F40070206120691B
:105AB00040F480702061206840F020002060C4F82D
:105AC000FC63206940F02000206100BF00BF00BFE0
:105AD000206840F020002060206840F48070206042
