:020000040800F2
:10000000E0070020C9020008BD430008F1360008DF
:10001000B9430008690F0008A1680008000000004B
:1000200000000000000000000000000075650008EE
:100030006D0F000800000000C1430008796500084A
:10004000E3020008E3020008E3020008E3020008FC
:10005000E3020008E3020008E3020008E3020008EC
:10006000E3020008E3020008E3020008E3020008DC
:10007000E3020008E3020008E3020008E3020008CC
:10008000E302000800000000E3020008E3020008A9
:10009000E3020008E3020008E3020008E3020008AC
:1000A000E3020008E3020008E3020008E30200089C
:1000B000E3020008BD650008E3020008E30200084F
:1000C000E3020008E3020008E3020008E30200087C
:1000D000E3020008E3020008E3020008E30200086C
:1000E000E3020008E3020008E3020008E30200085C
:1000F000E3020008E3020008E30200080000000039
:1001000000000000E302000800000000E302000815
:10011000E302000800000000E3020008E302000818
:10012000E3020008E3020008E3020008E30200081B
:10013000E30200080000000000000000E3020008E5
:10014000E3020008E30200080000000000000000D5
:10015000000000000000000000000000000000009F
:10016000000000000000000000000000E3020008A2
:10017000E302000800000000000000000000000092
:1001800000000000E3020008000000000000000082
:10019000000000000000000000000000000000005F
:1001A0000000000000000000E3020008E302000875
:1001B000E3020008E3020008E30200080000000078
:1001C00000000000E3020008000000000000000042
:1001D000E3020008E302000800F002F800F065F80E
:1001E00014A696E8000CB244B344DA4501D100F0FD
:1001F0005CF8BAE80F000FA696E83000A5EB0405FE
:1002000004EB0607AAEB0704A7F101074FEA15154F
:100210004FEA3414A4F10104AC4201D300F045F8D4
:1002200013F0010F18BFFB1A43F0010300F001F8AF
:10023000DBE71847688C0000888C0000103A24BF68
:1002400078C878C1FAD8520724BF30C830C144BF3B
:1002500004680C6070470000704700000023002411
:1002600000250026103A28BF78C1FBD8520728BFC6
:1002700030C148BF0B607047662907F0AA84642923
:1002800000F0A680632900F03484002070471FB579
:1002900007F08DFC00F03AFC04000020002107F07C
:1002A0005FF8E0601FBD10B510BD00F02FFD1146D6
:1002B000FFF7EDFF06F0F6FA00F04DFD03B4FFF78F
:1002C000F2FF03BC00F08EFD094880470948004753
:1002D000FEE7FEE7FEE7FEE7FEE7FEE7FEE7FEE7F6
:1002E000FEE7FEE704480549054A064B7047000053
:1002F000A9650008D9010008E0010020E0070020FE
:10030000E0030020E00300200FB41CB5074B06AA51
:100310007B4469460090059800F0C9FB00206946BF
:1003200000F0D8FB1CBC5DF814FB0000C107000006
:1003300070B5044685690068C10601D5302600E025
:100340002026C00707D070BDD4E901213046904770
:10035000206A401C20626D1EF6D570BD70B5044643
:1003600085690078C00707D170BDD4E9012120203C
:100370009047206A401C20626D1EF6D570BD70B596
:100380000C460546012A05D02878800600D5EA6982
:10039000002302E0012305E05B1C934202D2E05CF3
:1003A0000028F9D1A869E618C01AA861286A18447B
:1003B00028622846FFF7BCFF04E0D5E9012114F8C4
:1003C000010B9047B442F8D32846FFF7C7FF70BD32
:1003D0002DE9F0410646002410687529314616A51E
:1003E00010D0AFF30080002802DA404213A507E0E6
:1003F00031688A0701D512A502E0490704D511A585
:10040000012401E0AFF3008000210A2206F1240755
:1004100009E0B0FBF2FCB0FBF2F302FB1C00303051
:1004200078541846491C0028F3D123462A46304602
:10043000BDE8F04100F0CEB8000000002D00000043
:100440002B000000200000002DE9F05F89460446E3
:100450004FF0000ADFF824B1FB44C0F820A020468A
:10046000E168884700287DD0252806D0D4E90121FD
:100470009047206A401C2062F1E700255F46204635
:10048000E16888472028064607DB312E05D2B819D7
:1004900010F8200C08B10543F1E7A80701D525F0B5
:1004A0000405C4F81CA00027C4F818A02A2E09D0FF
:1004B000304606F04DFF38B304EB8708303EC8F8ED
:1004C000186019E059F8041B204604EB870291617B
:1004D000E1688847012F064618D1E069002820DA34
:1004E00025F020051DE0D8F8180000EB800006EB91
:1004F00040003038C8F818002046E16888470646B2
:1005000006F026FF0028EED1012F0AD02E2E08D1AA
:100510002046E16888477F1C0646022F45F02005EB
:10052000C4DBA069002803DA404245F00105A06160
:10053000E80701D025F01005A6B1A6F14100192861
:1005400002D8203645F400654A46314620462560EB
:100550004D46FFF791FE60B1012807D0ED1D25F053
:10056000070000E007E000F1080978E705F1040959
:1005700075E730467AE7206ABDE8F09F7A77000099
:100580004FF0000200B5134694469646203922BF2C
:10059000A0E80C50A0E80C50B1F12001BFF4F7AF77
:1005A000090728BFA0E80C5048BF0CC05DF804EB59
:1005B000890028BF40F8042B08BF704748BF20F8C7
:1005C000022B11F0804F18BF00F8012B70477047C5
:1005D000704770472DE9F0470D469946924604460C
:1005E00000F124080168880604D5E06921F01001B3
:1005F000216000E00120A84201DD471B00E0002748
:10060000A1697A1902EB0900081AA0612078C006D6
:1006100002D42046FFF78CFE002608E0D4E9012131
:100620001AF806009047206A401C761C20624E454E
:10063000F4DB2078C0060AD52046FFF779FE06E0F5
:10064000D4E9012130209047206A401C2062381EE6
:10065000A7F10107F4DC07E0D4E9012118F805004F
:100660009047206A401C2062281EA5F10105F3DC9A
:100670002046FFF773FE2078000602D50220BDE871
:10068000F0870120FBE72DE9FF4F0C461E464FF097
:10069000FF378BB0D2E90001DDF860800A908A460E
:1006A000C1F30A5505B93D46002108464FF0000048
:1006B000BAF1000F00F4400005DA00EB80004FF4BF
:1006C000400101EA50004FEA9059B9F1010F00DDF5
:1006D000B9460A9850EA4A000ED044F61050A5F2E6
:1006E000FF3545432F14B8F1000F1ED07542291E67
:1006F0001EDDC9F100021CE0B8F1010F4FF000004F
:1007000001D0302103E0F24305E02154401CB04207
:10071000FBDB30460022002121540B99C1F80880F0
:10072000C1E900200FB0BDE8F08FBD1B6D1CDEE7F6
:100730004A4600DA694206A800F072FA06AB93E86E
:10074000070003AB83E8070050460A9906F020FA39
:100750008DE80700A0F500501F3800900398002D89
:100760000ADD42F21F014A460844002303A9039010
:10077000684606F089FC09E0A0F500504A461F389B
:10078000002303A90390684606F093FC8DE8070058
:100790000004000C03D04FF0FF30410800E0104689
:1007A000B8F1000F03D00022009215461EE0751E1E
:1007B00005D400F0AFF9303262556D1EF9D5B3465D
:1007C0000122084302D000227F1C04E02078302858
:1007D00001D100227F1E002A099784D01DE0112D2F
:1007E00007DA00F097F9303262556D1C50EA0102C9
:1007F000F5D1084302D00098C8B10EE00021681E70
:1008000005E0235C625C63542254401E491C814213
:10081000F7DBAB46A81B401E0990002004F80B0034
:100820000B98099AC0F80880C0E9002B7AE71126D6
:100830004FF0000857E72DE9F04F88460446D21DD7
:1008400022F0070191B0D1E90001CDE90A0106F0DB
:1008500067FD02460B98C00F01D02D2007E02068ED
:10086000810701D52B2002E0202101EAC000032AE4
:10087000099001D0072A05DB03464146204600F0D7
:100880008FF90BE12078800601D5E06900E00620B1
:10089000B8F1650F814606D0B8F1660F18D0B8F1EF
:1008A000670F70D131E00020B9F1110F009001DB2A
:1008B000112301E009F101030AAA01A90CA8FFF71D
:1008C000E2FEDDE90C70002609F10105834647E0F0
:1008D00001204B4600904FF000470AAA01A90CA83E
:1008E000FFF7D1FEDDE90DB00C995D46002610B989
:1008F00009F101000D18B9EB050003D4C0F1FF3672
:1009000009F10105A5EB09002BE0B9F1010F01DAAE
:100910004FF001090020B9F1110F0090484601DDA8
:10092000112300E003460AAA01A90CA8FFF7ABFEB9
:10093000DDE90C704D4600268346207800070AD476
:10094000AB4500DA5D4601A8012D04DD411911F81F
:10095000011C302907D04F4502DA17F1040F04DAE1
:10096000012082460FE06D1EEEE7002F02DCED1B3A
:100970003E4403E0781CA84200DD7D1CB81B00F15A
:10098000010A4FF000472078000703D4AA4501DB95
:100990004FF0FF3A0021B7F1004F0DF143088DF8F9
:1009A000431024D002202B23002F01DA7F422D2375
:1009B0000A21021EA0F1010000DC5FB197FBF1FCEF
:1009C00097FBF1F201FB1C7C17460CF1300C08F888
:1009D00001CDEEE7A8F1010003702188090501D5DA
:1009E000452100E06521A0F1010800F8011C0998EB
:1009F0000FA9A1EB0807FF1D00B10120411901EB70
:100A0000EA70A1693844081A401EA0612078C00627
:100A100002D42046FFF78CFC099828B1D4E90121C3
:100A20009047206A401C20622078C00622D52046CC
:100A3000FFF77EFC1EE0002E04DBB34502DD01A8BB
:100A4000805D00E03020D4E901219047206A401CFD
:100A50002062761CAAF101005FEA000A0AD100F0C8
:100A600055F8C0680168405CD4E901219047206ACC
:100A7000401C2062281EA5F10105DCDC07E0D4E95A
:100A8000012118F8010B9047206A401C2062381E93
:100A9000A7F10107F3DC2046FFF760FC032011B04B
:100AA00041E6000001694A1C02610878704700B500
:100AB0008FB0CDE901310021059105497944CDE997
:100AC000031011466846FFF7BFFC0FB000BD0000E1
:100AD000E5FFFFFF0A6802F8010B0A60704710B5D6
:100AE000436913B1AFF3008001E0FFF748FC012038
:100AF00010BD127800F124010A7000224A70012210
:100B0000EDE711684FF0FF32E9E700000048704759
:100B10008000002030B5B0F10A0271F100034FEA05
:100B2000900E4EEA817EB0EB0E0061EB91014FEA30
:100B3000101E4EEA017E10EB0E0041EB11114FEA40
:100B4000102E4EEA016E10EB0E0041EB11214FEA20
:100B5000104E4EEA014E10EB0E0041EB11414018D1
:100B600041F100014FEAD00040EA41704FEAD10163
:100B70004FEA810444EA907410EB800544EB0104D1
:100B80006D1944EB0404521BA3414FF0000348BF0E
:100B90000A3200D530BD401C41F1000130BD0000DB
:100BA0002DE9F0411F46044603260168072A01F497
:100BB000006004DB08B116A505E016A503E008B146
:100BC00015A500E015A521F010002060A069C01E49
:100BD000A0610FB1401EA0612046FFF7A9FB4FB1F5
:100BE000D4E9012138469047206A401C2062C01C8D
:100BF000206206E0206AFAE7D4E9012115F8010B2A
:100C00009047761EF8D22046FFF7A8FBBDE8F0819A
:100C10004E414E006E616E00494E4600696E6600A0
:100C20002DE9F047814616468AB0354878440DC80C
:100C30008DE80D0032487844801C03AC0DC884E870
:100C40000D0041F69B300844372190FBF1F290FBF8
:100C5000F1F5A5F1800501FB12041B3C02D56442AD
:100C6000012000E00020DFF898A080460027FA4429
:100C7000AAF1BE0A0EE0E0070AD03246684607EB4A
:100C8000470101230AEB810106F013FA8DE8070002
:100C900064107F1C002CEED1194F7F44AE3F19E049
:100CA000E80715D007EB04100DF1180A90E80E00C4
:100CB0008AE80E00C068F04201D1981908903246C7
:100CC000012306A903A806F0F4F903AB83E80700A3
:100CD0006D10641C002DE3D14FF0010332466946CC
:100CE000B8F1000F03A802D006F0CEF901E006F03B
:100CF000E0F9C9E90001C9F808200AB0BDE8F087A9
:100D00003470000000487047600000207546FFF70F
:100D1000F9FFAE4605006946534620F007008546B8
:100D200018B020B5FFF7DEFABDE820404FF000060E
:100D30004FF000074FF000084FF0000BAC46ACE856
:100D4000C009ACE8C009ACE8C009ACE8C00921F0B2
:100D500007018D46704710B50446AFF3008020466A
:100D6000BDE81040FFF7AABA30B44FF0013C50F88C
:100D7000042B51F8043BCCFA52F4D51A20D1FCB91B
:100D800050F8042B51F8043BCCFA52F4D51A17D181
:100D9000B4B950F8042B51F8043BCCFA52F4D51AEC
:100DA0000ED16CB950F8042B51F8043BCCFA52F434
:100DB000D51A05D1002CDAD030BC4FF000007047B6
:100DC00029BAB1FA81F111F01801D1F12000844063
:100DD000F2D1CA40CB4012F0FF0213F0FF0330BC47
:100DE000D01A704701491820ABBEFEE7260002006A
:100DF00070470000B0B5016804468A688868C0077B
:100E00004FF0000031D012F0020218BFB0BD886868
:100E100000F00D0001281FD188684FF6C072C7F698
:100E2000FF721040023088600320086000F05AFE14
:100E300021688968C90704BF0020B0BD054602E0EB
:100E40008068C00712D000F04DFE411B20680329C6
:100E5000F6D38168C907F3D0E06D40F01000E0657B
:100E6000206E40F0010020660120B0BD0020B0BD22
:100E700070B582B004460020019021688A68D207CC
:100E800011D14FF6C076C7F6FF76886806F17F026B
:100E900010420BD0E06D40F01000E065206E40F095
:100EA00001002066012002B070BD00BF886830409C
:100EB00040F00100886040F20830C5F20000006890
:100EC000000221D400F00EFE21680A68D20717D173
:100ED000054602E00868C00712D18868C00704D13F
:100EE0008868304040F00100886000F0FBFD401B46
:100EF00021680328EED30868C007EBD1CAE700BF1A
:100F0000002002B070BD00BF40F20C00C2F2000031
:100F1000006842F663518009C0F23E51A0FB010116
:100F2000880900EB40000C2101EB80000190019842
:100F30000028C7D001980138019001980028C1D03D
:100F400001980138019001980028BBD00198013820
:100F5000019001980028B5D00198013801900198BE
:100F60000028E7D1AEE70000FEE700007047000070
:100F7000EFF3108072B600BFFEE70000B0B582B09C
:100F800004460020019094F85800012802D1022064
:100F900002B0B0BD012084F8580020460D46FFF78E
:100FA00029FFE16D10B141F010014BE041F2021256
:100FB00091430231E16521684FF6C073D1F808C052
:100FC000C3F6FF7303EA0C0305F080454DF601629A
:100FD0002B44C0F2040203F100438B608B68B3F131
:100FE000FF3F2BDC019B01330193019B93421DD8F2
:100FF0008B68B3F1FF3F21DC019B01330193019B1F
:10100000934213D88B68B3F1FF3F17DC019B013388
:101010000193019B934209D88B68B3F1FF3F0DDC2C
:10102000019B01330193019B9342D7D9E06D40F0BE
:10103000100020F00201012004E000BFE16D012258
:1010400062F30101E165002184F8581002B0B0BDDF
:10105000F0B581B00022009290F85820012A03D107
:101060000221084601B0F0BD0123076880F858301E
:10107000BB685B0734D4D1E900351F26C5F30124D2
:1010800007EB8404226B05F01F05AE40C3F38463B5
:10109000B243AB401A432263BA68BB6802F0040251
:1010A00003F00803D21840F0BC800A6807F114036B
:1010B0000426C2F34064D1F808E006EAD25C53F893
:1010C0002440C2F304550722AA40BEF1004F24EA8F
:1010D00002040BD143F80C401A6842F000430DE0C3
:1010E000C16D41F02001C165012178E10EFA05F2E0
:1010F000224343F80C201A6822F000437B61D1E9B7
:101100000435FC68042B5FD13A6E3A6E0B68C2F36B
:10111000846293FAA3F6C3F3846C6FF3DF43B6FAE9
:1011200086F5002B2C464FF6FF7E08BF6446A24290
:10113000C0F2070E0CD13A6E22F000423A660A68FD
:1011400002EA0E03C2F3846C92FAA2F2B2FA82F5BA
:101150007A6E7A6E002BC2F384622C4608BF644616
:10116000A2420CD17A6E22F000427A660A6802EA44
:101170000E03C2F3846C92FAA2F2B2FA82F5BA6E4E
:10118000BA6E002BC2F384622C4608BF6446A242AA
:101190000CD1BA6E22F00042BA660A6802EA0E0367
:1011A000C2F3846C92FAA2F2B2FA82F5FA6EFA6E87
:1011B000002BC2F3846208BF6546AA4231D1FA6EA1
:1011C00022F00042FA662CE0062202EA940205FAB6
:1011D00002FC0E6807F1600555F823404FF200024B
:1011E000C0F2FF3206F0F846224046EA0C063243CF
:1011F00042F0004245F823200A698B6955F82260C5
:1012000026F08076334345F822300A690B7F55F883
:101210002260012B26F0007608BF06F1007645F823
:101220002260BA680D68D20750D1CA68D7F8B0609A
:101230002B466FF3DF4326EA030C4FF6FF7602F0EE
:101240001804C0F20706E64000242E40C4F27F04D2
:1012500046EA0C06A242C7F8B06037D193B195FABE
:10126000A5F2B2FA82F2013202F01E03092B02F05B
:101270001F0310D801229A4003EB430342EA0353B1
:1012800015E000BF012202EB956202F01E030A2B5B
:1012900002F01F03EED3012200269A4003EB430322
:1012A000CFF6206606EB03531A4342F00073C3F3F4
:1012B000406607EB86068A687569C3F30453072402
:1012C0009C40A5439A402A4372610D680021C8F2F0
:1012D00008010D4200F0828040F2083CC5F2000C8B
:1012E000DCF800400021CCF221318D4204F0E07E98
:1012F00004D01021C9F2C0018D4241D1B7F1A04FF5
:101300004FF0000108BF14F4000268D1DCF80010AF
:1013100042F6635221F0E07141EA0E0141F400010E
:10132000CCF8001040F20C01C2F200010968C0F2D2
:101330003E528909A1FB0212910901EB41010C22E5
:1013400002EB810100910099002947D000990139F1
:1013500000910099002941D000990139009100992C
:10136000E1B30099013900910099B9B300990139AD
:101370000091009900294FF00001E7D12FE000BF54
:101380000021CCF252718D4210D10021B1EB1E6FC1
:101390000CD1ACF502718F4220D0DCF8001021F0A6
:1013A000E07141EA0E0141F0807115E0ACF5027187
:1013B0008F424FF0000112D00022CCF684329542C9
:1013C00008BF14F480020AD1DCF8001021F0E071AB
:1013D00041EA0E0141F48001CCF800100021002206
:1013E00080F85820084601B0F0BD00000068006C8D
:1013F00070470000B0B582B000210028019155D09F
:10140000C16D39B9044600F009F920460021216672
:1014100084F858100268916889004FF6C071C5F6CB
:10142000FF7102D593680B4093609368DB002ED464
:10143000936801F18051194041F08051916040F270
:101440000C01C2F20001096842F663538909C0F237
:101450003E53A1FB03139909022303EB41010191C0
:101460000199A1B1019901390191019979B10199CC
:1014700001390191019951B1019901390191019904
:1014800029B101990139019101990029EAD19168A5
:10149000C90011D4C16D4FF0010E41F01001C165BA
:1014A000016E41F00101016608E000BF4FF0010E3E
:1014B000704602B0B0BD00BF4FF0000E9368C46D1F
:1014C00003F0040304F010041B19C36D68D123F466
:1014D00081730233C3659368DB071AD140F2083C7D
:1014E0004FF600544FF60063C5F2000CCFF6FF74C0
:1014F000CFF6FF735CF804405CF803302343DB074E
:1015000007D14368DCF8004024F47C142343CCF872
:101510000030437FC46BD0E902C144EA433319432E
:1015200090F8243041EA0C01012B41EA034306D133
:10153000816A0024CFF6FE7404EB41410B43C46A78
:1015400024B1016B04F4787421430B43D16844F255
:101550000704CFF6F07421401943D1601169436B41
:1015600021F04061194311619168090743D490F853
:101570003810037F490041EA8331D36844F2020402
:10158000A3431943D160036914698BB144F48031DA
:101590001161D2F8C01043F6FF74A1430B4310E071
:1015A00043F010024FF0010EC265704602B0B0BDAC
:1015B00024F480311161D2F8C01043F6FF7321EAA0
:1015C0000303C2F8C03090F84010136901290FD10D
:1015D00040F2FD7123EA010CD0E91134D0E9131572
:1015E00043EA0C0323431943294341F0010301E07B
:1015F00023F0010313614169136B012923F00F03E9
:1016000002D1016A01390B431363C26D012161F3F9
:101610000102C265704602B0B0BD000010B598B0BE
:10162000044600201790CDE91500CDE9130002A86B
:1016300004304021FEF7A4FF206840F20011C5F2FB
:101640000001884202D018B010BD00BF4FF000501A
:101650004FF40044119002A8029400F089FB002886
:1016600018BFFFF785FC41F24C00C4F2020001688C
:1016700041F400510160016801F4005101910199A8
:10168000016841F002010160006813A900F0020046
:1016900001900198032014900020159040F2004022
:1016A000C4F60000139400F037F918B010BD000024
:1016B0002DE9F04740F208390446C5F20009D9F88F
:1016C0000000D4F818800D46B8F1080F00F01F0A8A
:1016D00002D1082712E000BFBAF1090F00F284809E
:1016E000012000FA0AF040F22121084200F07C803B
:1016F0002068C068C00740F07D80042700F0F2F940
:1017000021680A683A423DD0E06D40F40070E0651F
:10171000C86810F4406F0FD1607F68B9086800078F
:101720000AD5E06D20F48070E065E06DC00403D45C
:10173000E06D40F00100E065A9F5027081420846C5
:1017400008BF4FF0A0400246BAF1090F08BF0A4691
:10175000BAF1050F08BF0A46BAF1000F08BF0A46E2
:10176000884208BF0246D068B8F1080F02D10820AD
:1017700003E000BF400401D40C2008600020BDE855
:10178000F08700BF0646681C2AD065B900F0AAF9A8
:101790002168086838420FD008683842F6D0B3E7AD
:1017A00008683842B0D100F09DF9801B2168A8423A
:1017B000F6D908683842F3D1E06D40F00400E065E6
:1017C000002084F858000320BDE8F08708683842FC
:1017D0009AD10868384297D1086838427FF494AFAC
:1017E00008683842F2D08FE7D9F8000010F4604F53
:1017F0003FF483AFE06D40F02000E0650120BDE8DC
:10180000F087000070B540F20014C5F20004D4F86F
:10181000085201688968490703D490F858100129D3
:1018200002D1022070BD00BF012180F85810064689
:10183000FFF71EFB20B1002086F85800012070BD84
:101840003168F26D40F601739A43304602F58076B6
:101850000A46A14208BF4FF0A042531AB3FA83F3DD
:101860005B0905F01F0CDB07C66502D1BCF1000F58
:1018700003D1C66D26F48016C665C66D0025F60434
:101880004FF0000644BF066E26F0060606661C26CC
:101890000E6080F858504BB9BCF1090F18D80123DD
:1018A00003FA0CF340F22126334211D0CA689201A8
:1018B00004D5C26D012363F30D32C26588684FF60B
:1018C000C072C7F6FF72104004308860002070BDFF
:1018D000C16D41F48011C165D16889015CBF0020F0
:1018E00070BDC16D012262F30D31C165002070BD74
:1018F000B0B5044600F0F6F8054640F20000C2F22A
:1019000000004068611C18BF044400BF00F0EAF802
:10191000401BA042FAD3B0BD2DE9F04F83B00E6852
:10192000002E00F0CF8000F1200241F2004C009226
:1019300000F13847C4F6000C06224FEAB72560458F
:1019400008BF0522052D38BF4FEAB7220025002722
:101950004FF0000801920AE00E6808F1010836FA1B
:1019600008F207F1020705F1040500F0AB8001223F
:1019700002FA08FE16EA0E09EED0D1F804C00322DE
:101980000CF0030BABF1010602FA07F4012E6FEA2B
:10199000040A11D88468CE6804EA0A04BE403443BD
:1019A0008460446824EA0E06CCF3001404FA08F4B8
:1019B0002643466006E000BFBBF1030F02D14FF0A3
:1019C000030B21E0C6688C6806EA0A06BC40264381
:1019D000BBF1020FC66017D16FF00302009B02EA51
:1019E000580605F01C020F2453F806C004FA02FE44
:1019F0000C692CEA0E0C04FA02F242EA0C029A512B
:101A0000D1F804C00CF0030B02680BFA07F302EAEA
:101A10000A021A431CF4403F02609DD041F2600369
:101A2000C4F202031A6840F2004E42F001021A604A
:101A30001A68C4F2010E02F001020292029A28F022
:101A400003024FF6084C7244CFF6FF7C52F80C307C
:101A500005F00C060F24B440A343019C04FA06F6DB
:101A6000334342F80C30DEF808204B6842EA09069E
:101A700040F20C4CDC0258BF22EA0906CEF808609E
:101A8000C4F2010CDCF800209C0242EA090658BFAF
:101A900022EA0906CCF80060DEF804209C0342EA42
:101AA000090658BF22EA0906CEF80460DEF80020D5
:101AB000DB0342EA090658BF22EA0906CEF80060B5
:101AC0004AE700BF03B0BDE8F08F0000006908409E
:101AD00018BF0120704700001823002A08BF2823E0
:101AE000C150704740F2DC10C2F20000006870473D
:101AF00040F2000040F2DC11C2F20000C2F200012C
:101B000040680A68104408607047000080B50320F0
:101B100000F08CF8002000F009F800281CBF01201C
:101B200080BD00F02BF8002080BD0000B0B540F271
:101B30000005C2F200056968F1B1044640F20C00EC
:101B4000C2F200004FF47A720068B2FBF1F1B0FB10
:101B5000F1F000F02DFE01460F2C4FF001000AD8E5
:101B6000002918BFB0BD4FF0FF302146002200F021
:101B700031F800202C60B0BD0120B0BD82B041F230
:101B80005800C4F20200816841F00101816081685F
:101B900001F0010101910199016841F0805101605A
:101BA000006800F080500090009802B000F0D6B8B5
:101BB000002848BF704700F01F01012202FA01F11E
:101BC0001C2202EAD0004EF20012CEF20002815036
:101BD0007047000010B54EF60C5CCEF2000CDCF83D
:101BE0000030C3F3022E8EF00704042C28BF042417
:101BF000BEF103034FF0FF3E0EFA04F438BF00239A
:101C0000A14399400EFA03F39A43114300F00F02E7
:101C100000F160430901043A03F56443624400287B
:101C200048BF02F10C03197010BD00004EF60C51B4
:101C3000CEF200010A684FF6FF031A4060F30A2251
:101C400042F0806040F0FD700860704747F2140178
:101C5000C4F2000151F8142CB0F5007F3CD00028EC
:101C600074D1C86E02F4C06220F48070B2F5806F47
:101C7000C8662FD151F8140C012262F34A2041F8B2
:101C8000140C40F20C00C2F20000006832225043F3
:101C90004DF68362C4F21B32A0FB0202900C00BF1F
:101CA0000A68520511D5421C0FD00A6852050CD59E
:101CB00058B10A68520508D5012806D00A685205AD
:101CC00003D50228A0F10400EAD10868400544BF0A
:101CD0000320704700207047C86E02F4C06240F4D1
:101CE0008070B2F5806FC866F4D151F8140C0122EF
:101CF00062F34A2041F8140C40F20C00C2F20000DA
:101D00000068322250434DF68362C4F21B32A0FBBE
:101D10000202900C0A68520511D5421C0FD00A68C5
:101D200052050CD558B10A68520508D5012806D0CD
:101D30000A68520503D50228A0F10400EAD1086818
:101D4000400544BF03207047C4E700BF022060F392
:101D50004A2241F8142C00207047000047F2080086
:101D6000C4F20000016841F4804101607047000046
:101D70002DE9F04182B00446807841F288060007E0
:101D8000C4F2020602D400202FE000BF56F8300C47
:101D90005FEAC0080BD456F8300C40F0805046F88B
:101DA000300C56F8300C00F080500190019847F24A
:101DB0000007C4F20007386840F480703860FFF70D
:101DC00091FE05463868C00500F1D680FFF78AFE0F
:101DD000401B0228F6D90320B8F1000F05D456F8AD
:101DE000301C21F0805146F8301C2168CA0713D1FD
:101DF0008A0719D44A071FD40A0725D48A062BD488
:101E00004A0631D40A0637D4CA053DD48A0543D4DC
:101E10004A0549D457E000BF3268636822F00302E4
:101E20001A4332608A07E5D53268A36822F00C02B3
:101E30001A4332604A07DFD53268E36822F0300285
:101E40001A4332600A07D9D53268236922F0C002EA
:101E50001A4332608A06D3D53268636922F440623D
:101E60001A4332604A06CDD53268A36922F4405243
:101E70001A4332600A06C7D53268E36922F4404249
:101E80001A433260CA05C1D53268236A22F440324F
:101E90001A4332608A05BBD53268636A22F4402255
:101EA0001A4332604A050ED53268A36A22F4401202
:101EB0001A43B3F5801F326005D156F87C2C42F4EA
:101EC000801246F87C2C0A050ED53268E36A22F4AB
:101ED00040021A43B3F5800F326005D156F87C2CCE
:101EE00042F4801246F87C2CCA040ED53268236B6B
:101EF00022F040721A43B3F1807F326005D156F868
:101F00007C2C42F4801246F87C2C8A040ED5326870
:101F1000636B22F040621A43B3F1006F326005D167
:101F200056F87C2C42F4801246F87C2C4A040ED5DC
:101F30003268A36B22F040621A43B3F1006F326043
:101F400005D156F87C2C42F4801246F87C2C09040A
:101F50000ED53168E26B21F040511143B2F1805F40
:101F6000316005D156F87C1C41F4803146F87C1C68
:101F700002B0BDE8F08100BFB06810F4407010D02E
:101F8000216C88420BD0B068B16820F4407041F4F5
:101F90008031B160B16821F48031B160B060C007B8
:101FA0000CD1B068216C20F440700843B060002070
:101FB000B8F1000F3FF519AF11E700BFFFF792FD31
:101FC000054641F2883700BFB0688007E9D4FFF7C3
:101FD00089FD401BB842F7D9FDE600002DE9F04726
:101FE000002863D042F2000AC4F2020A0446DAF87A
:101FF00000000D4600F00F0088420CD2DAF8000015
:1020000020F00F002843CAF80000DAF8000000F0C2
:102010000F00A8424AD1216841F20808C807C4F25B
:10202000020803D1880740F1D080B5E0606858F815
:10203000082C022838D003283CD1920136D5D8F894
:102040000420D8F8043042F20046C3F3031302F030
:102050000302D8F804700133C0F2F406032A04BF67
:1020600043F20066C0F26E16B6FBF3F2D8F8043005
:10207000C7F306277A43C3F34163022707EB430301
:10208000B2FBF3F24BF20043C0F2C4439A4259D977
:10209000D8F8002012F0F00F49D0890752D5A16876
:1020A00000294FD143E000BF910305D40120BDE8D2
:1020B000F08700BF5105F9D5D8F8001001F00C01E8
:1020C00004293FD0D8F8001001F00C01082939D0BC
:1020D000D8F8001001F00C010C2933D1D8F8041005
:1020E000D8F8042042F20047C2F3031201F00301C2
:1020F000D8F804300132C0F2F407032904BF43F2D8
:102100000067C0F26E17B7FBF2F1D8F80420C3F3F2
:1021100006235943C2F34162022303EB4202B1FB9F
:10212000F2F14BF20042C0F2C44291420AD9D8F80F
:102130000010082262F307114FF00109C8F80010DF
:1021400002E000BF4FF00009D8F8001021F00301B1
:102150000843C8F80000FFF7C5FC064641F288377F
:10216000D8F80000616800F00C00B0EB810F07D0D8
:10217000FFF7B8FC801BB842F2D90320BDE8F08716
:102180002168880708D4B9F1000F1ED0D8F80000E4
:1021900020F0F00017E000BF480705D5D8F8000090
:1021A00040F4E060C8F80000080706D5D8F8000041
:1021B000072262F30D20C8F80000D8F80000A268DA
:1021C00020F0F0001043C8F80000DAF8000000F03A
:1021D0000F00A8421BD9DAF8000020F00F002843B6
:1021E000CAF80000FFF77EFC064641F2883700BFC0
:1021F000DAF8000000F00F00A84207D0FFF772FCE9
:10220000801BB842F4D90320BDE8F0872168480755
:1022100007D5D8F80000E26820F4E0601043C8F861
:102220000000080708D5D8F80000216920F46050A4
:1022300040EAC100C8F80000D8F8000042F20041AE
:10224000C0F2F40100F00C00042808462DD0D8F8A4
:10225000000000F00C00082843F20060C0F26E108D
:1022600023D0D8F8002002F00C020C2A1CD1D8F898
:102270000420D8F8043002F00302C3F30313D8F8A3
:1022800004700133032A08BF0146B1FBF3F0D8F80C
:102290000410C7F30627C1F341610222784302EB21
:1022A0004101B0FBF1F000E00020D8F8001047F643
:1022B0007C42C1F30311C0F60002515C40F20C02F3
:1022C00001F01F0120FA01F140F20000C2F200000B
:1022D0000068C2F200021160BDE8F047FFF726BCBB
:1022E000002804BF012070472DE9F04182B0044668
:1022F000007841F20006C007C4F202061ED1207821
:1023000080073DD42078000764D42078400700F18E
:1023100087802078800600F1D980E569002D00F0E3
:102320004282B06800F00C000C2840F03181012D91
:1023300040F08E81012002B0BDE8F081B06800F06D
:102340000C01F068082961D0032281F00C0122EA17
:1023500000000844B0FA80F0400957D16168306845
:10236000B1F5803F07D0B1F5A02F40F0E38040F4F5
:1023700080203060306840F480303060E4E000BF9E
:10238000B068F16800F00C00042871D001F003017E
:1023900080F00C0081F002010844B0FA80F040099E
:1023A00066D1E1683068002900F0E08040F4807078
:1023B0003060FFF797FB05463068400500F10A8161
:1023C000FFF790FB401B0228F6D9032002B0BDE8BE
:1023D000F08100BF6169D6F89400002900F0948074
:1023E00040F00100C6F89400FFF77CFB054600BFF3
:1023F000D6F8940080073FF588AFFFF773FB401BCA
:102400000228F5D9032002B0BDE8F08130688003CE
:102410007FF575AF606800287FF471AF3EE000BFC4
:10242000B06D5FEAC00808D4B06D40F08050B06570
:10243000B06D00F080500190019847F20007C4F29F
:1024400000073868C0052DD4386840F480703860C3
:10245000FFF748FB054600BF3868C00522D4FFF7E8
:1024600041FB401B0228F7D9032002B0BDE8F081F0
:102470003068400501D5E06880B17068216920F0BE
:10248000FE4040EA0160706040F20000C2F20000CD
:102490000068FFF74BFB00283FF434AF012002B087
:1024A000BDE8F081A168D6F89000012908D005297F
:1024B00040F0AE8040F00400C6F89000D6F89000DE
:1024C00040F00100C6F89000AEE000BFA169D6F868
:1024D0009800002900F0868040F00100C6F89800BE
:1024E000FFF700FB054600BFD6F8980080073FF5D0
:1024F00014AFFFF7F7FA401B02284FF00300F3D99F
:1025000002B0BDE8F08100BF20F00100C6F89400E1
:10251000FFF7E8FA054600BFD6F8940080077FF57C
:10252000F4AEFFF7DFFA401B0228F5D9032002B012
:10253000BDE8F08120F4803030603068002920F45C
:102540008020306000F0BE80FFF7CCFA054600BF67
:10255000306880033FF5D3AEFFF7C4FA401B642810
:10256000F6D9032002B0BDE8F08100BF20F48070EE
:102570003060FFF7B7FA0546306840057FF5C2AE18
:10258000FFF7B0FA401B02284FF00300F4D9B7E779
:10259000306820F080703060FFF7A4FA022D054605
:1025A0000CD100BF3068800140F1B880FFF79AFA83
:1025B000401B02284FF00300F4D9A1E730688001E6
:1025C00040F1EA80FFF78EFA401B02284FF003002B
:1025D000F4D995E77068216920F0FE4040EA016077
:1025E00070608FE620F00100C6F89800FFF77AFAD5
:1025F000054600BFD6F8980080077FF58EAEFFF73E
:1026000071FA401B02284FF00300F3D978E700BFAE
:1026100020F00100C6F89000D6F89000002920F0C4
:102620000400C6F890005DD0FFF75CFA054641F261
:10263000883700BFD6F89000800765D4FFF752FABC
:10264000401BB842F6D9032002B0BDE8F08100BFBC
:10265000F068216A00F003028A427FF41FAF626AC9
:102660006FF00F0300F0F00103EB021291427FF4D0
:1026700015AFA16A00F4FE42B2EB012F7FF40EAF5A
:10268000E16A00F07842B2EBC16F7FF407AF226BD2
:102690000023CFF6E07303EA025200F4C001A2F572
:1026A000001291427FF4FAAE616B4FF07E4202EA73
:1026B000016100F0C06001F17E4188427FF4EEAE1E
:1026C00071E000BFFFF70EFA054600BF30688003D7
:1026D0007FF515AEFFF706FA401B64284FF00300A4
:1026E000F4D90DE7FFF7FEF9054641F2883700BF40
:1026F000D6F89000800707D5FFF7F4F9401BB842E1
:102700004FF00300F4D9FBE6B8F1000F3FF501AE3E
:10271000B06D20F08050B065FBE500BFF06848F276
:102720000C01C0F29F1104F1200700EA010C8ECFCA
:102730006FF00F00D4E90C5400EB02100022CFF62A
:10274000E07241EA0C0102EA05520843A2F50012C8
:102750004FF07E4540EA032005EA0465104305F189
:102760007E4540EAC7602843F060306840F08070E2
:102770003060F06840F08070F060FFF7B3F9044615
:10278000306880010FD4FFF7ADF9001B02284FF02D
:102790000300F5D9B4E600BFF0684FF6FC71CFF640
:1027A000EE610840F060002002B0BDE8F08100005A
:1027B000411E0020B0EB116F1CBF012070474EF28C
:1027C0001002CEF2000251604EF62351CEF200010B
:1027D000F0230B7007219060116070477047000074
:1027E000704700007047000070470000704700000D
:1027F0007047000090F83C20012A4FF002024AD0B6
:1028000070B580F83D20026843F2004C546893682C
:10281000C4F2010C42F6004E6245C4F2010E01D032
:10282000724503D14D6824F470042C434FF68F7524
:10283000CFF6FF550E682C4042F6FF35C4F2010575
:102840003443AA4254600FDCB2F1804F16D040F2FC
:102850000046C4F20006B24210D040F60006C4F2B0
:102860000006B2420AD00EE0724507D044F20006DC
:10287000C4F20106B24201D0624504D1896823F056
:102880008003194391600121002280F83D1080F8F7
:102890003C20BDE8704010467047000070470000C3
:1028A000002804BF0120704710B5044690F83D0091
:1028B00028B9002084F83C00204600F023F80220CC
:1028C00084F83D002068211D03F07EFE012084F87D
:1028D000480084F83E0084F83F0084F8400084F803
:1028E000410084F8420084F8430084F8440084F8EE
:1028F000450084F8460084F8470084F83D00002035
:1029000010BD000080B586B0006840F20042C4F2FD
:10291000000200219042CDE90411CDE9021101919C
:1029200012D0B0F1804F3ED141F25800C4F2020003
:10293000016841F001010160006800F001000090B1
:10294000009806B080BD00BF41F25800C4F20200FA
:10295000026842F002020260026802F00202009283
:10296000009A50F80C2C42F0020240F80C2C50F85F
:102970000C0C00F002000090009810200190022042
:10298000CDE90201CDE9041040F20040C4F6000098
:1029900001A9FEF7C1FF1D2000210022FFF71AF94F
:1029A0001D20FFF705F906B080BD000090F83C201F
:1029B000012A4FF0020200F0AC8080B580F83D2083
:1029C000D0F800C08822DCF80830CFF6CE721A406A
:1029D000CCF808200B686F2B10DD1F22C0F210020C
:1029E000934237DCB3F5005F6EDA702B00F0B680EF
:1029F000B3F5805F00F08480D8E000BF2F2B35DD79
:102A00004F2B39DC302B6FD0402B40F0CF80D1F8EA
:102A100004E0C968DCF82030DCF8202022F0010254
:102A2000CCF82020DCF8182022F0F00242EA011154
:102A300023F00A0242EA0E02CCF81810CCF820204B
:102A4000DCF808104FF68872CFF6CF72114047318C
:102A500054E000BF3F21C0F210018B423ADC20213C
:102A6000C0F210018B423FD0302139E0E3B3102B8C
:102A70003AD0202B38D099E0502B4DD0602B40F02D
:102A80009580D1F804E0C968DCF82030DCF820201B
:102A900022F01002CCF82020DCF8182022F470423A
:102AA00042EA013123F0A00242EA0E12CCF81810DB
:102AB000CCF82020DCF808104FF68872CFF6CF72E1
:102AC000114067311AE000BF5CD0B3F1101F0BD08A
:102AD0006CE000BF4021C0F210018B4204D0702195
:102AE000C0F210018B4261D1DCF808104FF68872F9
:102AF000CFF6CF721140194341F00701CCF808100E
:102B00000022012180F83D10002180F83C10BDE832
:102B100080401046704700BFD1F804E0C968DCF877
:102B20002030DCF8202022F00102CCF82020DCF854
:102B3000182022F0F00242EA011123F00A0242EAD0
:102B40000E02CCF81810CCF82020DCF808104FF654
:102B50008872CFF6CF7211405731CFE7D1E901E348
:102B6000C968DCF8082043EA0E0322F47F4243EAF6
:102B700001211143CCF80810DCF8081041F077016E
:102B8000BCE700BFD1E901E3C968DCF8082043EAEB
:102B90000E0322F47F4243EA01211143CCF80810CE
:102BA000DCF8081041F48041A8E700BF0122A8E743
:102BB00040F28011C2F20001884218BF70470868D5
:102BC000002141627047000090F83C30012B04BFA7
:102BD000022070474FEAB202032A00F29180F0B55A
:102BE000DFE802F002682A4A0368D1E900C5D1F89B
:102BF0000CE01C6A1A6A42F6FF3722F001021A62E0
:102C00001A4652F8186FC4F20107BB4200F37E80E7
:102C1000B3F1804F00F08C8040F20047C4F200070F
:102C2000BB4200F0858040F60007C4F20007BB42BB
:102C300000F07E8098E000BF0768D1E900C5D1E9C7
:102C400002313C6A3A6A61F3071522F480723A62F3
:102C50003A4652F81C6F26F0F30645EA060124F4C2
:102C600020660CF00A0546EA052611603E621168EE
:102C700021F00C0111606CE00368D1E900E6D1E9B4
:102C800002C11C6A1A6A360222F480521A621A467B
:102C900052F81C5F4FF2FF07BE4325F4734561F302
:102CA0000F3624F420440EF00A0746EA050144EAF0
:102CB00007371CE00368D1E900E6D1E902C11C6ACC
:102CC0001A6A360222F010021A621A4652F8185F87
:102CD0004FF2FF07BE4325F4734561F30F3624F02E
:102CE000A0040EF00A0746EA050144EA071711603E
:102CF0001F6211684FEA0C2321F44061116028E043
:102D00000121002280F83C200846704742F6004727
:102D1000C4F20107BB420BD044F20007C4F2010722
:102D2000BB4205D043F20047C4F20107BB421BD1AE
:102D300026F00306354324F00A070CF00A066EF36A
:102D4000071537449D611F629F6927F00C079F613B
:102D50008B681168194311600021BDE8F040002222
:102D600080F83C200846704746F00105E3E7000084
:102D7000002804BF0120704710B5044690F83D00BC
:102D800028B9002084F83C00204600F023F80220F7
:102D900084F83D002068211D03F016FC012084F812
:102DA000480084F83E0084F83F0084F8400084F82E
:102DB000410084F8420084F8430084F8440084F819
:102DC000450084F8460084F8470084F83D00002060
:102DD00010BD00007047000080B5E9B10A1F4FEA3E
:102DE000B20E43234FF03F0CBEF1040F38BF0CEB83
:102DF000B203C25C4723082908BF4623042908BF41
:102E00004523012A4FF0010210F803C008BFBCF1AE
:102E1000010F17D0104680BD90F83E2090F8443046
:102E2000012A4FF0010208BF012BF3D1022280F8E2
:102E30003E2080F844204FEAB103032B4FF00102FB
:102E4000E8D838E0BEF1030F28D8DFE80EF003150C
:102E5000090F00BF022280F83F20082911D122E08B
:102E6000022280F8412008290BD11CE0022280F8C0
:102E70004220082905D116E0022280F840200829C6
:102E800011D0042914BF80F8472080F845204FEA6C
:102E9000B103032B4FF00102BCD80CE0022280F8F2
:102EA00043200829EDD180F846204FEAB103032BD7
:102EB0004FF00102AED848F65C6C0068C0F6000C1A
:102EC0005CF823C0C36801F01F0143EA0C03C36030
:102ED000036A02FA01F123EA01020262026A114363
:102EE00042F6FF32C4F201029042016210DCB0F1FE
:102EF000804F1FD040F20041C4F20001884219D037
:102F000040F60001C4F20001884213D020E000BF67
:102F100042F60041C4F2010188420BD044F20001A4
:102F2000C4F20101884205D043F20041C4F201011C
:102F300088420DD181680722C0F2010211400629A2
:102F40004FF000023FF466AFB1F5803F3FF462AF4F
:102F50000168002241F001010160104680BD0000BF
:102F6000F0B581B004460068C5680669B10717D599
:102F700015F0020114D06FF00201016101212177E7
:102F80008069800704D02046FFF712FE06E000BFEC
:102F9000204600F0CBF8204600F0E2FA002020772F
:102FA000700719D515F0040016D020686FF00401E1
:102FB000016102212177806910F4407F04D020460E
:102FC000FFF7F6FD06E000BF204600F0AFF8204610
:102FD00000F0C6FA00202077300717D515F008005A
:102FE00014D020686FF00801016104212177C069C5
:102FF000800703D02046FFF7DBFD05E0204600F008
:1030000095F8204600F0ACFA00202077F00619D59C
:1030100015F0100016D020686FF010010161082132
:103020002177C06910F4407F04D02046FFF7C0FD2F
:1030300006E000BF204600F079F8204600F090FA44
:1030400000202077F00718BF15F0010006D0206897
:103050006FF001010161204600F03AFB16F4025FB7
:1030600005F0800718BF002F02D1F00509D410E049
:1030700020686FF4025101612046FFF7B1FBF005B3
:1030800007D537B120686FF4807101612046FFF7E2
:10309000A5FB700609D515F0400006D020686FF03A
:1030A00040010161204600F021FBB00609D515F072
:1030B000200006D020686FF0200101612046FFF754
:1030C00091FBF00209D515F4801006D020686FF44A
:1030D000801101612046FFF789FBB00209D515F484
:1030E000001006D020686FF4001101612046FFF740
:1030F0007BFB700209D515F4800006D020686FF4C0
:10310000800101612046FFF773FB30020CD515F4F6
:10311000000009D021686FF4000220460A6101B066
:10312000BDE8F040FFF7BABB01B0F0BD704700004A
:1031300090F83C30012B04BF022070474FEAB202E6
:10314000052A00F2D3812DE9F041DFE812F00700F3
:1031500035018D00E1005100870100BF03681D6A41
:103160001A6AA3F1804622F001021A621A465C68CC
:1031700052F818CF8F68A6F59636D1F800E025F002
:1031800002054FEAB626072E45EA07050AD80127A9
:10319000B74017F0E50F1FBFCF6825F00C0527F0EB
:1031A00004073D43072E0BD8012707FA06F616F051
:1031B000E50F1FBFD1E9056724F4407434433C4355
:1031C0004FF68C76CFF6FE760CEA060747EA0E0736
:1031D0005C609F614F6809695F631D629F6947F08A
:1031E00008079F619F6927F004079F6173E100BF93
:1031F0000368D3F820C01A6AA3F1804722F4803212
:103200001A621A46A7F596375D6852F8508FD1F8C2
:1032100000E08E684FEAB727072F09D80124BC4089
:1032200014F0E50F1EBF4C6925F4803545EA0425EE
:103230002CF4003747EA06474FF68C76CFF6FE7639
:10324000033606EA080646EA0E065D601E654E680D
:1032500009699E641F621F6D47F008071F651F6D97
:1032600027F004071F6536E1036843F200461D6A34
:103270001A6AC4F2010622F480721A621A46D3F85E
:1032800004C052F81CEFB3428E68D1F8008025F4D8
:10329000007545EA062505D042F60046C4F201064F
:1032A000B34207D1CE6840F2FF47360225F44065AD
:1032B000BE433543A3F18046A6F596364FEAB626BF
:1032C000072E0CD8012707FA06F616F0E50F1FBFE8
:1032D000D1E905672CF44054374344EA071C4FF604
:1032E0008C74CFF6FE740EEA040747EA0807C3F8A9
:1032F00004C0DF614F680969DF631D62DF6947F061
:103300000807DF61DF6927F00407DF61E3E000BF42
:10331000036843F200461D6A1A6AC4F2010622F4E9
:1033200080521A621A46D3F804C052F81C8FB34276
:103330008E68D1F800E025F4005545EA063505D041
:1033400042F60046C4F20106B34207D1CE6844F605
:10335000FF77360325F44045BE433543A3F180464D
:10336000A6F596364FEAB626072E0CD8012707FA9F
:1033700006F616F0E50F1FBFD1E905672CF44044AF
:10338000374344EA871C48F6FF44CFF6FF6404EA5B
:10339000080444EA0E27C3F804C0DF614F680969D6
:1033A0001F641D62DF6947F40067DF61DF6927F48E
:1033B0008067DF618EE000BF036843F200461D6A4C
:1033C0001A6AC4F2010622F010021A621A465C68F8
:1033D00052F818CFB3428E68D1F800E025F02005EE
:1033E00045EA061505D042F60046C4F20106B3428E
:1033F00007D1CE686FF0400725F0C00507EA061632
:103400003543A3F18046A6F596364FEAB626072E39
:103410000CD8012707FA06F616F0E50F1FBFD1E911
:10342000056724F440643E4344EA860448F6FF46B8
:10343000CFF6FF660CEA060747EA0E275C609F613D
:103440004F6809699F631D629F6947F400679F6128
:103450009F6927F480679F613CE000BF0368D3F851
:1034600020C01A6AA3F1804722F480121A621A4619
:10347000A7F596375D6852F8508FD1F800E08E6856
:103480004FEAB727072F09D80124BC4014F0E50FF5
:103490001EBF4C6925F4802545EA84252CF40017CD
:1034A00047EA065748F6FF46CFF6FF6606F5407630
:1034B00006EA080646EA0E265D601E654E68096942
:1034C000DE641F621F6D47F400671F651F6D27F4E0
:1034D00080671F6509021368194311600021BDE868
:1034E000F041002280F83C2008467047012100226C
:1034F00080F83C2008467047002804BF0120704730
:1035000010B5044690F83D0028B9002084F83C002E
:10351000204600F023F8022084F83D002068211D99
:1035200003F052F8012084F8480084F83E0084F843
:103530003F0084F8400084F8410084F8420084F899
:10354000430084F8440084F8450084F8460084F879
:10355000470084F83D00002010BD000070470000C7
:103560007047000080B5D9B10B1F4FEAB30E43225C
:103570004FF03F0CBEF1040F38BF0CEBB302825C7E
:10358000012A1CBF012080BDBEF1030F1ED8DFE859
:103590000EF00319111500BF022280F83F2018E039
:1035A00090F83E20012A1CBF012080BD022280F835
:1035B0003E200EE0022280F841200AE0022280F83C
:1035C000422006E0022280F8402002E0022280F839
:1035D0004320026801F01F010120136A00FA01F183
:1035E0008B431362136A0B43A2F18041A1F596311C
:1035F0004FEAB1210629136244D8884010F0650FC4
:1036000040D0506C42F6FF31C4F2010140F400405A
:103610008A42506410DCB2F1804F1FD040F200406B
:10362000C4F20000824219D040F60000C4F200004B
:10363000824213D01FE000BF42F60040C4F20100F6
:1036400082420BD044F20000C4F20100824205D055
:1036500043F20040C4F2010082420CD1906807217D
:10366000C0F20101014006294FF0000008D0B1F579
:10367000803F08BF80BD106840F00100106000204E
:1036800080BD00BF42F6FF30C4F201008242C2DDBD
:1036900043F6FF70C4F20100824207DC42F60040AC
:1036A000C4F201008242D3D1D8E700BF44F2000047
:1036B000C4F201008242D1D044F60000C4F20100FD
:1036C000824202BF506C40F400405064D3E70000D7
:1036D000704700004FEAB101032984BF0020704702
:1036E000006800EB8100406B7047000070470000ED
:1036F000FEE7000040F21001C2F20001496800221A
:10370000014411F8010C01F8012C704770B540F22A
:10371000004440F21005C4F60004C2F20005002087
:103720002870204601210126FEF7D0F978B3204603
:1037300002210226FEF7CAF948B320460421FEF70B
:10374000C5F9B8B14FF090400121FEF7BFF9E8B1DB
:103750002E78687880F0FF010E421ED186F0FF01BE
:10376000084210D02989B1F5FA6F05D96968084473
:10377000022106E003260AE00B2904D36968084405
:10378000012100F8011C2878687070BD04262E7095
:10379000687880F0FF010E42E0D000202881287870
:1037A000687070BD40F21841C4F600010A6942F425
:1037B00000720A610A6942F480720A610A6842F082
:1037C00020020A602022C1F8FC230A6942F020028C
:1037D0000A6100BF00BF00BF0A6842F020020A6011
:1037E0000A6842F480720A600022C1F8FC230B6967
:1037F00043F020030B6100BF00BF00BF0B6843F024
:1038000020030B600B6843F480730B600B6943F477
:1038100000730B610B6943F480730B610B6843F019
:1038200020030B602123C1F8FC330B6943F0200314
:103830000B6100BF00BF00BF0B6843F020030B60AB
:103840000B6843F480730B60C1F8FC230A6942F0F3
:1038500020020A6100BF00BF00BF0A6842F02002D8
:103860000A600A6842F480720A600A6942F40072CF
:103870000A610A6942F480720A610A6842F0200211
:103880000A602222C1F8FC230A6942F020020A6180
:1038900000BF00BF00BF0A6842F020020A600A6849
:1038A00042F480720A6000BF00BF00BF0A6842F4A1
:1038B00000720A604FF496320B69053A43F40073C4
:1038C0000B610B6843F480730B600B6843F02003BB
:1038D0000B60C1F8FC030B6943F020030B6100BFD0
:1038E00000BF00BF0B6843F020030B600B6843F47C
:1038F00080730B6000BF00BF00BF0B6843F4007310
:103900000B600B6943F400730B610B6843F4807325
:103910000B600B6843F020030B60C1F8FC030B69DC
:1039200043F020030B6100BF00BF00BF0B6843F0F2
:1039300020030B600B6843F480730B6000BF00BF73
:1039400000BF0B6843F400730B600B6943F4007312
:103950000B610B6843F480730B600B6843F020032A
:103960000B60C1F8FC030B6943F020030B6100BF3F
:1039700000BF00BF0B6843F020030B600B6843F4EB
:1039800080730B6000BF00BF00BF0B6843F400737F
:103990000B600B6943F400730B610B6843F4807395
:1039A0000B600B6843F020030B60C1F8FC030B694C
:1039B00043F020030B6100BF00BF00BF0B6843F062
:1039C00020030B600B6843F480730B6000BF00BFE3
:1039D00000BF0B6843F400730B600B6943F4007382
:1039E0000B610B6843F480730B600B6843F020039A
:1039F0000B60C1F8FC030B6943F020030B6100BFAF
:103A000000BF00BF0B6843F020030B600B6843F45A
:103A100080730B6000BF00BF00BF0B6843F40073EE
:103A20000B607FF449AF70470A78002A08BF7047DF
:103A30002DE9F04147F68C4804464D1C002740F222
:103A40003F16C0F6000800BFA2F12000C1B2490035
:103A500051FA80F008EB0012B1B2204600F00AF8EB
:103A6000EA5D22B1103E132F07F10107ECD3BDE848
:103A7000F04170472DE9F04740F21843C4F60003C7
:103A80001F694FF0200C47F400771F611F694FF04A
:103A9000210E47F480771F611F6840F2080947F044
:103AA00020071F60C3F8FCC31F6940F2C20A47F039
:103AB00020071F6100BF00BF00BF1F684FF0220832
:103AC00047F020071F601F68C2F2000947F48077A3
:103AD0001F60C3F8FC031F69C2F2000A47F0200709
:103AE0001F6100BF00BF00BF1F6847F020071F60B5
:103AF0001F6847F480771F601F6947F400771F61D4
:103B00001F6947F480771F611F6847F020071F6017
:103B1000C3F8FCE31C6944F020041C6100BF00BF33
:103B200000BF1C6844F020041C601C6844F48074CE
:103B30001C60C3F8FC131C6944F020041C6100BF26
:103B400000BF00BF1C6844F020041C601C6844F4E3
:103B500080741C60002400BF1D6945F400751D6160
:103B60001D6945F480751D611D6845F020051D60C7
:103B7000C3F8FC831D6945F020051D6100BF00BF2F
:103B800000BF1D6845F020051D601D6845F4807567
:103B90001D6000BF00BF00BF1D6845F400751D60BB
:103BA000002500BF32F81460EE40F607564608BF05
:103BB0004E4636881F6947F400771F611F6847F437
:103BC00080771F601F6847F020071F60C3F8FC6301
:103BD0001E696F1C46F020061E6100BF00BF00BFBB
:103BE0001E6846F020061E601E6846F480761E6041
:103BF00000BF00BF00BF1E6846F400761E6032F8AA
:103C00001460FE40F607564608BF4E4636881F69C8
:103C100047F400771F611F6847F480771F601F68B3
:103C200047F020071F60C3F8FC631E69AF1C46F015
:103C300020061E6100BF00BF00BF1E6846F02006C0
:103C40001E601E6846F480761E6000BF00BF00BF85
:103C50001E6846F400761E6032F81460FE40F607D7
:103C6000564608BF4E4636881F6947F400771F61E5
:103C70001F6847F480771F601F6847F020071F60A8
:103C8000C3F8FC631E69EF1C46F020061E6100BFEE
:103C900000BF00BF1E68043546F020061E601E6887
:103CA00046F480761E6000BF00BF00BF1E6846F469
:103CB00000761E6032F81460FE40F607564608BFD4
:103CC0004E4636881F69102D47F400771F611F6824
:103CD00047F480771F601F6847F020071F60C3F814
:103CE000FC631E6946F020061E6100BF00BF00BFD6
:103CF0001E6846F020061E601E6846F480761E6030
:103D000000BF00BF00BF1E6846F400761E607FF44F
:103D100049AF1D69013045F400751D611D6901340D
:103D200045F480751D611D68182C45F020051D6047
:103D3000C3F8FCC31D6945F020051D6100BF00BF2D
:103D400000BF1D6845F020051D601D6845F48075A5
:103D50001D60C5B2C3F8FC531D6945F020051D6107
:103D600000BF00BF00BF1D6845F020051D601D6835
:103D700045F480751D601D6945F400751D611D6960
:103D800045F480751D611D6845F020051D60C3F870
:103D9000FCE31D6945F020051D6100BF00BF00BFA9
:103DA0001D6845F020051D601D6845F480751D6087
:103DB000C3F8FC131D6945F020051D6100BF00BF5D
:103DC00000BF1D6845F020051D601D6845F4807525
:103DD0001D6008BFBDE8F087BEE600002DE9F04F8A
:103DE0008BB0002641F24C000596CDE90366CDE983
:103DF0000166C4F20200016840F2184541F0040176
:103E000001600168C4F6000501F0040106910699FD
:103E1000016801AC41F001010160016840F614093C
:103E200001F001010691069901684FF0030841F085
:103E3000020101600068214600F002000690069829
:103E40004FF44870019001200290A5F11800C4F6CB
:103E500000090127CDE90368FDF75EFD4FF480708E
:103E6000CDE901074FF090402146CDE90368FDF709
:103E700053FD4FF6FF7005F57A74069006A92046AB
:103E80000A964FF6FF7BCDF82480CDE90776FDF743
:103E900043FD4FF6004ACFF6FF7A55F80A0006A90F
:103EA00040F4807045F80A0028684FF6FF7740F428
:103EB00008702860286940F400702861286940F47F
:103EC00080702861286840F020002860C9F80060F0
:103ED000286940F02000286100BF00BF00BF2868AB
:103EE00040F020002860286840F480702860204658
:103EF0000A96CDF818B0CDF82480CDE90766FDF715
:103F00000BFD4FF6104BCFF6FF7B55F80B0007A9C2
:103F100040F4807045F80B0000BF00BF00BFD5F82B
:103F2000F89355F80A0040F4807045F80A00012023
:103F300081E8410106A920460A960697FDF7ECFCA8
:103F4000286848F2302140F40070286040F2C40034
:103F5000C2F20000A0F800900088884202D100F070
:103F600005FB01E001F076F82869002740F40070B5
:103F7000286128694FF6FF7840F48070286128682E
:103F80004FF0030940F02000286040F61400C4F60A
:103F900000000760286906A940F02000286100BFE2
:103FA00000BF00BF286840F020002860286840F467
:103FB0008070286020460A97CDE90687CDE9087908
:103FC000FDF7AAFC55F80B0007A940F4807045F8EE
:103FD0000B0000BF00BF00BFD5F8F86355F80A001A
:103FE00040F4807045F80A00012081E8810206A9AA
:103FF00020460A97CDF81880FDF78EFC286840F41B
:104000000070286040F2C400C2F2000006800BB0CD
:10401000BDE8F08F81B0ADF80200BDF8020040F2BB
:104020000801C2F20001088001B0704781B0ADF80C
:104030000200BDF8020040F2C201C2F20001088095
:1040400001B0704710B540F2D010C2F20000007805
:104050004FF6144140F600446FEA0020CFF6FF719E
:10406000C4F600046050204604210122FDF734FD0F
:10407000204604210022BDE81040FDF72DBD0000C0
:10408000B0B588B040F2C80040F20011C2F20000A2
:10409000C5F2000100244FF40032042580E8160028
:1040A0000121CDE90644C0E90344C0E90545848304
:1040B000016280F82440C0E90B4480F83840C463B2
:1040C00080F84040FDF796F9002818BFFCF750FF34
:1040D00048F20000C3F6F06000900620CDE901042C
:1040E0007F20CDE9030540F2C800C2F20000694616
:1040F0000594FCF7ADFF002818BFFCF739FF08B0A6
:10410000B0BD00002DE9F04387B0002741F24C001C
:104110000697CDE90477CDE90277C4F20200016881
:1041200040F6000541F0040101600168C4F6000595
:1041300001F00401019101990168012241F020017F
:10414000016001684FF47F4601F02001019101995F
:1041500001684FF0010841F001010160016801F0C0
:10416000010101910199016841F0020101600168BA
:1041700001F0020101910199016841F0080101601B
:1041800000684FF47F4100F0080001900198284634
:10419000FDF7A2FC05F580642046042100224FF0C3
:1041A0000409FDF799FCCDE9026802AE28463146C4
:1041B000CDE90477FDF7B0FB4FF090403146CDE9F3
:1041C00002870497FDF7A8FB0720CDE90207A5F5B4
:1041D000806031460497FDF79FFB20463146CDE9CC
:1041E0000298CDE90477FDF797FB07B0BDE8F083AF
:1041F00010B594B040F234100021C2F20000F9244E
:104200000D91CDE90B11CDE90811CDE90611CDE9EC
:104210000411CDE90211CDE900114FF080424F2386
:10422000C0E9021401618021C0E900238161FEF729
:1042300037FB002818BFFCF79BFE4FF480500A9014
:1042400040F23410C2F200000AA9FEF7AFFB0028CA
:1042500018BFFCF78DFE40F23410C2F20000FFF7E9
:104260004BF9002818BFFCF783FE40F234100024FD
:10427000C2F2000007A907940994FEF7BBFA0028D0
:1042800018BFFCF775FE6020CDE900040294049489
:1042900040F23414C2F20004694620460422FEF7BC
:1042A00047FF002818BFFCF763FE21680020B1F12A
:1042B000804F1390CDE9110010900F9002D014B0F0
:1042C00010BD00BF41F24C01C4F202010A6842F085
:1042D00001020A60096801F001010E910E990221A4
:1042E000CDE911000120CDE90F1113900FA94FF076
:1042F0009040FDF711FB14B010BD000010B58CB05C
:1043000040F2801040F200420021C2F20000C4F2EC
:1043100000024F234FF6FF740B91CDE9091107916D
:10432000CDE90511CDE90311CDE90111C0E9002363
:10433000C0E9021401618161FEF7B2FA002818BFDA
:10434000FCF716FE4FF48050089040F28010C2F245
:10435000000008A9FEF72AFB002818BFFCF708FE9A
:1043600040F28010C2F20000FEF702FD002818BFE4
:10437000FCF7FEFD40F280100024C2F2000005A907
:1043800005940794FEF736FA002818BFFCF7F0FDF5
:104390000120CDE902040F20049040F28010C2F207
:1043A000000001A900220194FEF70EFC002818BFAE
:1043B000FCF7DEFD0CB010BDFEE70000FEE70000DC
:1043C0007047000000000000B0B540F2D415C2F202
:1043D0000005287950B940F2C800C2F200007F21E0
:1043E000FCF7CCFD287980F00100287140F2C80468
:1043F000C2F200042046FDF705FA20464FF0FF31D7
:10440000FDF756F9002818BFB0BD40F2C800C2F24F
:104410000000FCF7EBFF03F0A6F99FED090B53EC4E
:10442000102B03F02BFA9FED080B53EC102B02F02E
:10443000EBFF02F0ABFF2860B0BD00BF00BF00BFC4
:104440006666666666660A400000000000FEAF40D1
:1044500070B540F22006C2F20006307840B940F252
:104460008010C2F200000021FEF7B6FC012030707F
:1044700040F28010C2F200000068406BE8B140F2E8
:104480008010C2F200000021FFF724F9C00714D108
:1044900040F28010C2F200000021FFF71BF903F088
:1044A00062F99FED190B02460B4651EC100B02F01E
:1044B000ABFF41EC100B86ED020B96ED020B9FED6E
:1044C000141B51EC100B53EC112B03F0D7F90446DD
:1044D000307E0D4603F047F902460B46204629463A
:1044E00003F0CCF90446707E0D466421484303F086
:1044F00023F902460B462046294602F085FF41EC8F
:10450000100B86ED040B70BD0000000080842E416E
:104510001F85EB51B81E194010B540F24004C2F29D
:104520000004207840B90120207040F23410C2F21B
:1045300000000421FFF716F8608844F24021C0F221
:104540000F01B1FBF0F040F23411C2F20001096832
:104550000138C862C86A2279504348F21F52C5F236
:10456000EB12A0FB02025009886310BD40F2184014
:10457000C4F600000169002241F400710161016983
:104580004FF0030C41F480710161016841F020019A
:104590000160C0F8FC23016941F02001016100BF06
:1045A00000BF00BF016841F020010160016841F4D3
:1045B000807101600121C0F8FC13036943F02003FE
:1045C000036100BF00BF00BF036843F02003036026
:1045D000036843F480730360036943F40073036169
:1045E000036943F480730361036843F020030360AD
:1045F000C0F8FC13036943F02003036100BF00BF50
:1046000000BF036843F020030360036843F4807332
:104610000360C0F8FC23026942F02002026100BF7F
:1046200000BF00BF026842F020020260026842F44C
:1046300080720260026942F400720261026942F40F
:1046400080720261026842F0200202601022C0F80B
:10465000FC23026942F02002026100BF00BF00BFDC
:10466000026842F020020260026842F48072026036
:1046700041F29072C0F8FC23026942F0200202610C
:1046800000BF00BF00BF026842F020020260026863
:1046900042F480720260026942F4007202610269AF
:1046A00042F480720261026842F0200202606022DD
:1046B000C0F8FC23026942F02002026100BF00BF83
:1046C00000BF026842F020020260026842F4807279
:1046D00002604FF41C52C0F8FC23026942F0200231
:1046E000026100BF00BF00BF026842F0200202600A
:1046F000026842F480720260026942F40072026150
:10470000026942F480720261026842F02002026093
:104710006122C0F8FC23026942F02002026100BF5E
:1047200000BF00BF026842F020020260026842F44B
:1047300080720260C0F8FC13016941F02001016140
:1047400000BF00BF00BF016841F0200101600168A7
:1047500041F480710160016941F4007101610169F6
:1047600041F480710161016841F02001016046213E
:10477000C0F8FC13016941F02001016100BF00BFD6
:1047800000BF016841F020010160016841F48071BF
:1047900001600221C0F8FC13026942F020020261AC
:1047A00000BF00BF00BF026842F020020260026842
:1047B00042F480720260026942F40072026102698E
:1047C00042F480720261026842F020020260132209
:1047D000C0F8FC23026942F02002026100BF00BF62
:1047E00000BF026842F020020260026842F4807258
:1047F000026048F21002C0F8FC23026942F0200275
:10480000026100BF00BF00BF026842F020020260E8
:10481000026842F480720260026942F4007202612E
:10482000026942F480720261026842F02002026072
:104830001222C0F8FC23026942F02002026100BF8C
:1048400000BF00BF026842F020020260026842F42A
:104850008072026048F2FE02C0F8FC23026942F056
:104860002002026100BF00BF00BF026842F02002C8
:104870000260026842F480720260026942F40072CF
:104880000261026942F480720261026842F0200211
:104890000260C0F8FC13016941F02001016100BF12
:1048A00000BF00BF016841F020010160016841F4D0
:1048B000807101604FF4A061C0F8FC13016941F000
:1048C0002001016100BF00BF00BF016841F020016D
:1048D0000160016841F480710160016941F4007177
:1048E0000161016941F480710161016841F02001B9
:1048F0000160C0F8FCC3026942F02002026100BFFF
:1049000000BF00BF026842F020020260026842F469
:104910008072026041F23002C0F8FC23026942F06A
:104920002002026100BF00BF00BF026842F0200207
:104930000260026842F480720260026942F400720E
:104940000261026942F480720261026842F0200250
:1049500002603022C0F8FC23026942F020020261AA
:1049600000BF00BF00BF026842F020020260026880
:1049700042F48072026040F20332C0F8FC23036903
:1049800043F02003036100BF00BF00BF036843F092
:1049900020030360036843F480730360036943F4F6
:1049A00000730361036943F480730361036843F098
:1049B000200303603123C0F8FC33036943F0200374
:1049C000036100BF00BF00BF036843F02003036022
:1049D000036843F480730360C0F8FC23036943F069
:1049E0002003036100BF00BF00BF036843F0200342
:1049F0000360036843F480730360036943F4007346
:104A00000361036943F480730361036843F0200387
:104A100003603223C0F8FC33036943F020030361D1
:104A200000BF00BF00BF036843F0200303600368BA
:104A300043F480730360C0F8FC23036943F0200350
:104A4000036100BF00BF00BF036843F020030360A1
:104A5000036843F480730360036943F400730361E4
:104A6000036943F480730361036843F02003036028
:104A70003323C0F8FC33036943F02003036100BF14
:104A800000BF00BF036843F020030360036843F4E2
:104A9000807303604FF44073C0F8FC33016941F048
:104AA0002001016100BF00BF00BF016841F020018B
:104AB0000160016841F480710160016941F4007195
:104AC0000161016941F480710161016841F02001D7
:104AD00001603421C0F8FC13016941F0200101613B
:104AE00000BF00BF00BF016841F020010160016804
:104AF00041F480710160C0F8FCC3016941F02001FC
:104B0000016100BF00BF00BF016841F020010160EA
:104B1000016841F480710160016941F40071016133
:104B2000016941F480710161016841F02001016077
:104B30003521C0F8FC13016941F02001016100BF7B
:104B400000BF00BF016841F020010160016841F42D
:104B500080710160C0F8FC23016941F0200101610E
:104B600000BF00BF00BF016841F020010160016883
:104B700041F480710160016941F4007101610169D2
:104B800041F480710161016841F02001016036212A
:104B9000C0F8FC13016941F02001016100BF00BFB2
:104BA00000BF016841F020010160016841F480719B
:104BB00001601421C0F8FC13016941F0200101617A
:104BC00000BF00BF00BF016841F020010160016823
:104BD00041F480710160016941F400710161016972
:104BE00041F480710161016841F0200101603721C9
:104BF000C0F8FC13016941F02001016100BF00BF52
:104C000000BF016841F020010160016841F480713A
:104C10000160C0F8FC23016941F02001016100BF7F
:104C200000BF00BF016841F020010160016841F44C
:104C300080710160016941F400710161016941F411
:104C400080710161016841F0200101603821C0F8E4
:104C5000FC13016941F02001016100BF00BF00BFEA
:104C6000016841F020010160016841F48071016038
:104C7000C0F8FC23016941F02001016100BF00BFC1
:104C800000BF016841F020010160016841F48071BA
:104C90000160016941F400710161016941F48071B1
:104CA0000161016841F0200101603921C0F8FC1365
:104CB000016941F02001016100BF00BF00BF016830
:104CC00041F020010160016841F480710160C0F889
:104CD000FC23016941F02001016100BF00BF00BF5A
:104CE000016841F020010160016841F480710160B8
:104CF000016941F400710161016941F48071016150
:104D0000016841F0200101603A21C0F8FC130169FB
:104D100041F02001016100BF00BF00BF016841F008
:104D200020010160016841F480710160C0F8FC332A
:104D3000016941F02001016100BF00BF00BF0168AF
:104D400041F020010160016841F480710160016956
:104D500041F400710161016941F4807101610168F0
:104D600041F0200101603B21C0F8FC13016941F0D2
:104D70002001016100BF00BF00BF016841F02001B8
:104D80000160016841F480710160C0F8FCC30169F1
:104D900041F02001016100BF00BF00BF016841F088
:104DA00020010160016841F480710160016941F4F2
:104DB00000710161016941F480710161016841F094
:104DC000200101603C21C0F8FC13016941F0200181
:104DD000016100BF00BF00BF016841F02001016018
:104DE000016841F480710160C0F8FC23016941F061
:104DF0002001016100BF00BF00BF016841F0200138
:104E00000160016841F480710160016941F4007141
:104E10000161016941F480710161016841F0200183
:104E200001603D21C0F8FC13016941F020010161DE
:104E300000BF00BF00BF016841F0200101600168B0
:104E400041F4807101604FF4A051C0F8FC13016976
:104E500041F02001016100BF00BF00BF016841F0C7
:104E600020010160016841F480710160016941F431
:104E700000710161016941F480710161016841F0D3
:104E8000200101609221C0F8FC13016941F020016A
:104E9000016100BF00BF00BF016841F02001016057
:104EA000016841F4807101604FF40071C0F8FC1397
:104EB000016941F02001016100BF00BF00BF01682E
:104EC00041F020010160016841F4807101600169D5
:104ED00041F400710161016941F48071016101686F
:104EE00041F0200101609321C0F8FC13016941F0F9
:104EF0002001016100BF00BF00BF016841F0200137
:104F00000160016841F480710160C0F8FC2301690F
:104F100041F02001016100BF00BF00BF016841F006
:104F200020010160016841F480710160016941F470
:104F300000710161016941F480710161016841F012
:104F4000200101609021C0F8FC13016941F02001AB
:104F5000016100BF00BF00BF016841F02001016096
:104F6000016841F48071016040F60D01C0F8FC1346
:104F7000016941F02001016100BF00BF00BF01686D
:104F800041F020010160016841F480710160016914
:104F900041F400710161016941F4807101610168AE
:104FA00041F020010160C0F8FCC3016941F020011B
:104FB000016100BF00BF00BF016841F02001016036
:104FC000016841F48071016041F21801C0F8FC13DE
:104FD000016941F02001016100BF00BF00BF01680D
:104FE00041F020010160016841F4807101600169B4
:104FF00041F400710161016941F48071016101684E
:1050000041F0200101600721C0F8FC13016941F063
:105010002001016100BF00BF00BF016841F0200115
:105020000160016841F48071016040F27311C0F8C1
:10503000FC13016941F02001016100BF00BF00BF06
:10504000016841F020010160016841F48071016054
:10505000704700002DE9F04F81B040F21844C4F6CB
:10506000000420694FF0120940F4007020612069AB
:10507000002540F4807020612068112640F0200057
:105080002060E320C4F8FC0320694FF0130B40F0CC
:105090002000206100BF00BF00BF2068102740F043
:1050A0002000206020684FF0070840F480702060E6
:1050B00043F20800C4F8FC03206940F0200020619E
:1050C00000BF00BF00BF206840F0200020602068C3
:1050D00040F480702060206940F4007020612069F5
:1050E00040F480702061206840F020002060E720BC
:1050F000C4F8FC03206940F02000206100BF00BF1D
:1051000000BF206840F020002060206840F48070DC
:105110002060C4F8FC93206940F02000206100BFAB
:1051200000BF00BF206840F020002060206840F4ED
:1051300080702060206940F400702061206940F494
:1051400080702061206840F020002060EF20C4F8CB
:10515000FC03206940F02000206100BF00BF00BFB9
:10516000206840F020002060206840F480702060BB
:1051700041F23120C4F8FC03206940F02000206196
:1051800000BF00BF00BF206840F020002060206802
:1051900040F480702060206940F400702061206934
:1051A00040F480702061206840F0200020600120E1
:1051B000C4F8FC03206940F02000206100BF00BF5C
:1051C00000BF206840F020002060206840F480701C
:1051D0002060C4F8FC53206940F02000206100BF2B
:1051E00000BF00BF206840F020002060206840F42D
:1051F00080702060206940F400702061206940F4D4
:1052000080702061206840F0200020600220C4F8F7
:10521000FC03206940F02000206100BF00BF00BFF8
:10522000206840F020002060206840F480702060FA
:105230004FF4E060C4F8FC03206940F020002061D6
:1052400000BF00BF00BF206840F020002060206841
:1052500040F480702060206940F400702061206973
:1052600040F480702061206840F02000206003201E
:10527000C4F8FC03206940F02000206100BF00BF9B
:1052800000BF206840F020002060206840F480705B
:10529000206041F23000C4F8FC03206940F0200097
:1052A000206100BF00BF00BF206840F020002060E8
:1052B000206840F480702060206940F40070206114
:1052C000206940F480702061206840F02000206058
:1052D0000420C4F8FC03206940F02000206100BFD6
:1052E00000BF00BF206840F020002060206840F42C
:1052F00080702060C4F8FC53206940F020002061D9
:1053000000BF00BF00BF206840F020002060206880
:1053100040F480702060206940F4007020612069B2
:1053200040F480702061206840F020002060082058
:10533000C4F8FC03206940F02000206100BF00BFDA
:1053400000BF206840F020002060206840F480709A
:10535000206040F20720C4F8FC03206940F02000E0
:10536000206100BF00BF00BF206840F02000206027
:10537000206840F480702060206940F40070206153
:10538000206940F480702061206840F02000206097
:105390000920C4F8FC03206940F02000206100BF10
:1053A00000BF00BF206840F020002060206840F46B
:1053B00080702060C4F8FC53206940F02000206118
:1053C00000BF00BF00BF206840F0200020602068C0
:1053D00040F480702060206940F4007020612069F2
:1053E00040F480702061206840F0200020600A2096
:1053F000C4F8FC03206940F02000206100BF00BF1A
:1054000000BF206840F020002060206840F48070D9
:105410002060C4F8FC53206940F02000206100BFE8
:1054200000BF00BF206840F020002060206840F4EA
:1054300080702060206940F400702061206940F491
:1054400080702061206840F0200020600C20C4F8AB
:10545000FC03206940F02000206100BF00BF00BFB6
:10546000206840F020002060206840F480702060B8
:10547000C4F8FC53206940F02000206100BF00BF49
:1054800000BF206840F020002060206840F4807059
:105490002060206940F400702061206940F4807031
:1054A0002061206840F0200020600D20C4F8FC033B
:1054B000206940F02000206100BF00BF00BF2068CD
:1054C00040F020002060206840F480702060C4F824
:1054D000FC53206940F02000206100BF00BF00BFE6
:1054E000206840F020002060206840F48070206038
:1054F000206940F400702061206940F480702061D0
:10550000206840F0200020600F20C4F8FC032069D0
:1055100040F02000206100BF00BF00BF206840F0C5
:1055200020002060206840F480702060C4F8FC53A4
:10553000206940F02000206100BF00BF00BF20684C
:1055400040F020002060206840F4807020602069D6
:1055500040F400702061206940F480702061206870
:1055600040F0200020601020C4F8FC03206940F0C7
:105570002000206100BF00BF00BF206840F0200075
:105580002060206840F480702060C4F8FC532069DB
:1055900040F02000206100BF00BF00BF206840F045
:1055A00020002060206840F480702060206940F472
:1055B00000702061206940F480702061206840F014
:1055C00020002060C4F8FC63206940F020002061C6
:1055D00000BF00BF00BF206840F0200020602068AE
:1055E00040F4807020600720C4F8FC03206940F07C
:1055F0002000206100BF00BF00BF206840F02000F5
:105600002060206840F480702060206940F40070C1
:105610002061206940F480702061206840F0200003
:105620002060C4F8FC93206940F02000206100BF96
:1056300000BF00BF206840F020002060206840F4D8
:1056400080702060C4F8FC53206940F02000206185
:1056500000BF00BF00BF206840F02000206020682D
:1056600040F480702060206940F40070206120695F
:1056700040F480702061206840F020002060C4F871
:10568000FCB3206940F02000206100BF00BF00BFD4
:10569000206840F020002060206840F48070206086
:1056A000C4F8FC53206940F02000206100BF00BF17
:1056B00000BF206840F020002060206840F4807027
:1056C0002060C820FCF714F920694FF0320A40F43A
:1056D00000702061206940F480702061206840F0F3
:1056E00020002060C4F8FC732069102740F02000DF
:1056F000206100BF00BF00BF206840F02000206094
:10570000206840F48070206041F29060C4F8FC038F
:10571000206940F02000206100BF00BF00BF20686A
:1057200040F020002060206840F4807020602069F4
:1057300040F400702061206940F48070206120688E
:1057400040F020002060C4F8FC63206940F0200095
:10575000206100BF00BF00BF206840F02000206033
:10576000206840F48070206040F22720C4F8FC03D9
:10577000206940F02000206100BF00BF00BF20680A
:1057800040F020002060206840F4807020603220CB
:10579000FCF7AEF8206940F400702061206940F405
:1057A00080702061206840F020002060C4F8FC93E5
:1057B000206940F02000206100BF00BF00BF2068CA
:1057C00040F020002060206840F4807020601D20A0
:1057D000C4F8FC03206940F02000206100BF00BF36
:1057E00000BF206840F020002060206840F48070F6
:1057F00020603220FCF77CF8206940F400702061C2
:10580000206940F480702061206840F02000206012
:10581000C4F8FCB3206940F02000206100BF00BF45
:1058200000BF206840F020002060206840F48070B5
:1058300020604FF40060C4F8FC03206940F02000B1
:10584000206100BF00BF00BF206840F02000206042
:10585000206840F480702060206940F4007020616E
:10586000206940F480702061206840F020002060B2
:105870002920C4F8FC03206940F02000206100BF0B
:1058800000BF00BF206840F020002060206840F486
:10589000807020601420C4F8FC03206940F02000D0
:1058A000206100BF00BF00BF206840F020002060E2
:1058B000206840F480702060206940F4007020610E
:1058C000206940F480702061206840F02000206052
:1058D0002B20C4F8FC03206940F02000206100BFA9
:1058E00000BF00BF206840F020002060206840F426
:1058F000807020600B20C4F8FC03206940F0200079
:10590000206100BF00BF00BF206840F02000206081
:10591000206840F4807020603220FBF7E9FF2069A6
:10592000032140F4007020612069072240F4807058
:105930002061206840F0200020602020C4F8FC0393
:10594000206940F02000206100BF00BF00BF206838
:1059500040F020002060206840F480702060C4F88F
:10596000FC53206940F02000206100BF00BF00BF51
:10597000206840F020002060206840F480702060A3
:10598000206940F400702061206940F4807020613B
:10599000206840F0200020602120C4F8FC0320692A
:1059A00040F02000206100BF00BF00BF206840F031
:1059B00020002060206840F480702060C4F8FC5310
:1059C000206940F02000206100BF00BF00BF2068B8
:1059D00040F020002060206840F480702060206942
:1059E00040F400702061206940F4807020612068DC
:1059F00040F0200020603020C4F8FC03206940F013
:105A00002000206100BF00BF00BF206840F02000E0
:105A10002060206840F480702060C4F8FC83206916
:105A200040F02000206100BF00BF00BF206840F0B0
:105A300020002060206840F480702060206940F4DD
:105A400000702061206940F480702061206840F07F
:105A5000200020603120C4F8FC03206940F02000C1
:105A6000206100BF00BF00BF206840F02000206020
:105A7000206840F48070206040F20770C4F8FC0396
:105A8000206940F02000206100BF00BF00BF2068F7
:105A900040F020002060206840F480702060206981
:105AA00040F400702061206940F48070206120681B
:105AB00040F020002060C4F8FCA3206940F02000E2
:105AC000206100BF00BF00BF206840F020002060C0
:105AD000206840F4807020600620C4F8FC03206930
